{"abi":[{"type":"constructor","inputs":[{"name":"realEstateToken","type":"address","internalType":"address"}],"stateMutability":"nonpayable"},{"type":"function","name":"APPRAISER_REWARD_SHARE","inputs":[],"outputs":[{"name":"","type":"uint256","internalType":"uint256"}],"stateMutability":"view"},{"type":"function","name":"SAFETY_PERCENT","inputs":[],"outputs":[{"name":"","type":"uint256","internalType":"uint256"}],"stateMutability":"view"},{"type":"function","name":"acceptOwnership","inputs":[],"outputs":[],"stateMutability":"nonpayable"},{"type":"function","name":"assign","inputs":[{"name":"tokenId_","type":"uint256","internalType":"uint256"},{"name":"rentAmount_","type":"uint256","internalType":"uint256"},{"name":"epochDuration_","type":"uint256","internalType":"uint256"},{"name":"programEnd_","type":"uint256","internalType":"uint256"}],"outputs":[],"stateMutability":"payable"},{"type":"function","name":"availableWithdraw","inputs":[],"outputs":[{"name":"paymentAmount","type":"uint256","internalType":"uint256"}],"stateMutability":"view"},{"type":"function","name":"canClaimAppraiser","inputs":[{"name":"appraiser","type":"address","internalType":"address"}],"outputs":[{"name":"rewards","type":"uint256","internalType":"uint256"}],"stateMutability":"view"},{"type":"function","name":"canClaimDepositor","inputs":[{"name":"depositor","type":"address","internalType":"address"}],"outputs":[{"name":"","type":"uint256","internalType":"uint256"}],"stateMutability":"view"},{"type":"function","name":"canLiquidate","inputs":[],"outputs":[{"name":"","type":"bool","internalType":"bool"}],"stateMutability":"view"},{"type":"function","name":"claimAppraiser","inputs":[],"outputs":[],"stateMutability":"nonpayable"},{"type":"function","name":"claimDepositor","inputs":[],"outputs":[],"stateMutability":"nonpayable"},{"type":"function","name":"deposit","inputs":[{"name":"amountPayment","type":"uint256","internalType":"uint256"}],"outputs":[],"stateMutability":"payable"},{"type":"function","name":"depositOwner","inputs":[{"name":"amount","type":"uint256","internalType":"uint256"}],"outputs":[],"stateMutability":"payable"},{"type":"function","name":"getEpoch","inputs":[],"outputs":[{"name":"epochNumber","type":"uint256","internalType":"uint256"},{"name":"epochEndTime","type":"uint256","internalType":"uint256"}],"stateMutability":"view"},{"type":"function","name":"getPlan","inputs":[],"outputs":[{"name":"","type":"tuple","internalType":"struct Pool.UsagePlan","components":[{"name":"rentAmount","type":"uint256","internalType":"uint256"},{"name":"epochDuration","type":"uint256","internalType":"uint256"},{"name":"programEnd","type":"uint256","internalType":"uint256"}]}],"stateMutability":"view"},{"type":"function","name":"getPrice","inputs":[],"outputs":[{"name":"tokenPrice","type":"uint256","internalType":"uint256"}],"stateMutability":"view"},{"type":"function","name":"getUserBalanceAtEpoch","inputs":[{"name":"user","type":"address","internalType":"address"},{"name":"targetEpoch","type":"uint256","internalType":"uint256"}],"outputs":[{"name":"","type":"uint256","internalType":"uint256"}],"stateMutability":"view"},{"type":"function","name":"liquidate","inputs":[],"outputs":[],"stateMutability":"nonpayable"},{"type":"function","name":"onERC1155Received","inputs":[{"name":"","type":"address","internalType":"address"},{"name":"","type":"address","internalType":"address"},{"name":"","type":"uint256","internalType":"uint256"},{"name":"","type":"uint256","internalType":"uint256"},{"name":"","type":"bytes","internalType":"bytes"}],"outputs":[{"name":"","type":"bytes4","internalType":"bytes4"}],"stateMutability":"pure"},{"type":"function","name":"owner","inputs":[],"outputs":[{"name":"","type":"address","internalType":"address"}],"stateMutability":"view"},{"type":"function","name":"payRent","inputs":[{"name":"amount","type":"uint256","internalType":"uint256"}],"outputs":[],"stateMutability":"payable"},{"type":"function","name":"paySafety","inputs":[{"name":"amount","type":"uint256","internalType":"uint256"}],"outputs":[],"stateMutability":"payable"},{"type":"function","name":"paymentDeposited","inputs":[],"outputs":[{"name":"","type":"uint256","internalType":"uint256"}],"stateMutability":"view"},{"type":"function","name":"rentDue","inputs":[],"outputs":[{"name":"remainingRent","type":"uint256","internalType":"uint256"}],"stateMutability":"view"},{"type":"function","name":"safetyAmount","inputs":[],"outputs":[{"name":"paymentAmount","type":"uint256","internalType":"uint256"}],"stateMutability":"view"},{"type":"function","name":"safetyAmountDue","inputs":[],"outputs":[{"name":"remainingAmount","type":"uint256","internalType":"uint256"}],"stateMutability":"view"},{"type":"function","name":"setIssuer","inputs":[{"name":"_issuer","type":"address","internalType":"address"}],"outputs":[],"stateMutability":"nonpayable"},{"type":"function","name":"transferOwnership","inputs":[{"name":"to","type":"address","internalType":"address"}],"outputs":[],"stateMutability":"nonpayable"},{"type":"function","name":"withdraw","inputs":[{"name":"amountRealEstateToken","type":"uint256","internalType":"uint256"}],"outputs":[],"stateMutability":"nonpayable"},{"type":"function","name":"withdrawOwner","inputs":[{"name":"amountPayment","type":"uint256","internalType":"uint256"}],"outputs":[],"stateMutability":"nonpayable"},{"type":"event","name":"Claim","inputs":[{"name":"user","type":"address","indexed":true,"internalType":"address"},{"name":"amount","type":"uint256","indexed":false,"internalType":"uint256"}],"anonymous":false},{"type":"event","name":"Deposit","inputs":[{"name":"user","type":"address","indexed":true,"internalType":"address"},{"name":"deposited","type":"uint256","indexed":false,"internalType":"uint256"},{"name":"received","type":"uint256","indexed":false,"internalType":"uint256"},{"name":"token","type":"address","indexed":false,"internalType":"address"}],"anonymous":false},{"type":"event","name":"OwnershipTransferRequested","inputs":[{"name":"from","type":"address","indexed":true,"internalType":"address"},{"name":"to","type":"address","indexed":true,"internalType":"address"}],"anonymous":false},{"type":"event","name":"OwnershipTransferred","inputs":[{"name":"from","type":"address","indexed":true,"internalType":"address"},{"name":"to","type":"address","indexed":true,"internalType":"address"}],"anonymous":false},{"type":"event","name":"RentPayment","inputs":[{"name":"","type":"uint256","indexed":false,"internalType":"uint256"}],"anonymous":false},{"type":"event","name":"SetIssuer","inputs":[{"name":"issuer","type":"address","indexed":true,"internalType":"address"}],"anonymous":false},{"type":"event","name":"Withdraw","inputs":[{"name":"user","type":"address","indexed":true,"internalType":"address"},{"name":"withdrawn","type":"uint256","indexed":false,"internalType":"uint256"},{"name":"sent","type":"uint256","indexed":false,"internalType":"uint256"},{"name":"token","type":"address","indexed":false,"internalType":"address"}],"anonymous":false},{"type":"error","name":"BalanceDepositMismatch","inputs":[]},{"type":"error","name":"ERC1155Core_CallerIsNotIssuerOrItself","inputs":[{"name":"msgSender","type":"address","internalType":"address"}]},{"type":"error","name":"ERC1155Core_CallerIsNotIssuerOrOwner","inputs":[{"name":"msgSender","type":"address","internalType":"address"}]},{"type":"error","name":"InvalidProgramEnd","inputs":[]},{"type":"error","name":"MsgValueMismatch","inputs":[]},{"type":"error","name":"NoEnoughBalance","inputs":[]},{"type":"error","name":"NoEpochPrice","inputs":[{"name":"","type":"uint256","internalType":"uint256"}]},{"type":"error","name":"NoFundsToWithdraw","inputs":[]},{"type":"error","name":"NoRentToClaim","inputs":[]},{"type":"error","name":"NoSafetyBalance","inputs":[{"name":"","type":"uint256","internalType":"uint256"}]},{"type":"error","name":"PlanNotAssigned","inputs":[]},{"type":"error","name":"ProgramFinished","inputs":[]},{"type":"error","name":"ReentrancyGuardReentrantCall","inputs":[]},{"type":"error","name":"TokenIdNotFound","inputs":[]},{"type":"error","name":"TooShortEpoch","inputs":[]}],"bytecode":{"object":"0x60a06040523480156200001157600080fd5b506040516200258a3803806200258a833981016040819052620000349162000183565b33806000816200008b5760405162461bcd60e51b815260206004820152601860248201527f43616e6e6f7420736574206f776e657220746f207a65726f000000000000000060448201526064015b60405180910390fd5b600080546001600160a01b0319166001600160a01b0384811691909117909155811615620000be57620000be81620000d8565b50506001600355506001600160a01b0316608052620001b5565b336001600160a01b03821603620001325760405162461bcd60e51b815260206004820152601760248201527f43616e6e6f74207472616e7366657220746f2073656c66000000000000000000604482015260640162000082565b600180546001600160a01b0319166001600160a01b0383811691821790925560008054604051929316917fed8889f560326eb138920d842192f0eb3dd22b4f139c87a2c57538e05bae12789190a350565b6000602082840312156200019657600080fd5b81516001600160a01b0381168114620001ae57600080fd5b9392505050565b60805161235e6200022c60003960008181610641015281816106bc0152818161091d01528181610a0d01528181610b3c01528181610f20015281816112900152818161135901528181611675015281816117b9015281816119eb01528181611ae001528181611b720152611cef015261235e6000f3fe6080604052600436106101c25760003560e01c8063757991a8116100f7578063bfa26e5611610095578063d7af9cb711610064578063d7af9cb71461046c578063d9e8843f1461048c578063f23a6e611461049f578063f2fde38b146104e557600080fd5b8063bfa26e561461040a578063cd13ee771461041f578063cf21429314610444578063d2ac82941461045957600080fd5b806398d5fdca116100d157806398d5fdca14610396578063abf0b21c146103ab578063af0686d2146103c0578063b6b55f25146103f757600080fd5b8063757991a81461032f57806379ba5097146103595780638da5cb5b1461036e57600080fd5b80632ef910c61161016457806355cc4e571161013e57806355cc4e57146102c4578063581874f4146102e45780636ef98b21146102fa5780637406b24a1461031a57600080fd5b80632ef910c6146102875780633e86936e1461029c5780633fa43d21146102b157600080fd5b806328a07025116101a057806328a070251461022457806328cf8bb0146102345780632aae7b39146102475780632e1a7d4d1461026757600080fd5b806302fe35bc146101c757806306c309c2146101fa578063074db0401461020f575b600080fd5b3480156101d357600080fd5b506101e76101e2366004612050565b610505565b6040519081526020015b60405180910390f35b34801561020657600080fd5b506101e7603281565b34801561021b57600080fd5b506101e76105be565b34801561023057600080fd5b505b005b61023261024236600461207c565b6105f2565b34801561025357600080fd5b506101e7610262366004612095565b6106a9565b34801561027357600080fd5b5061023261028236600461207c565b61085f565b34801561029357600080fd5b506101e7610ba5565b3480156102a857600080fd5b506101e7610c3a565b6102326102bf36600461207c565b610cad565b3480156102d057600080fd5b506102326102df366004612095565b610cfa565b3480156102f057600080fd5b506101e7600b5481565b34801561030657600080fd5b5061023261031536600461207c565b610d4c565b34801561032657600080fd5b50610232610f86565b34801561033b57600080fd5b506103446110c1565b604080519283526020830191909152016101f1565b34801561036557600080fd5b50610232611162565b34801561037a57600080fd5b506000546040516001600160a01b0390911681526020016101f1565b3480156103a257600080fd5b506101e761120c565b3480156103b757600080fd5b506101e7600a81565b3480156103cc57600080fd5b506103d561140e565b60408051825181526020808401519082015291810151908201526060016101f1565b61023261040536600461207c565b61149c565b34801561041657600080fd5b5061023261181c565b34801561042b57600080fd5b50610434611911565b60405190151581526020016101f1565b34801561045057600080fd5b506101e76119c6565b6102326104673660046120b2565b611a87565b34801561047857600080fd5b506101e7610487366004612095565b611c7a565b61023261049a36600461207c565b611db0565b3480156104ab57600080fd5b506104cc6104ba3660046120e4565b63f23a6e6160e01b9695505050505050565b6040516001600160e01b031990911681526020016101f1565b3480156104f157600080fd5b50610232610500366004612095565b611e71565b600080805b6001600160a01b0385166000908152600760205260409020548110156105a2576001600160a01b03851660009081526007602052604081208054839081106105545761055461218e565b90600052602060002001549050848111610599576001600160a01b038616600090815260066020908152604080832084845290915290205461059690846121ba565b92505b5060010161050a565b50600081136105b25760006105b4565b805b9150505b92915050565b60006105c86119c6565b600b54116105d65750600090565b6105de6119c6565b600b546105eb91906121e2565b905090565b565b6105fa611e82565b80341461061a5760405163bc6f88c560e01b815260040160405180910390fd5b80600b600082825461062c91906121f5565b909155505060408051828152600060208201527f00000000000000000000000000000000000000000000000000000000000000006001600160a01b031681830152905133917f02d7e648dd130fc184d383e55bb126ac4c9c60e8f94bf05acdf557ba2d540b47919081900360600190a26106a66001600355565b50565b6000806106b46110c1565b5090506000807f00000000000000000000000000000000000000000000000000000000000000006001600160a01b031663bd85b0396008546040518263ffffffff1660e01b815260040161070a91815260200190565b602060405180830381865afa158015610727573d6000803e3d6000fd5b505050506040513d601f19601f8201168201806040525081019061074b9190612208565b9050600081116107965760405162461bcd60e51b81526020600482015260116024820152705a65726f20746f74616c20737570706c7960781b60448201526064015b60405180910390fd5b60015b8381101561081e5760006107ad8783610505565b9050806000036107bd5750610816565b6000836107d283670de0b6b3a7640000612221565b6107dc9190612238565b90506000670de0b6b3a764000082600c600001546107fa9190612221565b6108049190612238565b905061081081876121f5565b95505050505b600101610799565b506001600160a01b03851660009081526005602052604090205480831161084b5750600095945050505050565b61085581846121e2565b9695505050505050565b610867611e82565b600061087161120c565b9050806000036108fe576000306001600160a01b031663757991a86040518163ffffffff1660e01b81526004016040805180830381865afa1580156108ba573d6000803e3d6000fd5b505050506040513d601f19601f820116820180604052508101906108de919061225a565b509050806040516348cc74d760e11b815260040161078d91815260200190565b600854604051627eeac760e11b815233600482015260248101919091527f00000000000000000000000000000000000000000000000000000000000000006001600160a01b03169062fdd58e90604401602060405180830381865afa15801561096b573d6000803e3d6000fd5b505050506040513d601f19601f8201168201806040525081019061098f9190612208565b8211156109af57604051635ad8341160e01b815260040160405180910390fd5b60006109bb8284612221565b90506109c56105be565b8111156109e5576040516367e3990d60e01b815260040160405180910390fd5b60006109ef6110c1565b50600854604051637921219560e11b81529192506001600160a01b037f0000000000000000000000000000000000000000000000000000000000000000169163f242432a91610a4691339130918a9060040161227e565b600060405180830381600087803b158015610a6057600080fd5b505af1158015610a74573d6000803e3d6000fd5b50506040516000925033915084908381818185875af1925050503d8060008114610aba576040519150601f19603f3d011682016040523d82523d6000602084013e610abf565b606091505b5050905080610b025760405162461bcd60e51b815260206004820152600f60248201526e15da5d1a191c985dc819985a5b1959608a1b604482015260640161078d565b610b153383610b10886122b6565b611eac565b82600b6000828254610b2791906121e2565b909155505060408051848152602081018790527f00000000000000000000000000000000000000000000000000000000000000006001600160a01b031681830152905133917f8166bf25f8a2b7ed3c85049207da4358d16edbed977d23fa2ee6f0dde3ec2132919081900360600190a2505050506106a66001600355565b600d546000908103610bca576040516318963f5560e31b815260040160405180910390fd5b600e544210610bec5760405163037475dd60e11b815260040160405180910390fd5b600d546009544291600091610c0190846121e2565b610c0b9190612238565b610c169060016121f5565b600c54610c239190612221565b9050600a5481610c3391906121e2565b9250505090565b600d546000908103610c5f576040516318963f5560e31b815260040160405180910390fd5b600e544210610c815760405163037475dd60e11b815260040160405180910390fd5b600b54610c8c6119c6565b1115610ca757600b54610c9d6119c6565b6105eb91906121e2565b50600090565b610cb5611e82565b600d54600003610cd8576040516318963f5560e31b815260040160405180910390fd5b600e5442106105fa5760405163037475dd60e11b815260040160405180910390fd5b610d02611f3f565b600280546001600160a01b0319166001600160a01b0383169081179091556040517fd56ed7b1c1110348b1fbf418469f6fc4acc32d9b675e9e1e448cc19169a64ca090600090a250565b610d54611e82565b306001600160a01b0316638da5cb5b6040518163ffffffff1660e01b8152600401602060405180830381865afa158015610d92573d6000803e3d6000fd5b505050506040513d601f19601f82011682018060405250810190610db691906122d2565b6001600160a01b0316336001600160a01b031614158015610de257506002546001600160a01b03163314155b15610e0257604051634996a0cb60e01b815233600482015260240161078d565b600d54600003610e25576040516318963f5560e31b815260040160405180910390fd5b600e544210610e475760405163037475dd60e11b815260040160405180910390fd5b610e4f6105be565b811115610e6f576040516367e3990d60e01b815260040160405180910390fd5b604051600090339083908381818185875af1925050503d8060008114610eb1576040519150601f19603f3d011682016040523d82523d6000602084013e610eb6565b606091505b5050905080610ef95760405162461bcd60e51b815260206004820152600f60248201526e15da5d1a191c985dc819985a5b1959608a1b604482015260640161078d565b81600b6000828254610f0b91906121e2565b909155505060408051838152600060208201527f00000000000000000000000000000000000000000000000000000000000000006001600160a01b031681830152905133917f8166bf25f8a2b7ed3c85049207da4358d16edbed977d23fa2ee6f0dde3ec2132919081900360600190a2506106a66001600355565b610f8e611e82565b6000610f99336106a9565b9050600a54811115610fbe576040516327946cdb60e21b815260040160405180910390fd5b604051600090339083908381818185875af1925050503d8060008114611000576040519150601f19603f3d011682016040523d82523d6000602084013e611005565b606091505b50509050806110455760405162461bcd60e51b815260206004820152600c60248201526b10db185a5b4819985a5b195960a21b604482015260640161078d565b81600a600082825461105791906121e2565b9091555050336000908152600560205260408120805484929061107b9084906121f5565b909155505060405182815233907f47cee97cb7acd717b3c0aa1435d004cd5b3c8c57d70dbceb4e4458bbd60e39d49060200160405180910390a250506105f06001600355565b600080600c600101546000036110ea576040516318963f5560e31b815260040160405180910390fd5b600e54421061110c5760405163037475dd60e11b815260040160405180910390fd5b600d5460095442919061111f90836121e2565b6111299190612238565b9250600161113784826121f5565b600d546111449190612221565b60095461115191906121f5565b61115b91906121e2565b9150509091565b6001546001600160a01b031633146111b55760405162461bcd60e51b815260206004820152601660248201527526bab9ba10313290383937b837b9b2b21037bbb732b960511b604482015260640161078d565b60008054336001600160a01b0319808316821784556001805490911690556040516001600160a01b0390921692909183917f8be0079c531659141344cd1fd0a4f28419497f9722a3daafe3b4186f6b6457e091a350565b600d546000908103611231576040516318963f5560e31b815260040160405180910390fd5b600e5442106112535760405163037475dd60e11b815260040160405180910390fd5b50600d54600954600091829161126990426121e2565b6112739190612238565b60085460405163e342360560e01b81529192506001600160a01b037f0000000000000000000000000000000000000000000000000000000000000000169163e3423605916112ce918590600401918252602082015260400190565b602060405180830381865afa1580156112eb573d6000803e3d6000fd5b505050506040513d601f19601f8201168201806040525081019061130f9190612208565b91508115801561131f5750600081115b1561140a5760006113316001836121e2565b90505b818110156114085760085460405163e342360560e01b81526000916001600160a01b037f0000000000000000000000000000000000000000000000000000000000000000169163e342360591611397918690600401918252602082015260400190565b602060405180830381865afa1580156113b4573d6000803e3d6000fd5b505050506040513d601f19601f820116820180604052508101906113d89190612208565b905080156113e7579250611408565b816000036113f55750611408565b5080611400816122ef565b915050611334565b505b5090565b61143260405180606001604052806000815260200160008152602001600081525090565b600d54600003611455576040516318963f5560e31b815260040160405180910390fd5b600e5442106114775760405163037475dd60e11b815260040160405180910390fd5b5060408051606081018252600c548152600d546020820152600e549181019190915290565b6114a4611e82565b8034146114c45760405163bc6f88c560e01b815260040160405180910390fd5b6000306001600160a01b03166398d5fdca6040518163ffffffff1660e01b8152600401602060405180830381865afa158015611504573d6000803e3d6000fd5b505050506040513d601f19601f820116820180604052508101906115289190612208565b9050306001600160a01b03166398d5fdca6040518163ffffffff1660e01b8152600401602060405180830381865afa158015611568573d6000803e3d6000fd5b505050506040513d601f19601f8201168201806040525081019061158c9190612208565b6000036115d2576000306001600160a01b031663757991a86040518163ffffffff1660e01b81526004016040805180830381865afa1580156108ba573d6000803e3d6000fd5b3415611811576000306001600160a01b031663757991a86040518163ffffffff1660e01b81526004016040805180830381865afa158015611617573d6000803e3d6000fd5b505050506040513d601f19601f8201168201806040525081019061163b919061225a565b509050600061164a8385612238565b905060006116588483612221565b600854604051637921219560e11b81529192506001600160a01b037f0000000000000000000000000000000000000000000000000000000000000000169163f242432a916116ae9130913391889060040161227e565b600060405180830381600087803b1580156116c857600080fd5b505af11580156116dc573d6000803e3d6000fd5b505050506116eb338484611eac565b80600b60008282546116fd91906121f5565b909155506000905061170f82876121e2565b905080156117a157604051600090339083908381818185875af1925050503d8060008114611759576040519150601f19603f3d011682016040523d82523d6000602084013e61175e565b606091505b505090508061179f5760405162461bcd60e51b815260206004820152600d60248201526c1499599d5b990819985a5b1959609a1b604482015260640161078d565b505b60408051838152602081018590526001600160a01b037f00000000000000000000000000000000000000000000000000000000000000001681830152905133917f02d7e648dd130fc184d383e55bb126ac4c9c60e8f94bf05acdf557ba2d540b47919081900360600190a2505050505b506106a66001600355565b611824611e82565b600061182f33611c7a565b9050600a54811115611854576040516327946cdb60e21b815260040160405180910390fd5b604051600090339083908381818185875af1925050503d8060008114611896576040519150601f19603f3d011682016040523d82523d6000602084013e61189b565b606091505b50509050806118db5760405162461bcd60e51b815260206004820152600c60248201526b10db185a5b4819985a5b195960a21b604482015260640161078d565b81600a60008282546118ed91906121e2565b9091555050336000908152600460205260408120805484929061107b9084906121f5565b600d546000908103611936576040516318963f5560e31b815260040160405180910390fd5b600e5442106119585760405163037475dd60e11b815260040160405180910390fd5b600c60000154306001600160a01b0316632ef910c66040518163ffffffff1660e01b8152600401602060405180830381865afa15801561199c573d6000803e3d6000fd5b505050506040513d601f19601f820116820180604052508101906119c09190612208565b11905090565b6000806119d161120c565b60085460405163bd85b03960e01b815260048101919091527f00000000000000000000000000000000000000000000000000000000000000006001600160a01b03169063bd85b03990602401602060405180830381865afa158015611a3a573d6000803e3d6000fd5b505050506040513d601f19601f82011682018060405250810190611a5e9190612208565b611a689190612221565b90506064611a77600a83612221565b611a819190612238565b91505090565b611a8f611e82565b333014801590611aaa57506002546001600160a01b03163314155b15611aca57604051637725137960e11b815233600482015260240161078d565b604051634f558e7960e01b8152600481018590527f00000000000000000000000000000000000000000000000000000000000000006001600160a01b031690634f558e7990602401602060405180830381865afa158015611b2f573d6000803e3d6000fd5b505050506040513d601f19601f82011682018060405250810190611b539190612306565b611b7057604051637ec8def360e11b815260040160405180910390fd5b7f00000000000000000000000000000000000000000000000000000000000000006001600160a01b0316638863af946040518163ffffffff1660e01b8152600401602060405180830381865afa158015611bce573d6000803e3d6000fd5b505050506040513d601f19601f82011682018060405250810190611bf29190612208565b821015611c12576040516301c6f56560e11b815260040160405180910390fd5b6000600a55426009819055818110611c3d57604051631ffd54a160e01b815260040160405180910390fd5b506008849055604080516060810182528481526020810184905201819052600c839055600d829055600e819055611c746001600355565b50505050565b600080611c856110c1565b50905060005b81811015611d8557600c54600090606490611ca7906032612221565b611cb19190612238565b600854604051630924a32160e01b81526001600160a01b038881166004830152602482019290925260448101859052919250670de0b6b3a7640000917f000000000000000000000000000000000000000000000000000000000000000090911690630924a32190606401602060405180830381865afa158015611d38573d6000803e3d6000fd5b505050506040513d601f19601f82011682018060405250810190611d5c9190612208565b611d669083612221565b611d709190612238565b611d7a90856121f5565b935050600101611c8b565b506001600160a01b038316600090815260046020526040902054611da990836121e2565b9392505050565b611db8611e82565b600d54600003611ddb576040516318963f5560e31b815260040160405180910390fd5b600e544210611dfd5760405163037475dd60e11b815260040160405180910390fd5b803414611e1d5760405163bc6f88c560e01b815260040160405180910390fd5b80600a6000828254611e2f91906121f5565b90915550506040518181527fae6c856401df047ba1dde3436da71dfaf45c65409c2e917871389afb1a11b3559060200160405180910390a16106a66001600355565b611e79611f3f565b6106a681611f92565b600260035403611ea557604051633ee5aeb560e01b815260040160405180910390fd5b6002600355565b6001600160a01b03831660009081526006602090815260408083208584529091528120549003611f02576001600160a01b0383166000908152600760209081526040822080546001810182559083529120018290555b6001600160a01b038316600090815260066020908152604080832085845290915281208054839290611f359084906121ba565b9091555050505050565b6000546001600160a01b031633146105f05760405162461bcd60e51b815260206004820152601660248201527527b7363c9031b0b63630b1363290313c9037bbb732b960511b604482015260640161078d565b336001600160a01b03821603611fea5760405162461bcd60e51b815260206004820152601760248201527f43616e6e6f74207472616e7366657220746f2073656c66000000000000000000604482015260640161078d565b600180546001600160a01b0319166001600160a01b0383811691821790925560008054604051929316917fed8889f560326eb138920d842192f0eb3dd22b4f139c87a2c57538e05bae12789190a350565b6001600160a01b03811681146106a657600080fd5b6000806040838503121561206357600080fd5b823561206e8161203b565b946020939093013593505050565b60006020828403121561208e57600080fd5b5035919050565b6000602082840312156120a757600080fd5b81356105b28161203b565b600080600080608085870312156120c857600080fd5b5050823594602084013594506040840135936060013592509050565b60008060008060008060a087890312156120fd57600080fd5b86356121088161203b565b955060208701356121188161203b565b94506040870135935060608701359250608087013567ffffffffffffffff8082111561214357600080fd5b818901915089601f83011261215757600080fd5b81358181111561216657600080fd5b8a602082850101111561217857600080fd5b6020830194508093505050509295509295509295565b634e487b7160e01b600052603260045260246000fd5b634e487b7160e01b600052601160045260246000fd5b80820182811260008312801582168215821617156121da576121da6121a4565b505092915050565b818103818111156105b8576105b86121a4565b808201808211156105b8576105b86121a4565b60006020828403121561221a57600080fd5b5051919050565b80820281158282048414176105b8576105b86121a4565b60008261225557634e487b7160e01b600052601260045260246000fd5b500490565b6000806040838503121561226d57600080fd5b505080516020909101519092909150565b6001600160a01b0394851681529290931660208301526040820152606081019190915260a06080820181905260009082015260c00190565b6000600160ff1b82016122cb576122cb6121a4565b5060000390565b6000602082840312156122e457600080fd5b81516105b28161203b565b6000816122fe576122fe6121a4565b506000190190565b60006020828403121561231857600080fd5b815180151581146105b257600080fdfea2646970667358221220745b2a5004eb8f808651938d21b74810d5322c1edc3235860de94df0f3a1661f64736f6c63430008180033","linkReferences":{}},"methodIdentifiers":{"APPRAISER_REWARD_SHARE()":"06c309c2","SAFETY_PERCENT()":"abf0b21c","acceptOwnership()":"79ba5097","assign(uint256,uint256,uint256,uint256)":"d2ac8294","availableWithdraw()":"074db040","canClaimAppraiser(address)":"d7af9cb7","canClaimDepositor(address)":"2aae7b39","canLiquidate()":"cd13ee77","claimAppraiser()":"bfa26e56","claimDepositor()":"7406b24a","deposit(uint256)":"b6b55f25","depositOwner(uint256)":"28cf8bb0","getEpoch()":"757991a8","getPlan()":"af0686d2","getPrice()":"98d5fdca","getUserBalanceAtEpoch(address,uint256)":"02fe35bc","liquidate()":"28a07025","onERC1155Received(address,address,uint256,uint256,bytes)":"f23a6e61","owner()":"8da5cb5b","payRent(uint256)":"d9e8843f","paySafety(uint256)":"3fa43d21","paymentDeposited()":"581874f4","rentDue()":"2ef910c6","safetyAmount()":"cf214293","safetyAmountDue()":"3e86936e","setIssuer(address)":"55cc4e57","transferOwnership(address)":"f2fde38b","withdraw(uint256)":"2e1a7d4d","withdrawOwner(uint256)":"6ef98b21"},"id":48}