{"abi":[{"type":"constructor","inputs":[{"name":"realEstateToken","type":"address","internalType":"address"}],"stateMutability":"nonpayable"},{"type":"function","name":"APPRAISER_REWARD_SHARE","inputs":[],"outputs":[{"name":"","type":"uint256","internalType":"uint256"}],"stateMutability":"view"},{"type":"function","name":"SAFETY_PERCENT","inputs":[],"outputs":[{"name":"","type":"uint256","internalType":"uint256"}],"stateMutability":"view"},{"type":"function","name":"acceptOwnership","inputs":[],"outputs":[],"stateMutability":"nonpayable"},{"type":"function","name":"assign","inputs":[{"name":"tokenId_","type":"uint256","internalType":"uint256"},{"name":"rentAmount_","type":"uint256","internalType":"uint256"},{"name":"epochDuration_","type":"uint256","internalType":"uint256"},{"name":"programEnd_","type":"uint256","internalType":"uint256"}],"outputs":[],"stateMutability":"payable"},{"type":"function","name":"availableWithdraw","inputs":[],"outputs":[{"name":"paymentAmount","type":"uint256","internalType":"uint256"}],"stateMutability":"view"},{"type":"function","name":"canClaimAppraiser","inputs":[{"name":"appraiser","type":"address","internalType":"address"}],"outputs":[{"name":"rewards","type":"uint256","internalType":"uint256"}],"stateMutability":"view"},{"type":"function","name":"canLiquidate","inputs":[],"outputs":[{"name":"","type":"bool","internalType":"bool"}],"stateMutability":"view"},{"type":"function","name":"claim","inputs":[],"outputs":[],"stateMutability":"nonpayable"},{"type":"function","name":"deposit","inputs":[{"name":"amountPayment","type":"uint256","internalType":"uint256"}],"outputs":[],"stateMutability":"payable"},{"type":"function","name":"getEpoch","inputs":[],"outputs":[{"name":"epochNumber","type":"uint256","internalType":"uint256"},{"name":"epochEndTime","type":"uint256","internalType":"uint256"}],"stateMutability":"view"},{"type":"function","name":"getPlan","inputs":[],"outputs":[{"name":"","type":"tuple","internalType":"struct Pool.UsagePlan","components":[{"name":"rentAmount","type":"uint256","internalType":"uint256"},{"name":"epochDuration","type":"uint256","internalType":"uint256"},{"name":"programEnd","type":"uint256","internalType":"uint256"}]}],"stateMutability":"view"},{"type":"function","name":"getPrice","inputs":[],"outputs":[{"name":"tokenPrice","type":"uint256","internalType":"uint256"}],"stateMutability":"view"},{"type":"function","name":"onERC1155Received","inputs":[{"name":"","type":"address","internalType":"address"},{"name":"","type":"address","internalType":"address"},{"name":"","type":"uint256","internalType":"uint256"},{"name":"","type":"uint256","internalType":"uint256"},{"name":"","type":"bytes","internalType":"bytes"}],"outputs":[{"name":"","type":"bytes4","internalType":"bytes4"}],"stateMutability":"pure"},{"type":"function","name":"owner","inputs":[],"outputs":[{"name":"","type":"address","internalType":"address"}],"stateMutability":"view"},{"type":"function","name":"payRent","inputs":[{"name":"amount","type":"uint256","internalType":"uint256"}],"outputs":[],"stateMutability":"payable"},{"type":"function","name":"paySafety","inputs":[{"name":"amount","type":"uint256","internalType":"uint256"}],"outputs":[],"stateMutability":"payable"},{"type":"function","name":"paymentDeposited","inputs":[],"outputs":[{"name":"","type":"uint256","internalType":"uint256"}],"stateMutability":"view"},{"type":"function","name":"rentDue","inputs":[],"outputs":[{"name":"remainingRent","type":"uint256","internalType":"uint256"}],"stateMutability":"view"},{"type":"function","name":"safetyAmount","inputs":[],"outputs":[{"name":"paymentAmount","type":"uint256","internalType":"uint256"}],"stateMutability":"view"},{"type":"function","name":"safetyAmountDue","inputs":[],"outputs":[{"name":"remainingAmount","type":"uint256","internalType":"uint256"}],"stateMutability":"view"},{"type":"function","name":"setIssuer","inputs":[{"name":"_issuer","type":"address","internalType":"address"}],"outputs":[],"stateMutability":"nonpayable"},{"type":"function","name":"transferOwnership","inputs":[{"name":"to","type":"address","internalType":"address"}],"outputs":[],"stateMutability":"nonpayable"},{"type":"function","name":"withdraw","inputs":[{"name":"amountRealEstateToken","type":"uint256","internalType":"uint256"}],"outputs":[],"stateMutability":"nonpayable"},{"type":"event","name":"Claim","inputs":[{"name":"user","type":"address","indexed":true,"internalType":"address"},{"name":"amount","type":"uint256","indexed":false,"internalType":"uint256"}],"anonymous":false},{"type":"event","name":"Deposit","inputs":[{"name":"user","type":"address","indexed":true,"internalType":"address"},{"name":"deposited","type":"uint256","indexed":false,"internalType":"uint256"},{"name":"received","type":"uint256","indexed":false,"internalType":"uint256"},{"name":"token","type":"address","indexed":false,"internalType":"address"}],"anonymous":false},{"type":"event","name":"OwnershipTransferRequested","inputs":[{"name":"from","type":"address","indexed":true,"internalType":"address"},{"name":"to","type":"address","indexed":true,"internalType":"address"}],"anonymous":false},{"type":"event","name":"OwnershipTransferred","inputs":[{"name":"from","type":"address","indexed":true,"internalType":"address"},{"name":"to","type":"address","indexed":true,"internalType":"address"}],"anonymous":false},{"type":"event","name":"RentPayment","inputs":[{"name":"","type":"uint256","indexed":false,"internalType":"uint256"}],"anonymous":false},{"type":"event","name":"SetIssuer","inputs":[{"name":"issuer","type":"address","indexed":true,"internalType":"address"}],"anonymous":false},{"type":"event","name":"Withdraw","inputs":[{"name":"user","type":"address","indexed":true,"internalType":"address"},{"name":"withdrawn","type":"uint256","indexed":false,"internalType":"uint256"},{"name":"sent","type":"uint256","indexed":false,"internalType":"uint256"},{"name":"token","type":"address","indexed":false,"internalType":"address"}],"anonymous":false},{"type":"error","name":"BalanceDepositMismatch","inputs":[]},{"type":"error","name":"ERC1155Core_CallerIsNotIssuerOrItself","inputs":[{"name":"msgSender","type":"address","internalType":"address"}]},{"type":"error","name":"InvalidProgramEnd","inputs":[]},{"type":"error","name":"MsgValueMismatch","inputs":[]},{"type":"error","name":"NoFundsToWithdraw","inputs":[]},{"type":"error","name":"NoRentToClaim","inputs":[]},{"type":"error","name":"NoSafetyBalance","inputs":[{"name":"","type":"uint256","internalType":"uint256"}]},{"type":"error","name":"PlanNotAssigned","inputs":[]},{"type":"error","name":"ProgramFinished","inputs":[]},{"type":"error","name":"ReentrancyGuardReentrantCall","inputs":[]},{"type":"error","name":"TokenIdNotFound","inputs":[]},{"type":"error","name":"TooShortEpoch","inputs":[]}],"bytecode":{"object":"0x60a06040523480156200001157600080fd5b5060405162001a8638038062001a86833981016040819052620000349162000183565b33806000816200008b5760405162461bcd60e51b815260206004820152601860248201527f43616e6e6f7420736574206f776e657220746f207a65726f000000000000000060448201526064015b60405180910390fd5b600080546001600160a01b0319166001600160a01b0384811691909117909155811615620000be57620000be81620000d8565b50506001600355506001600160a01b0316608052620001b5565b336001600160a01b03821603620001325760405162461bcd60e51b815260206004820152601760248201527f43616e6e6f74207472616e7366657220746f2073656c66000000000000000000604482015260640162000082565b600180546001600160a01b0319166001600160a01b0383811691821790925560008054604051929316917fed8889f560326eb138920d842192f0eb3dd22b4f139c87a2c57538e05bae12789190a350565b6000602082840312156200019657600080fd5b81516001600160a01b0381168114620001ae57600080fd5b9392505050565b608051611876620002106000396000818161058d015281816106af015281816108b501528181610c5201528181610e6301528181610ef5015281816110900152818161117f01528181611211015261138e01526118766000f3fe6080604052600436106101405760003560e01c80638da5cb5b116100b6578063cf2142931161006f578063cf2142931461032c578063d2ac829414610341578063d7af9cb714610354578063d9e8843f14610374578063f23a6e6114610387578063f2fde38b146103cd57600080fd5b80638da5cb5b1461026b57806398d5fdca14610293578063abf0b21c146102a8578063af0686d2146102bd578063b6b55f25146102f4578063cd13ee771461030757600080fd5b80633fa43d21116101085780633fa43d21146101ce5780634e71d92d146101e157806355cc4e57146101f6578063581874f414610216578063757991a81461022c57806379ba50971461025657600080fd5b806306c309c214610145578063074db0401461016d5780632e1a7d4d146101825780632ef910c6146101a45780633e86936e146101b9575b600080fd5b34801561015157600080fd5b5061015a603281565b6040519081526020015b60405180910390f35b34801561017957600080fd5b5061015a6103ed565b34801561018e57600080fd5b506101a261019d366004611623565b6104d3565b005b3480156101b057600080fd5b5061015a610719565b3480156101c557600080fd5b5061015a6107ae565b6101a26101dc366004611623565b610821565b3480156101ed57600080fd5b506101a261091a565b34801561020257600080fd5b506101a2610211366004611658565b610a33565b34801561022257600080fd5b5061015a60085481565b34801561023857600080fd5b50610241610a85565b60408051928352602083019190915201610164565b34801561026257600080fd5b506101a2610b26565b34801561027757600080fd5b506000546040516001600160a01b039091168152602001610164565b34801561029f57600080fd5b5061015a610bd0565b3480156102b457600080fd5b5061015a600a81565b3480156102c957600080fd5b506102d2610cd7565b6040805182518152602080840151908201529181015190820152606001610164565b6101a2610302366004611623565b610d65565b34801561031357600080fd5b5061031c610f5c565b6040519015158152602001610164565b34801561033857600080fd5b5061015a611011565b6101a261034f36600461167a565b611126565b34801561036057600080fd5b5061015a61036f366004611658565b611319565b6101a2610382366004611623565b61142b565b34801561039357600080fd5b506103b46103a23660046116ac565b63f23a6e6160e01b9695505050505050565b6040516001600160e01b03199091168152602001610164565b3480156103d957600080fd5b506101a26103e8366004611658565b6114ec565b6000306001600160a01b031663cf2142936040518163ffffffff1660e01b8152600401602060405180830381865afa15801561042d573d6000803e3d6000fd5b505050506040513d601f19601f820116820180604052508101906104519190611752565b6008541161045f5750600090565b306001600160a01b031663cf2142936040518163ffffffff1660e01b8152600401602060405180830381865afa15801561049d573d6000803e3d6000fd5b505050506040513d601f19601f820116820180604052508101906104c19190611752565b6008546104ce9190611781565b905090565b6104db6114fd565b6000306001600160a01b03166398d5fdca6040518163ffffffff1660e01b8152600401602060405180830381865afa15801561051b573d6000803e3d6000fd5b505050506040513d601f19601f8201168201806040525081019061053f9190611752565b610549908361179a565b90506105536103ed565b811115610573576040516367e3990d60e01b815260040160405180910390fd5b600554604051637921219560e11b81526001600160a01b037f0000000000000000000000000000000000000000000000000000000000000000169163f242432a916105c791339130919088906004016117b1565b600060405180830381600087803b1580156105e157600080fd5b505af11580156105f5573d6000803e3d6000fd5b50506040516000925033915083908381818185875af1925050503d806000811461063b576040519150601f19603f3d011682016040523d82523d6000602084013e610640565b606091505b50509050806106885760405162461bcd60e51b815260206004820152600f60248201526e15da5d1a191c985dc819985a5b1959608a1b60448201526064015b60405180910390fd5b816008600082825461069a9190611781565b909155505060408051838152602081018590527f00000000000000000000000000000000000000000000000000000000000000006001600160a01b031681830152905133917f8166bf25f8a2b7ed3c85049207da4358d16edbed977d23fa2ee6f0dde3ec2132919081900360600190a250506107166001600355565b50565b600a54600090810361073e576040516318963f5560e31b815260040160405180910390fd5b600b5442106107605760405163037475dd60e11b815260040160405180910390fd5b600a5460065442916000916107759084611781565b61077f91906117e9565b61078a90600161180b565b600954610797919061179a565b9050600754816107a79190611781565b9250505090565b600a5460009081036107d3576040516318963f5560e31b815260040160405180910390fd5b600b5442106107f55760405163037475dd60e11b815260040160405180910390fd5b600854610800611011565b111561081b57600854610811611011565b6104ce9190611781565b50600090565b6108296114fd565b600a5460000361084c576040516318963f5560e31b815260040160405180910390fd5b600b54421061086e5760405163037475dd60e11b815260040160405180910390fd5b80341461088e5760405163bc6f88c560e01b815260040160405180910390fd5b80600860008282546108a0919061180b565b909155505060408051828152600060208201527f00000000000000000000000000000000000000000000000000000000000000006001600160a01b031681830152905133917f02d7e648dd130fc184d383e55bb126ac4c9c60e8f94bf05acdf557ba2d540b47919081900360600190a26107166001600355565b6109226114fd565b600061092d33611319565b9050600754811115610952576040516327946cdb60e21b815260040160405180910390fd5b604051600090339083908381818185875af1925050503d8060008114610994576040519150601f19603f3d011682016040523d82523d6000602084013e610999565b606091505b50509050806109d95760405162461bcd60e51b815260206004820152600c60248201526b10db185a5b4819985a5b195960a21b604482015260640161067f565b81600760008282546109eb9190611781565b909155505060405182815233907f47cee97cb7acd717b3c0aa1435d004cd5b3c8c57d70dbceb4e4458bbd60e39d49060200160405180910390a25050610a316001600355565b565b610a3b611527565b600280546001600160a01b0319166001600160a01b0383169081179091556040517fd56ed7b1c1110348b1fbf418469f6fc4acc32d9b675e9e1e448cc19169a64ca090600090a250565b600080600960010154600003610aae576040516318963f5560e31b815260040160405180910390fd5b600b544210610ad05760405163037475dd60e11b815260040160405180910390fd5b600a54600654429190610ae39083611781565b610aed91906117e9565b92506001610afb848261180b565b600a54610b08919061179a565b600654610b15919061180b565b610b1f9190611781565b9150509091565b6001546001600160a01b03163314610b795760405162461bcd60e51b815260206004820152601660248201527526bab9ba10313290383937b837b9b2b21037bbb732b960511b604482015260640161067f565b60008054336001600160a01b0319808316821784556001805490911690556040516001600160a01b0390921692909183917f8be0079c531659141344cd1fd0a4f28419497f9722a3daafe3b4186f6b6457e091a350565b600a546000908103610bf5576040516318963f5560e31b815260040160405180910390fd5b600b544210610c175760405163037475dd60e11b815260040160405180910390fd5b600a5460065460009190610c2b9042611781565b610c3591906117e9565b60055460405163e342360560e01b81529192506001600160a01b037f0000000000000000000000000000000000000000000000000000000000000000169163e342360591610c90918590600401918252602082015260400190565b602060405180830381865afa158015610cad573d6000803e3d6000fd5b505050506040513d601f19601f82011682018060405250810190610cd19190611752565b91505090565b610cfb60405180606001604052806000815260200160008152602001600081525090565b600a54600003610d1e576040516318963f5560e31b815260040160405180910390fd5b600b544210610d405760405163037475dd60e11b815260040160405180910390fd5b50604080516060810182526009548152600a546020820152600b549181019190915290565b610d6d6114fd565b600a54600003610d90576040516318963f5560e31b815260040160405180910390fd5b600b544210610db25760405163037475dd60e11b815260040160405180910390fd5b803414610dd25760405163bc6f88c560e01b815260040160405180910390fd5b3415610f52576000306001600160a01b03166398d5fdca6040518163ffffffff1660e01b8152600401602060405180830381865afa158015610e18573d6000803e3d6000fd5b505050506040513d601f19601f82011682018060405250810190610e3c9190611752565b610e4690836117e9565b600554604051637921219560e11b81529192506001600160a01b037f0000000000000000000000000000000000000000000000000000000000000000169163f242432a91610e9c913091339187906004016117b1565b600060405180830381600087803b158015610eb657600080fd5b505af1158015610eca573d6000803e3d6000fd5b505050508160086000828254610ee0919061180b565b909155505060408051838152602081018390527f00000000000000000000000000000000000000000000000000000000000000006001600160a01b031681830152905133917f02d7e648dd130fc184d383e55bb126ac4c9c60e8f94bf05acdf557ba2d540b47919081900360600190a2505b6107166001600355565b600a546000908103610f81576040516318963f5560e31b815260040160405180910390fd5b600b544210610fa35760405163037475dd60e11b815260040160405180910390fd5b600960000154306001600160a01b0316632ef910c66040518163ffffffff1660e01b8152600401602060405180830381865afa158015610fe7573d6000803e3d6000fd5b505050506040513d601f19601f8201168201806040525081019061100b9190611752565b11905090565b600080306001600160a01b03166398d5fdca6040518163ffffffff1660e01b8152600401602060405180830381865afa158015611052573d6000803e3d6000fd5b505050506040513d601f19601f820116820180604052508101906110769190611752565b60055460405163bd85b03960e01b815260048101919091527f00000000000000000000000000000000000000000000000000000000000000006001600160a01b03169063bd85b03990602401602060405180830381865afa1580156110df573d6000803e3d6000fd5b505050506040513d601f19601f820116820180604052508101906111039190611752565b61110d919061179a565b9050606461111c600a8361179a565b610cd191906117e9565b61112e6114fd565b33301480159061114957506002546001600160a01b03163314155b1561116957604051637725137960e11b815233600482015260240161067f565b604051634f558e7960e01b8152600481018590527f00000000000000000000000000000000000000000000000000000000000000006001600160a01b031690634f558e7990602401602060405180830381865afa1580156111ce573d6000803e3d6000fd5b505050506040513d601f19601f820116820180604052508101906111f2919061181e565b61120f57604051637ec8def360e11b815260040160405180910390fd5b7f00000000000000000000000000000000000000000000000000000000000000006001600160a01b0316638863af946040518163ffffffff1660e01b8152600401602060405180830381865afa15801561126d573d6000803e3d6000fd5b505050506040513d601f19601f820116820180604052508101906112919190611752565b8210156112b1576040516301c6f56560e11b815260040160405180910390fd5b60006007554260068190558181106112dc57604051631ffd54a160e01b815260040160405180910390fd5b5060058490556040805160608101825284815260208101849052018190526009839055600a829055600b8190556113136001600355565b50505050565b600080611324610a85565b50905060005b818110156114245760095460009060649061134690603261179a565b61135091906117e9565b600554604051630924a32160e01b81526001600160a01b038881166004830152602482019290925260448101859052919250670de0b6b3a7640000917f000000000000000000000000000000000000000000000000000000000000000090911690630924a32190606401602060405180830381865afa1580156113d7573d6000803e3d6000fd5b505050506040513d601f19601f820116820180604052508101906113fb9190611752565b611405908361179a565b61140f91906117e9565b611419908561180b565b93505060010161132a565b5050919050565b6114336114fd565b600a54600003611456576040516318963f5560e31b815260040160405180910390fd5b600b5442106114785760405163037475dd60e11b815260040160405180910390fd5b8034146114985760405163bc6f88c560e01b815260040160405180910390fd5b80600760008282546114aa919061180b565b90915550506040518181527fae6c856401df047ba1dde3436da71dfaf45c65409c2e917871389afb1a11b3559060200160405180910390a16107166001600355565b6114f4611527565b6107168161157a565b60026003540361152057604051633ee5aeb560e01b815260040160405180910390fd5b6002600355565b6000546001600160a01b03163314610a315760405162461bcd60e51b815260206004820152601660248201527527b7363c9031b0b63630b1363290313c9037bbb732b960511b604482015260640161067f565b336001600160a01b038216036115d25760405162461bcd60e51b815260206004820152601760248201527f43616e6e6f74207472616e7366657220746f2073656c66000000000000000000604482015260640161067f565b600180546001600160a01b0319166001600160a01b0383811691821790925560008054604051929316917fed8889f560326eb138920d842192f0eb3dd22b4f139c87a2c57538e05bae12789190a350565b60006020828403121561163557600080fd5b5035919050565b80356001600160a01b038116811461165357600080fd5b919050565b60006020828403121561166a57600080fd5b6116738261163c565b9392505050565b6000806000806080858703121561169057600080fd5b5050823594602084013594506040840135936060013592509050565b60008060008060008060a087890312156116c557600080fd5b6116ce8761163c565b95506116dc6020880161163c565b94506040870135935060608701359250608087013567ffffffffffffffff8082111561170757600080fd5b818901915089601f83011261171b57600080fd5b81358181111561172a57600080fd5b8a602082850101111561173c57600080fd5b6020830194508093505050509295509295509295565b60006020828403121561176457600080fd5b5051919050565b634e487b7160e01b600052601160045260246000fd5b818103818111156117945761179461176b565b92915050565b80820281158282048414176117945761179461176b565b6001600160a01b0394851681529290931660208301526040820152606081019190915260a06080820181905260009082015260c00190565b60008261180657634e487b7160e01b600052601260045260246000fd5b500490565b808201808211156117945761179461176b565b60006020828403121561183057600080fd5b8151801515811461167357600080fdfea2646970667358221220de409d21e116d718da3f4ac657b41e628fac1d3d1bf5ef2e73ac92f1a9f78b4a64736f6c63430008180033","linkReferences":{}},"methodIdentifiers":{"APPRAISER_REWARD_SHARE()":"06c309c2","SAFETY_PERCENT()":"abf0b21c","acceptOwnership()":"79ba5097","assign(uint256,uint256,uint256,uint256)":"d2ac8294","availableWithdraw()":"074db040","canClaimAppraiser(address)":"d7af9cb7","canLiquidate()":"cd13ee77","claim()":"4e71d92d","deposit(uint256)":"b6b55f25","getEpoch()":"757991a8","getPlan()":"af0686d2","getPrice()":"98d5fdca","onERC1155Received(address,address,uint256,uint256,bytes)":"f23a6e61","owner()":"8da5cb5b","payRent(uint256)":"d9e8843f","paySafety(uint256)":"3fa43d21","paymentDeposited()":"581874f4","rentDue()":"2ef910c6","safetyAmount()":"cf214293","safetyAmountDue()":"3e86936e","setIssuer(address)":"55cc4e57","transferOwnership(address)":"f2fde38b","withdraw(uint256)":"2e1a7d4d"},"id":48}