{"abi":[{"type":"constructor","inputs":[{"name":"realEstateToken","type":"address","internalType":"address"}],"stateMutability":"nonpayable"},{"type":"function","name":"APPRAISER_REWARD_SHARE","inputs":[],"outputs":[{"name":"","type":"uint256","internalType":"uint256"}],"stateMutability":"view"},{"type":"function","name":"SAFETY_PERCENT","inputs":[],"outputs":[{"name":"","type":"uint256","internalType":"uint256"}],"stateMutability":"view"},{"type":"function","name":"acceptOwnership","inputs":[],"outputs":[],"stateMutability":"nonpayable"},{"type":"function","name":"assign","inputs":[{"name":"tokenId_","type":"uint256","internalType":"uint256"},{"name":"rentAmount_","type":"uint256","internalType":"uint256"},{"name":"epochDuration_","type":"uint256","internalType":"uint256"},{"name":"programEnd_","type":"uint256","internalType":"uint256"}],"outputs":[],"stateMutability":"payable"},{"type":"function","name":"availableWithdraw","inputs":[],"outputs":[{"name":"paymentAmount","type":"uint256","internalType":"uint256"}],"stateMutability":"view"},{"type":"function","name":"canClaimAppraiser","inputs":[{"name":"appraiser","type":"address","internalType":"address"}],"outputs":[{"name":"rewards","type":"uint256","internalType":"uint256"}],"stateMutability":"view"},{"type":"function","name":"canClaimDepositor","inputs":[{"name":"depositor","type":"address","internalType":"address"}],"outputs":[{"name":"","type":"uint256","internalType":"uint256"}],"stateMutability":"view"},{"type":"function","name":"canLiquidate","inputs":[],"outputs":[{"name":"","type":"bool","internalType":"bool"}],"stateMutability":"view"},{"type":"function","name":"claimAppraiser","inputs":[],"outputs":[],"stateMutability":"nonpayable"},{"type":"function","name":"claimDepositor","inputs":[],"outputs":[],"stateMutability":"nonpayable"},{"type":"function","name":"deposit","inputs":[{"name":"amountPayment","type":"uint256","internalType":"uint256"}],"outputs":[],"stateMutability":"payable"},{"type":"function","name":"depositOwner","inputs":[{"name":"amount","type":"uint256","internalType":"uint256"}],"outputs":[],"stateMutability":"payable"},{"type":"function","name":"getEpoch","inputs":[],"outputs":[{"name":"epochNumber","type":"uint256","internalType":"uint256"},{"name":"epochEndTime","type":"uint256","internalType":"uint256"}],"stateMutability":"view"},{"type":"function","name":"getPlan","inputs":[],"outputs":[{"name":"","type":"tuple","internalType":"struct Pool.UsagePlan","components":[{"name":"rentAmount","type":"uint256","internalType":"uint256"},{"name":"epochDuration","type":"uint256","internalType":"uint256"},{"name":"programEnd","type":"uint256","internalType":"uint256"}]}],"stateMutability":"view"},{"type":"function","name":"getPrice","inputs":[],"outputs":[{"name":"tokenPrice","type":"uint256","internalType":"uint256"}],"stateMutability":"view"},{"type":"function","name":"getUserBalanceAtEpoch","inputs":[{"name":"user","type":"address","internalType":"address"},{"name":"targetEpoch","type":"uint256","internalType":"uint256"}],"outputs":[{"name":"","type":"uint256","internalType":"uint256"}],"stateMutability":"view"},{"type":"function","name":"onERC1155Received","inputs":[{"name":"","type":"address","internalType":"address"},{"name":"","type":"address","internalType":"address"},{"name":"","type":"uint256","internalType":"uint256"},{"name":"","type":"uint256","internalType":"uint256"},{"name":"","type":"bytes","internalType":"bytes"}],"outputs":[{"name":"","type":"bytes4","internalType":"bytes4"}],"stateMutability":"pure"},{"type":"function","name":"owner","inputs":[],"outputs":[{"name":"","type":"address","internalType":"address"}],"stateMutability":"view"},{"type":"function","name":"payRent","inputs":[{"name":"amount","type":"uint256","internalType":"uint256"}],"outputs":[],"stateMutability":"payable"},{"type":"function","name":"paySafety","inputs":[{"name":"amount","type":"uint256","internalType":"uint256"}],"outputs":[],"stateMutability":"payable"},{"type":"function","name":"paymentDeposited","inputs":[],"outputs":[{"name":"","type":"uint256","internalType":"uint256"}],"stateMutability":"view"},{"type":"function","name":"rentDue","inputs":[],"outputs":[{"name":"remainingRent","type":"uint256","internalType":"uint256"}],"stateMutability":"view"},{"type":"function","name":"safetyAmount","inputs":[],"outputs":[{"name":"paymentAmount","type":"uint256","internalType":"uint256"}],"stateMutability":"view"},{"type":"function","name":"safetyAmountDue","inputs":[],"outputs":[{"name":"remainingAmount","type":"uint256","internalType":"uint256"}],"stateMutability":"view"},{"type":"function","name":"setIssuer","inputs":[{"name":"_issuer","type":"address","internalType":"address"}],"outputs":[],"stateMutability":"nonpayable"},{"type":"function","name":"transferOwnership","inputs":[{"name":"to","type":"address","internalType":"address"}],"outputs":[],"stateMutability":"nonpayable"},{"type":"function","name":"withdraw","inputs":[{"name":"amountRealEstateToken","type":"uint256","internalType":"uint256"}],"outputs":[],"stateMutability":"nonpayable"},{"type":"function","name":"withdrawOwner","inputs":[{"name":"amountPayment","type":"uint256","internalType":"uint256"}],"outputs":[],"stateMutability":"nonpayable"},{"type":"event","name":"Claim","inputs":[{"name":"user","type":"address","indexed":true,"internalType":"address"},{"name":"amount","type":"uint256","indexed":false,"internalType":"uint256"}],"anonymous":false},{"type":"event","name":"Deposit","inputs":[{"name":"user","type":"address","indexed":true,"internalType":"address"},{"name":"deposited","type":"uint256","indexed":false,"internalType":"uint256"},{"name":"received","type":"uint256","indexed":false,"internalType":"uint256"},{"name":"token","type":"address","indexed":false,"internalType":"address"}],"anonymous":false},{"type":"event","name":"OwnershipTransferRequested","inputs":[{"name":"from","type":"address","indexed":true,"internalType":"address"},{"name":"to","type":"address","indexed":true,"internalType":"address"}],"anonymous":false},{"type":"event","name":"OwnershipTransferred","inputs":[{"name":"from","type":"address","indexed":true,"internalType":"address"},{"name":"to","type":"address","indexed":true,"internalType":"address"}],"anonymous":false},{"type":"event","name":"RentPayment","inputs":[{"name":"","type":"uint256","indexed":false,"internalType":"uint256"}],"anonymous":false},{"type":"event","name":"SetIssuer","inputs":[{"name":"issuer","type":"address","indexed":true,"internalType":"address"}],"anonymous":false},{"type":"event","name":"Withdraw","inputs":[{"name":"user","type":"address","indexed":true,"internalType":"address"},{"name":"withdrawn","type":"uint256","indexed":false,"internalType":"uint256"},{"name":"sent","type":"uint256","indexed":false,"internalType":"uint256"},{"name":"token","type":"address","indexed":false,"internalType":"address"}],"anonymous":false},{"type":"error","name":"BalanceDepositMismatch","inputs":[]},{"type":"error","name":"ERC1155Core_CallerIsNotIssuerOrItself","inputs":[{"name":"msgSender","type":"address","internalType":"address"}]},{"type":"error","name":"ERC1155Core_CallerIsNotIssuerOrOwner","inputs":[{"name":"msgSender","type":"address","internalType":"address"}]},{"type":"error","name":"InvalidProgramEnd","inputs":[]},{"type":"error","name":"MsgValueMismatch","inputs":[]},{"type":"error","name":"NoEnoughBalance","inputs":[]},{"type":"error","name":"NoEpochPrice","inputs":[{"name":"","type":"uint256","internalType":"uint256"}]},{"type":"error","name":"NoFundsToWithdraw","inputs":[]},{"type":"error","name":"NoRentToClaim","inputs":[]},{"type":"error","name":"NoSafetyBalance","inputs":[{"name":"","type":"uint256","internalType":"uint256"}]},{"type":"error","name":"PlanNotAssigned","inputs":[]},{"type":"error","name":"ProgramFinished","inputs":[]},{"type":"error","name":"ReentrancyGuardReentrantCall","inputs":[]},{"type":"error","name":"TokenIdNotFound","inputs":[]},{"type":"error","name":"TooShortEpoch","inputs":[]}],"bytecode":{"object":"0x60a06040523480156200001157600080fd5b506040516200259338038062002593833981016040819052620000349162000183565b33806000816200008b5760405162461bcd60e51b815260206004820152601860248201527f43616e6e6f7420736574206f776e657220746f207a65726f000000000000000060448201526064015b60405180910390fd5b600080546001600160a01b0319166001600160a01b0384811691909117909155811615620000be57620000be81620000d8565b50506001600355506001600160a01b0316608052620001b5565b336001600160a01b03821603620001325760405162461bcd60e51b815260206004820152601760248201527f43616e6e6f74207472616e7366657220746f2073656c66000000000000000000604482015260640162000082565b600180546001600160a01b0319166001600160a01b0383811691821790925560008054604051929316917fed8889f560326eb138920d842192f0eb3dd22b4f139c87a2c57538e05bae12789190a350565b6000602082840312156200019657600080fd5b81516001600160a01b0381168114620001ae57600080fd5b9392505050565b6080516123676200022c60003960008181610626015281816106a10152818161090b015281816109fb01528181610b2a01528181610f0e015281816112800152818161134901528181611665015281816117a9015281816119db01528181611ad001528181611b620152611cdf01526123676000f3fe6080604052600436106101b75760003560e01c806379ba5097116100ec578063cd13ee771161008a578063d7af9cb711610064578063d7af9cb714610453578063d9e8843f14610473578063f23a6e6114610486578063f2fde38b146104cc57600080fd5b8063cd13ee7714610406578063cf2142931461042b578063d2ac82941461044057600080fd5b8063abf0b21c116100c6578063abf0b21c14610392578063af0686d2146103a7578063b6b55f25146103de578063bfa26e56146103f157600080fd5b806379ba5097146103405780638da5cb5b1461035557806398d5fdca1461037d57600080fd5b80633e86936e11610159578063581874f411610133578063581874f4146102cb5780636ef98b21146102e15780637406b24a14610301578063757991a81461031657600080fd5b80633e86936e146102835780633fa43d211461029857806355cc4e57146102ab57600080fd5b806328cf8bb01161019557806328cf8bb0146102195780632aae7b391461022e5780632e1a7d4d1461024e5780632ef910c61461026e57600080fd5b806302fe35bc146101bc57806306c309c2146101ef578063074db04014610204575b600080fd5b3480156101c857600080fd5b506101dc6101d7366004612040565b6104ec565b6040519081526020015b60405180910390f35b3480156101fb57600080fd5b506101dc603281565b34801561021057600080fd5b506101dc6105a5565b61022c61022736600461206c565b6105d7565b005b34801561023a57600080fd5b506101dc610249366004612085565b61068e565b34801561025a57600080fd5b5061022c61026936600461206c565b61084d565b34801561027a57600080fd5b506101dc610b93565b34801561028f57600080fd5b506101dc610c28565b61022c6102a636600461206c565b610c9b565b3480156102b757600080fd5b5061022c6102c6366004612085565b610ce8565b3480156102d757600080fd5b506101dc600b5481565b3480156102ed57600080fd5b5061022c6102fc36600461206c565b610d3a565b34801561030d57600080fd5b5061022c610f74565b34801561032257600080fd5b5061032b6110b1565b604080519283526020830191909152016101e6565b34801561034c57600080fd5b5061022c611152565b34801561036157600080fd5b506000546040516001600160a01b0390911681526020016101e6565b34801561038957600080fd5b506101dc6111fc565b34801561039e57600080fd5b506101dc600a81565b3480156103b357600080fd5b506103bc6113fe565b60408051825181526020808401519082015291810151908201526060016101e6565b61022c6103ec36600461206c565b61148c565b3480156103fd57600080fd5b5061022c61180c565b34801561041257600080fd5b5061041b611901565b60405190151581526020016101e6565b34801561043757600080fd5b506101dc6119b6565b61022c61044e3660046120a2565b611a77565b34801561045f57600080fd5b506101dc61046e366004612085565b611c6a565b61022c61048136600461206c565b611da0565b34801561049257600080fd5b506104b36104a13660046120d4565b63f23a6e6160e01b9695505050505050565b6040516001600160e01b031990911681526020016101e6565b3480156104d857600080fd5b5061022c6104e7366004612085565b611e61565b600080805b6001600160a01b038516600090815260076020526040902054811015610589576001600160a01b038516600090815260076020526040812080548390811061053b5761053b61217e565b90600052602060002001549050848111610580576001600160a01b038616600090815260066020908152604080832084845290915290205461057d90846121aa565b92505b506001016104f1565b506000811361059957600061059b565b805b9150505b92915050565b60006105af6119b6565b600b54116105bd5750600090565b6105c56119b6565b600b546105d291906121d2565b905090565b6105df611e72565b8034146105ff5760405163bc6f88c560e01b815260040160405180910390fd5b80600b600082825461061191906121e5565b909155505060408051828152600060208201527f00000000000000000000000000000000000000000000000000000000000000006001600160a01b031681830152905133917f02d7e648dd130fc184d383e55bb126ac4c9c60e8f94bf05acdf557ba2d540b47919081900360600190a261068b6001600355565b50565b6000806106996110b1565b5090506000807f00000000000000000000000000000000000000000000000000000000000000006001600160a01b031663bd85b0396008546040518263ffffffff1660e01b81526004016106ef91815260200190565b602060405180830381865afa15801561070c573d6000803e3d6000fd5b505050506040513d601f19601f8201168201806040525081019061073091906121f8565b90506000811161077b5760405162461bcd60e51b81526020600482015260116024820152705a65726f20746f74616c20737570706c7960781b60448201526064015b60405180910390fd5b60015b83811161080c57600061079187836104ec565b9050806000036107a157506107fa565b6000836107b683670de0b6b3a7640000612211565b6107c09190612228565b90506000670de0b6b3a764000082600c600001546107de9190612211565b6107e89190612228565b90506107f481876121e5565b95505050505b806108048161224a565b91505061077e565b506001600160a01b0385166000908152600560205260409020548083116108395750600095945050505050565b61084381846121d2565b9695505050505050565b610855611e72565b600061085f6111fc565b9050806000036108ec576000306001600160a01b031663757991a86040518163ffffffff1660e01b81526004016040805180830381865afa1580156108a8573d6000803e3d6000fd5b505050506040513d601f19601f820116820180604052508101906108cc9190612263565b509050806040516348cc74d760e11b815260040161077291815260200190565b600854604051627eeac760e11b815233600482015260248101919091527f00000000000000000000000000000000000000000000000000000000000000006001600160a01b03169062fdd58e90604401602060405180830381865afa158015610959573d6000803e3d6000fd5b505050506040513d601f19601f8201168201806040525081019061097d91906121f8565b82111561099d57604051635ad8341160e01b815260040160405180910390fd5b60006109a98284612211565b90506109b36105a5565b8111156109d3576040516367e3990d60e01b815260040160405180910390fd5b60006109dd6110b1565b50600854604051637921219560e11b81529192506001600160a01b037f0000000000000000000000000000000000000000000000000000000000000000169163f242432a91610a3491339130918a90600401612287565b600060405180830381600087803b158015610a4e57600080fd5b505af1158015610a62573d6000803e3d6000fd5b50506040516000925033915084908381818185875af1925050503d8060008114610aa8576040519150601f19603f3d011682016040523d82523d6000602084013e610aad565b606091505b5050905080610af05760405162461bcd60e51b815260206004820152600f60248201526e15da5d1a191c985dc819985a5b1959608a1b6044820152606401610772565b610b033383610afe886122bf565b611e9c565b82600b6000828254610b1591906121d2565b909155505060408051848152602081018790527f00000000000000000000000000000000000000000000000000000000000000006001600160a01b031681830152905133917f8166bf25f8a2b7ed3c85049207da4358d16edbed977d23fa2ee6f0dde3ec2132919081900360600190a25050505061068b6001600355565b600d546000908103610bb8576040516318963f5560e31b815260040160405180910390fd5b600e544210610bda5760405163037475dd60e11b815260040160405180910390fd5b600d546009544291600091610bef90846121d2565b610bf99190612228565b610c049060016121e5565b600c54610c119190612211565b9050600a5481610c2191906121d2565b9250505090565b600d546000908103610c4d576040516318963f5560e31b815260040160405180910390fd5b600e544210610c6f5760405163037475dd60e11b815260040160405180910390fd5b600b54610c7a6119b6565b1115610c9557600b54610c8b6119b6565b6105d291906121d2565b50600090565b610ca3611e72565b600d54600003610cc6576040516318963f5560e31b815260040160405180910390fd5b600e5442106105df5760405163037475dd60e11b815260040160405180910390fd5b610cf0611f2f565b600280546001600160a01b0319166001600160a01b0383169081179091556040517fd56ed7b1c1110348b1fbf418469f6fc4acc32d9b675e9e1e448cc19169a64ca090600090a250565b610d42611e72565b306001600160a01b0316638da5cb5b6040518163ffffffff1660e01b8152600401602060405180830381865afa158015610d80573d6000803e3d6000fd5b505050506040513d601f19601f82011682018060405250810190610da491906122db565b6001600160a01b0316336001600160a01b031614158015610dd057506002546001600160a01b03163314155b15610df057604051634996a0cb60e01b8152336004820152602401610772565b600d54600003610e13576040516318963f5560e31b815260040160405180910390fd5b600e544210610e355760405163037475dd60e11b815260040160405180910390fd5b610e3d6105a5565b811115610e5d576040516367e3990d60e01b815260040160405180910390fd5b604051600090339083908381818185875af1925050503d8060008114610e9f576040519150601f19603f3d011682016040523d82523d6000602084013e610ea4565b606091505b5050905080610ee75760405162461bcd60e51b815260206004820152600f60248201526e15da5d1a191c985dc819985a5b1959608a1b6044820152606401610772565b81600b6000828254610ef991906121d2565b909155505060408051838152600060208201527f00000000000000000000000000000000000000000000000000000000000000006001600160a01b031681830152905133917f8166bf25f8a2b7ed3c85049207da4358d16edbed977d23fa2ee6f0dde3ec2132919081900360600190a25061068b6001600355565b610f7c611e72565b6000610f873361068e565b9050600a54811115610fac576040516327946cdb60e21b815260040160405180910390fd5b604051600090339083908381818185875af1925050503d8060008114610fee576040519150601f19603f3d011682016040523d82523d6000602084013e610ff3565b606091505b50509050806110335760405162461bcd60e51b815260206004820152600c60248201526b10db185a5b4819985a5b195960a21b6044820152606401610772565b81600a600082825461104591906121d2565b909155505033600090815260056020526040812080548492906110699084906121e5565b909155505060405182815233907f47cee97cb7acd717b3c0aa1435d004cd5b3c8c57d70dbceb4e4458bbd60e39d49060200160405180910390a250506110af6001600355565b565b600080600c600101546000036110da576040516318963f5560e31b815260040160405180910390fd5b600e5442106110fc5760405163037475dd60e11b815260040160405180910390fd5b600d5460095442919061110f90836121d2565b6111199190612228565b9250600161112784826121e5565b600d546111349190612211565b60095461114191906121e5565b61114b91906121d2565b9150509091565b6001546001600160a01b031633146111a55760405162461bcd60e51b815260206004820152601660248201527526bab9ba10313290383937b837b9b2b21037bbb732b960511b6044820152606401610772565b60008054336001600160a01b0319808316821784556001805490911690556040516001600160a01b0390921692909183917f8be0079c531659141344cd1fd0a4f28419497f9722a3daafe3b4186f6b6457e091a350565b600d546000908103611221576040516318963f5560e31b815260040160405180910390fd5b600e5442106112435760405163037475dd60e11b815260040160405180910390fd5b50600d54600954600091829161125990426121d2565b6112639190612228565b60085460405163e342360560e01b81529192506001600160a01b037f0000000000000000000000000000000000000000000000000000000000000000169163e3423605916112be918590600401918252602082015260400190565b602060405180830381865afa1580156112db573d6000803e3d6000fd5b505050506040513d601f19601f820116820180604052508101906112ff91906121f8565b91508115801561130f5750600081115b156113fa5760006113216001836121d2565b90505b818110156113f85760085460405163e342360560e01b81526000916001600160a01b037f0000000000000000000000000000000000000000000000000000000000000000169163e342360591611387918690600401918252602082015260400190565b602060405180830381865afa1580156113a4573d6000803e3d6000fd5b505050506040513d601f19601f820116820180604052508101906113c891906121f8565b905080156113d75792506113f8565b816000036113e557506113f8565b50806113f0816122f8565b915050611324565b505b5090565b61142260405180606001604052806000815260200160008152602001600081525090565b600d54600003611445576040516318963f5560e31b815260040160405180910390fd5b600e5442106114675760405163037475dd60e11b815260040160405180910390fd5b5060408051606081018252600c548152600d546020820152600e549181019190915290565b611494611e72565b8034146114b45760405163bc6f88c560e01b815260040160405180910390fd5b6000306001600160a01b03166398d5fdca6040518163ffffffff1660e01b8152600401602060405180830381865afa1580156114f4573d6000803e3d6000fd5b505050506040513d601f19601f8201168201806040525081019061151891906121f8565b9050306001600160a01b03166398d5fdca6040518163ffffffff1660e01b8152600401602060405180830381865afa158015611558573d6000803e3d6000fd5b505050506040513d601f19601f8201168201806040525081019061157c91906121f8565b6000036115c2576000306001600160a01b031663757991a86040518163ffffffff1660e01b81526004016040805180830381865afa1580156108a8573d6000803e3d6000fd5b3415611801576000306001600160a01b031663757991a86040518163ffffffff1660e01b81526004016040805180830381865afa158015611607573d6000803e3d6000fd5b505050506040513d601f19601f8201168201806040525081019061162b9190612263565b509050600061163a8385612228565b905060006116488483612211565b600854604051637921219560e11b81529192506001600160a01b037f0000000000000000000000000000000000000000000000000000000000000000169163f242432a9161169e91309133918890600401612287565b600060405180830381600087803b1580156116b857600080fd5b505af11580156116cc573d6000803e3d6000fd5b505050506116db338484611e9c565b80600b60008282546116ed91906121e5565b90915550600090506116ff82876121d2565b9050801561179157604051600090339083908381818185875af1925050503d8060008114611749576040519150601f19603f3d011682016040523d82523d6000602084013e61174e565b606091505b505090508061178f5760405162461bcd60e51b815260206004820152600d60248201526c1499599d5b990819985a5b1959609a1b6044820152606401610772565b505b60408051838152602081018590526001600160a01b037f00000000000000000000000000000000000000000000000000000000000000001681830152905133917f02d7e648dd130fc184d383e55bb126ac4c9c60e8f94bf05acdf557ba2d540b47919081900360600190a2505050505b5061068b6001600355565b611814611e72565b600061181f33611c6a565b9050600a54811115611844576040516327946cdb60e21b815260040160405180910390fd5b604051600090339083908381818185875af1925050503d8060008114611886576040519150601f19603f3d011682016040523d82523d6000602084013e61188b565b606091505b50509050806118cb5760405162461bcd60e51b815260206004820152600c60248201526b10db185a5b4819985a5b195960a21b6044820152606401610772565b81600a60008282546118dd91906121d2565b909155505033600090815260046020526040812080548492906110699084906121e5565b600d546000908103611926576040516318963f5560e31b815260040160405180910390fd5b600e5442106119485760405163037475dd60e11b815260040160405180910390fd5b600c60000154306001600160a01b0316632ef910c66040518163ffffffff1660e01b8152600401602060405180830381865afa15801561198c573d6000803e3d6000fd5b505050506040513d601f19601f820116820180604052508101906119b091906121f8565b11905090565b6000806119c16111fc565b60085460405163bd85b03960e01b815260048101919091527f00000000000000000000000000000000000000000000000000000000000000006001600160a01b03169063bd85b03990602401602060405180830381865afa158015611a2a573d6000803e3d6000fd5b505050506040513d601f19601f82011682018060405250810190611a4e91906121f8565b611a589190612211565b90506064611a67600a83612211565b611a719190612228565b91505090565b611a7f611e72565b333014801590611a9a57506002546001600160a01b03163314155b15611aba57604051637725137960e11b8152336004820152602401610772565b604051634f558e7960e01b8152600481018590527f00000000000000000000000000000000000000000000000000000000000000006001600160a01b031690634f558e7990602401602060405180830381865afa158015611b1f573d6000803e3d6000fd5b505050506040513d601f19601f82011682018060405250810190611b43919061230f565b611b6057604051637ec8def360e11b815260040160405180910390fd5b7f00000000000000000000000000000000000000000000000000000000000000006001600160a01b0316638863af946040518163ffffffff1660e01b8152600401602060405180830381865afa158015611bbe573d6000803e3d6000fd5b505050506040513d601f19601f82011682018060405250810190611be291906121f8565b821015611c02576040516301c6f56560e11b815260040160405180910390fd5b6000600a55426009819055818110611c2d57604051631ffd54a160e01b815260040160405180910390fd5b506008849055604080516060810182528481526020810184905201819052600c839055600d829055600e819055611c646001600355565b50505050565b600080611c756110b1565b50905060005b81811015611d7557600c54600090606490611c97906032612211565b611ca19190612228565b600854604051630924a32160e01b81526001600160a01b038881166004830152602482019290925260448101859052919250670de0b6b3a7640000917f000000000000000000000000000000000000000000000000000000000000000090911690630924a32190606401602060405180830381865afa158015611d28573d6000803e3d6000fd5b505050506040513d601f19601f82011682018060405250810190611d4c91906121f8565b611d569083612211565b611d609190612228565b611d6a90856121e5565b935050600101611c7b565b506001600160a01b038316600090815260046020526040902054611d9990836121d2565b9392505050565b611da8611e72565b600d54600003611dcb576040516318963f5560e31b815260040160405180910390fd5b600e544210611ded5760405163037475dd60e11b815260040160405180910390fd5b803414611e0d5760405163bc6f88c560e01b815260040160405180910390fd5b80600a6000828254611e1f91906121e5565b90915550506040518181527fae6c856401df047ba1dde3436da71dfaf45c65409c2e917871389afb1a11b3559060200160405180910390a161068b6001600355565b611e69611f2f565b61068b81611f82565b600260035403611e9557604051633ee5aeb560e01b815260040160405180910390fd5b6002600355565b6001600160a01b03831660009081526006602090815260408083208584529091528120549003611ef2576001600160a01b0383166000908152600760209081526040822080546001810182559083529120018290555b6001600160a01b038316600090815260066020908152604080832085845290915281208054839290611f259084906121aa565b9091555050505050565b6000546001600160a01b031633146110af5760405162461bcd60e51b815260206004820152601660248201527527b7363c9031b0b63630b1363290313c9037bbb732b960511b6044820152606401610772565b336001600160a01b03821603611fda5760405162461bcd60e51b815260206004820152601760248201527f43616e6e6f74207472616e7366657220746f2073656c660000000000000000006044820152606401610772565b600180546001600160a01b0319166001600160a01b0383811691821790925560008054604051929316917fed8889f560326eb138920d842192f0eb3dd22b4f139c87a2c57538e05bae12789190a350565b6001600160a01b038116811461068b57600080fd5b6000806040838503121561205357600080fd5b823561205e8161202b565b946020939093013593505050565b60006020828403121561207e57600080fd5b5035919050565b60006020828403121561209757600080fd5b81356105998161202b565b600080600080608085870312156120b857600080fd5b5050823594602084013594506040840135936060013592509050565b60008060008060008060a087890312156120ed57600080fd5b86356120f88161202b565b955060208701356121088161202b565b94506040870135935060608701359250608087013567ffffffffffffffff8082111561213357600080fd5b818901915089601f83011261214757600080fd5b81358181111561215657600080fd5b8a602082850101111561216857600080fd5b6020830194508093505050509295509295509295565b634e487b7160e01b600052603260045260246000fd5b634e487b7160e01b600052601160045260246000fd5b80820182811260008312801582168215821617156121ca576121ca612194565b505092915050565b8181038181111561059f5761059f612194565b8082018082111561059f5761059f612194565b60006020828403121561220a57600080fd5b5051919050565b808202811582820484141761059f5761059f612194565b60008261224557634e487b7160e01b600052601260045260246000fd5b500490565b60006001820161225c5761225c612194565b5060010190565b6000806040838503121561227657600080fd5b505080516020909101519092909150565b6001600160a01b0394851681529290931660208301526040820152606081019190915260a06080820181905260009082015260c00190565b6000600160ff1b82016122d4576122d4612194565b5060000390565b6000602082840312156122ed57600080fd5b81516105998161202b565b60008161230757612307612194565b506000190190565b60006020828403121561232157600080fd5b8151801515811461059957600080fdfea264697066735822122074a43ace025229487330f52f1768f9bc916e59d5bf25f526fe29f119a0ab4f2064736f6c63430008180033","linkReferences":{}},"methodIdentifiers":{"APPRAISER_REWARD_SHARE()":"06c309c2","SAFETY_PERCENT()":"abf0b21c","acceptOwnership()":"79ba5097","assign(uint256,uint256,uint256,uint256)":"d2ac8294","availableWithdraw()":"074db040","canClaimAppraiser(address)":"d7af9cb7","canClaimDepositor(address)":"2aae7b39","canLiquidate()":"cd13ee77","claimAppraiser()":"bfa26e56","claimDepositor()":"7406b24a","deposit(uint256)":"b6b55f25","depositOwner(uint256)":"28cf8bb0","getEpoch()":"757991a8","getPlan()":"af0686d2","getPrice()":"98d5fdca","getUserBalanceAtEpoch(address,uint256)":"02fe35bc","onERC1155Received(address,address,uint256,uint256,bytes)":"f23a6e61","owner()":"8da5cb5b","payRent(uint256)":"d9e8843f","paySafety(uint256)":"3fa43d21","paymentDeposited()":"581874f4","rentDue()":"2ef910c6","safetyAmount()":"cf214293","safetyAmountDue()":"3e86936e","setIssuer(address)":"55cc4e57","transferOwnership(address)":"f2fde38b","withdraw(uint256)":"2e1a7d4d","withdrawOwner(uint256)":"6ef98b21"},"id":51}