{"abi":[{"type":"constructor","inputs":[{"name":"uri_","type":"string","internalType":"string"},{"name":"functionsRouterAddress","type":"address","internalType":"address"}],"stateMutability":"nonpayable"},{"type":"function","name":"APPRAISAL_LOCK_TIME","inputs":[],"outputs":[{"name":"","type":"uint256","internalType":"uint256"}],"stateMutability":"view"},{"type":"function","name":"APPRAISAL_WEIGHT","inputs":[],"outputs":[{"name":"","type":"uint256","internalType":"uint256"}],"stateMutability":"view"},{"type":"function","name":"ORACLE_WEIGHT","inputs":[],"outputs":[{"name":"","type":"uint256","internalType":"uint256"}],"stateMutability":"view"},{"type":"function","name":"acceptOwnership","inputs":[],"outputs":[],"stateMutability":"nonpayable"},{"type":"function","name":"balanceOf","inputs":[{"name":"account","type":"address","internalType":"address"},{"name":"id","type":"uint256","internalType":"uint256"}],"outputs":[{"name":"","type":"uint256","internalType":"uint256"}],"stateMutability":"view"},{"type":"function","name":"balanceOfBatch","inputs":[{"name":"accounts","type":"address[]","internalType":"address[]"},{"name":"ids","type":"uint256[]","internalType":"uint256[]"}],"outputs":[{"name":"","type":"uint256[]","internalType":"uint256[]"}],"stateMutability":"view"},{"type":"function","name":"burn","inputs":[{"name":"account","type":"address","internalType":"address"},{"name":"id","type":"uint256","internalType":"uint256"},{"name":"amount","type":"uint256","internalType":"uint256"}],"outputs":[],"stateMutability":"nonpayable"},{"type":"function","name":"exists","inputs":[{"name":"id","type":"uint256","internalType":"uint256"}],"outputs":[{"name":"","type":"bool","internalType":"bool"}],"stateMutability":"view"},{"type":"function","name":"getAppraisalCount","inputs":[{"name":"tokenId","type":"uint256","internalType":"uint256"},{"name":"epochId","type":"uint256","internalType":"uint256"}],"outputs":[{"name":"count","type":"uint256","internalType":"uint256"}],"stateMutability":"view"},{"type":"function","name":"getEpochPrice","inputs":[{"name":"tokenId","type":"uint256","internalType":"uint256"},{"name":"epochId","type":"uint256","internalType":"uint256"}],"outputs":[{"name":"price","type":"uint256","internalType":"uint256"}],"stateMutability":"view"},{"type":"function","name":"getOraclePrice","inputs":[{"name":"tokenId","type":"uint256","internalType":"uint256"},{"name":"epochId","type":"uint256","internalType":"uint256"}],"outputs":[{"name":"oraclePrice","type":"uint256","internalType":"uint256"}],"stateMutability":"view"},{"type":"function","name":"getPool","inputs":[{"name":"tokenId","type":"uint256","internalType":"uint256"}],"outputs":[{"name":"pool","type":"address","internalType":"address"}],"stateMutability":"view"},{"type":"function","name":"getPrice","inputs":[],"outputs":[{"name":"","type":"string","internalType":"string"}],"stateMutability":"view"},{"type":"function","name":"getRewardShare","inputs":[{"name":"appraiser","type":"address","internalType":"address"},{"name":"tokenId","type":"uint256","internalType":"uint256"},{"name":"epochId","type":"uint256","internalType":"uint256"}],"outputs":[{"name":"","type":"uint256","internalType":"uint256"}],"stateMutability":"view"},{"type":"function","name":"handleOracleFulfillment","inputs":[{"name":"requestId","type":"bytes32","internalType":"bytes32"},{"name":"response","type":"bytes","internalType":"bytes"},{"name":"err","type":"bytes","internalType":"bytes"}],"outputs":[],"stateMutability":"nonpayable"},{"type":"function","name":"isAppraiser","inputs":[{"name":"appraiser","type":"address","internalType":"address"}],"outputs":[{"name":"","type":"bool","internalType":"bool"}],"stateMutability":"view"},{"type":"function","name":"isApprovedForAll","inputs":[{"name":"account","type":"address","internalType":"address"},{"name":"operator","type":"address","internalType":"address"}],"outputs":[{"name":"","type":"bool","internalType":"bool"}],"stateMutability":"view"},{"type":"function","name":"mint","inputs":[{"name":"_to","type":"address","internalType":"address"},{"name":"_id","type":"uint256","internalType":"uint256"},{"name":"_amount","type":"uint256","internalType":"uint256"},{"name":"_data","type":"bytes","internalType":"bytes"},{"name":"_tokenUri","type":"string","internalType":"string"}],"outputs":[],"stateMutability":"nonpayable"},{"type":"function","name":"mintBatch","inputs":[{"name":"_to","type":"address","internalType":"address"},{"name":"_ids","type":"uint256[]","internalType":"uint256[]"},{"name":"_amounts","type":"uint256[]","internalType":"uint256[]"},{"name":"_data","type":"bytes","internalType":"bytes"},{"name":"_tokenUris","type":"string[]","internalType":"string[]"}],"outputs":[],"stateMutability":"nonpayable"},{"type":"function","name":"owner","inputs":[],"outputs":[{"name":"","type":"address","internalType":"address"}],"stateMutability":"view"},{"type":"function","name":"registerAppraiser","inputs":[{"name":"appraiser","type":"address","internalType":"address"}],"outputs":[],"stateMutability":"nonpayable"},{"type":"function","name":"removeAppraiser","inputs":[{"name":"appraiser","type":"address","internalType":"address"}],"outputs":[],"stateMutability":"nonpayable"},{"type":"function","name":"s_appraisers","inputs":[{"name":"","type":"uint256","internalType":"uint256"}],"outputs":[{"name":"","type":"address","internalType":"address"}],"stateMutability":"view"},{"type":"function","name":"safeBatchTransferFrom","inputs":[{"name":"from","type":"address","internalType":"address"},{"name":"to","type":"address","internalType":"address"},{"name":"ids","type":"uint256[]","internalType":"uint256[]"},{"name":"values","type":"uint256[]","internalType":"uint256[]"},{"name":"data","type":"bytes","internalType":"bytes"}],"outputs":[],"stateMutability":"nonpayable"},{"type":"function","name":"safeTransferFrom","inputs":[{"name":"from","type":"address","internalType":"address"},{"name":"to","type":"address","internalType":"address"},{"name":"id","type":"uint256","internalType":"uint256"},{"name":"value","type":"uint256","internalType":"uint256"},{"name":"data","type":"bytes","internalType":"bytes"}],"outputs":[],"stateMutability":"nonpayable"},{"type":"function","name":"setAppraiserPrice","inputs":[{"name":"tokenId","type":"uint256","internalType":"uint256"},{"name":"epochId","type":"uint256","internalType":"uint256"},{"name":"appraisal","type":"uint256","internalType":"uint256"}],"outputs":[],"stateMutability":"nonpayable"},{"type":"function","name":"setApprovalForAll","inputs":[{"name":"operator","type":"address","internalType":"address"},{"name":"approved","type":"bool","internalType":"bool"}],"outputs":[],"stateMutability":"nonpayable"},{"type":"function","name":"setAutomationForwarder","inputs":[{"name":"automationForwarderAddress","type":"address","internalType":"address"}],"outputs":[],"stateMutability":"nonpayable"},{"type":"function","name":"setIssuer","inputs":[{"name":"_issuer","type":"address","internalType":"address"}],"outputs":[],"stateMutability":"nonpayable"},{"type":"function","name":"setOraclePrice","inputs":[{"name":"tokenId","type":"uint256","internalType":"uint256"},{"name":"epochId","type":"uint256","internalType":"uint256"},{"name":"value","type":"uint256","internalType":"uint256"}],"outputs":[],"stateMutability":"nonpayable"},{"type":"function","name":"setPool","inputs":[{"name":"tokenId","type":"uint256","internalType":"uint256"},{"name":"pool","type":"address","internalType":"address"}],"outputs":[],"stateMutability":"nonpayable"},{"type":"function","name":"supportsInterface","inputs":[{"name":"interfaceId","type":"bytes4","internalType":"bytes4"}],"outputs":[{"name":"","type":"bool","internalType":"bool"}],"stateMutability":"view"},{"type":"function","name":"totalSupply","inputs":[],"outputs":[{"name":"","type":"uint256","internalType":"uint256"}],"stateMutability":"view"},{"type":"function","name":"totalSupply","inputs":[{"name":"id","type":"uint256","internalType":"uint256"}],"outputs":[{"name":"","type":"uint256","internalType":"uint256"}],"stateMutability":"view"},{"type":"function","name":"transferOwnership","inputs":[{"name":"to","type":"address","internalType":"address"}],"outputs":[],"stateMutability":"nonpayable"},{"type":"function","name":"updatePriceDetails","inputs":[{"name":"tokenId","type":"string","internalType":"string"},{"name":"subscriptionId","type":"uint64","internalType":"uint64"},{"name":"gasLimit","type":"uint32","internalType":"uint32"},{"name":"donID","type":"bytes32","internalType":"bytes32"}],"outputs":[{"name":"requestId","type":"bytes32","internalType":"bytes32"}],"stateMutability":"nonpayable"},{"type":"function","name":"uri","inputs":[{"name":"tokenId","type":"uint256","internalType":"uint256"}],"outputs":[{"name":"","type":"string","internalType":"string"}],"stateMutability":"view"},{"type":"event","name":"ApprovalForAll","inputs":[{"name":"account","type":"address","indexed":true,"internalType":"address"},{"name":"operator","type":"address","indexed":true,"internalType":"address"},{"name":"approved","type":"bool","indexed":false,"internalType":"bool"}],"anonymous":false},{"type":"event","name":"OwnershipTransferRequested","inputs":[{"name":"from","type":"address","indexed":true,"internalType":"address"},{"name":"to","type":"address","indexed":true,"internalType":"address"}],"anonymous":false},{"type":"event","name":"OwnershipTransferred","inputs":[{"name":"from","type":"address","indexed":true,"internalType":"address"},{"name":"to","type":"address","indexed":true,"internalType":"address"}],"anonymous":false},{"type":"event","name":"RequestFulfilled","inputs":[{"name":"id","type":"bytes32","indexed":true,"internalType":"bytes32"}],"anonymous":false},{"type":"event","name":"RequestSent","inputs":[{"name":"id","type":"bytes32","indexed":true,"internalType":"bytes32"}],"anonymous":false},{"type":"event","name":"SetIssuer","inputs":[{"name":"issuer","type":"address","indexed":true,"internalType":"address"}],"anonymous":false},{"type":"event","name":"TransferBatch","inputs":[{"name":"operator","type":"address","indexed":true,"internalType":"address"},{"name":"from","type":"address","indexed":true,"internalType":"address"},{"name":"to","type":"address","indexed":true,"internalType":"address"},{"name":"ids","type":"uint256[]","indexed":false,"internalType":"uint256[]"},{"name":"values","type":"uint256[]","indexed":false,"internalType":"uint256[]"}],"anonymous":false},{"type":"event","name":"TransferSingle","inputs":[{"name":"operator","type":"address","indexed":true,"internalType":"address"},{"name":"from","type":"address","indexed":true,"internalType":"address"},{"name":"to","type":"address","indexed":true,"internalType":"address"},{"name":"id","type":"uint256","indexed":false,"internalType":"uint256"},{"name":"value","type":"uint256","indexed":false,"internalType":"uint256"}],"anonymous":false},{"type":"event","name":"URI","inputs":[{"name":"value","type":"string","indexed":false,"internalType":"string"},{"name":"id","type":"uint256","indexed":true,"internalType":"uint256"}],"anonymous":false},{"type":"error","name":"AppraisalAlreadySet","inputs":[]},{"type":"error","name":"AppraisalLockTill","inputs":[{"name":"","type":"uint256","internalType":"uint256"}]},{"type":"error","name":"AppraiserNotAllowed","inputs":[{"name":"","type":"address","internalType":"address"}]},{"type":"error","name":"ERC1155Core_CallerIsNotIssuerOrItself","inputs":[{"name":"msgSender","type":"address","internalType":"address"}]},{"type":"error","name":"ERC1155Core_CallerIsNotIssuerOrOwner","inputs":[{"name":"msgSender","type":"address","internalType":"address"}]},{"type":"error","name":"ERC1155InsufficientBalance","inputs":[{"name":"sender","type":"address","internalType":"address"},{"name":"balance","type":"uint256","internalType":"uint256"},{"name":"needed","type":"uint256","internalType":"uint256"},{"name":"tokenId","type":"uint256","internalType":"uint256"}]},{"type":"error","name":"ERC1155InvalidApprover","inputs":[{"name":"approver","type":"address","internalType":"address"}]},{"type":"error","name":"ERC1155InvalidArrayLength","inputs":[{"name":"idsLength","type":"uint256","internalType":"uint256"},{"name":"valuesLength","type":"uint256","internalType":"uint256"}]},{"type":"error","name":"ERC1155InvalidOperator","inputs":[{"name":"operator","type":"address","internalType":"address"}]},{"type":"error","name":"ERC1155InvalidReceiver","inputs":[{"name":"receiver","type":"address","internalType":"address"}]},{"type":"error","name":"ERC1155InvalidSender","inputs":[{"name":"sender","type":"address","internalType":"address"}]},{"type":"error","name":"ERC1155MissingApprovalForAll","inputs":[{"name":"operator","type":"address","internalType":"address"},{"name":"owner","type":"address","internalType":"address"}]},{"type":"error","name":"EmptyArgs","inputs":[]},{"type":"error","name":"EmptySource","inputs":[]},{"type":"error","name":"NoInlineSecrets","inputs":[]},{"type":"error","name":"OnlyAutomationForwarderOrOwnerCanCall","inputs":[]},{"type":"error","name":"OnlyRouterCanFulfill","inputs":[]},{"type":"error","name":"PastAppraisalForbidden","inputs":[]},{"type":"error","name":"PoolNotSet","inputs":[]}],"bytecode":{"object":"0x61020060405261012360a0818152906200397660c03960099062000024908262000277565b503480156200003257600080fd5b5060405162003a9938038062003a99833981016040819052620000559162000360565b8080833380600083620000688162000112565b506001600160a01b038216620000c55760405162461bcd60e51b815260206004820152601860248201527f43616e6e6f7420736574206f776e657220746f207a65726f000000000000000060448201526064015b60405180910390fd5b600580546001600160a01b0319166001600160a01b0384811691909117909155811615620000f857620000f88162000124565b505050506001600160a01b03166080525062000448915050565b600262000120828262000277565b5050565b336001600160a01b038216036200017e5760405162461bcd60e51b815260206004820152601760248201527f43616e6e6f74207472616e7366657220746f2073656c660000000000000000006044820152606401620000bc565b600680546001600160a01b0319166001600160a01b03838116918217909255600554604051919216907fed8889f560326eb138920d842192f0eb3dd22b4f139c87a2c57538e05bae127890600090a350565b634e487b7160e01b600052604160045260246000fd5b600181811c90821680620001fb57607f821691505b6020821081036200021c57634e487b7160e01b600052602260045260246000fd5b50919050565b601f82111562000272576000816000526020600020601f850160051c810160208610156200024d5750805b601f850160051c820191505b818110156200026e5782815560010162000259565b5050505b505050565b81516001600160401b03811115620002935762000293620001d0565b620002ab81620002a48454620001e6565b8462000222565b602080601f831160018114620002e35760008415620002ca5750858301515b600019600386901b1c1916600185901b1785556200026e565b600085815260208120601f198616915b828110156200031457888601518255948401946001909101908401620002f3565b5085821015620003335787850151600019600388901b60f8161c191681555b5050505050600190811b01905550565b80516001600160a01b03811681146200035b57600080fd5b919050565b600080604083850312156200037457600080fd5b82516001600160401b03808211156200038c57600080fd5b818501915085601f830112620003a157600080fd5b815181811115620003b657620003b6620001d0565b604051601f8201601f19908116603f01168101908382118183101715620003e157620003e1620001d0565b81604052828152602093508884848701011115620003fe57600080fd5b600091505b8282101562000422578482018401518183018501529083019062000403565b60008484830101528096505050506200043d81860162000343565b925050509250929050565b60805161350b6200046b600039600081816107310152611993015261350b6000f3fe608060405234801561001057600080fd5b50600436106102265760003560e01c80638653197511610130578063bd85b039116100b8578063e985e9c51161007c578063e985e9c5146104f9578063f242432a1461050c578063f2fde38b1461051f578063f3a6ee4014610532578063f5298aca1461054557600080fd5b8063bd85b03914610474578063c1341c4f14610494578063c4c66d7f146104a7578063d40d17bc146104d3578063e3423605146104e657600080fd5b806392a77942116100ff57806392a779421461042057806398d5fdca14610433578063a22cb4651461043b578063a843a0ab1461044e578063b942f8cb1461046157600080fd5b806386531975146103e95780638863af94146103e15780638da5cb5b146103fc5780638ffc65971461040d57600080fd5b8063491baf80116101b35780635fa48e17116101825780635fa48e17146103935780636262a5191461039b5780636efea1c6146103ae57806379ba5097146103d957806381c61fab146103e157600080fd5b8063491baf801461032b5780634e1273f41461033e5780634f558e791461035e57806355cc4e571461038057600080fd5b80630ca76175116101fa5780630ca76175146102c85780630e89341c146102dd578063145a007a146102fd57806318160ddd146103105780632eb2c2d61461031857600080fd5b8062fdd58e1461022b57806301ffc9a714610251578063068bcd8d146102745780630924a321146102b5575b600080fd5b61023e6102393660046127c3565b610558565b6040519081526020015b60405180910390f35b61026461025f366004612805565b610580565b6040519015158152602001610248565b61029d610282366004612822565b6000908152600b60205260409020546001600160a01b031690565b6040516001600160a01b039091168152602001610248565b61023e6102c336600461283b565b6105d0565b6102db6102d6366004612933565b610726565b005b6102f06102eb366004612822565b6107aa565b60405161024891906129ef565b61023e61030b366004612a02565b61085f565b60045461023e565b6102db610326366004612ab1565b6108ec565b6102db610339366004612b5e565b610958565b61035161034c366004612b7b565b6109c6565b6040516102489190612c78565b61026461036c366004612822565b600090815260036020526040902054151590565b6102db61038e366004612b5e565b610a92565b61023e604681565b61029d6103a9366004612822565b610ae4565b61023e6103bc366004612a02565b6000918252600e6020908152604080842092845291905290205490565b6102db610b0e565b61023e601e81565b6102db6103f7366004612c8b565b610bbc565b6005546001600160a01b031661029d565b6102db61041b366004612c8b565b610d3b565b6102db61042e366004612b5e565b610e05565b6102f0610e2e565b6102db610449366004612cb7565b610ebc565b61023e61045c366004612cf5565b610ecb565b6102db61046f366004612d6f565b611039565b61023e610482366004612822565b60009081526003602052604090205490565b6102db6104a2366004612ea2565b6110e7565b6102646104b5366004612b5e565b6001600160a01b03166000908152600c602052604090205460ff1690565b6102db6104e1366004612b5e565b611146565b61023e6104f4366004612a02565b611170565b610264610507366004612efb565b6111dc565b6102db61051a366004612f29565b61120a565b6102db61052d366004612b5e565b611269565b6102db610540366004612f91565b61127d565b6102db61055336600461283b565b611359565b6000818152602081815260408083206001600160a01b03861684529091529020545b92915050565b60006001600160e01b03198216636cdb3d1360e11b14806105b157506001600160e01b031982166303a24d0760e21b145b8061057a57506301ffc9a760e01b6001600160e01b031983161461057a565b6000806105dd848461085f565b9050806000036105f157600091505061071f565b60006105fd8585611170565b905060008060005b600d548110156106e5576000600d828154811061062457610624612fb6565b60009182526020808320909101546001600160a01b0316808352600f825260408084208d855283528084208c855290925291205490915080156106db576000868211610679576106748288612fe2565b610683565b6106838783612fe2565b905060008761069a83670de0b6b3a7640000612ff5565b6106a49190613022565b90506106b08188613036565b96508c6001600160a01b0316846001600160a01b0316036106d8576106d58187613036565b95505b50505b5050600101610605565b50816000036106fb57600094505050505061071f565b8161070e82670de0b6b3a7640000612ff5565b6107189190613022565b9450505050505b9392505050565b336001600160a01b037f0000000000000000000000000000000000000000000000000000000000000000161461076f5760405163c6829f8360e01b815260040160405180910390fd5b61077a8383836113f3565b60405183907f85e1543bf2f84fe80c6badbce3648c8539ad1df4d2b3d822938ca0538be727e690600090a2505050565b6000818152600860205260408120805460609291906107c890613049565b80601f01602080910402602001604051908101604052809291908181526020018280546107f490613049565b80156108415780601f1061081657610100808354040283529160200191610841565b820191906000526020600020905b81548152906001019060200180831161082457829003601f168201915b50505050509050600081511161057a5761085a8361144f565b61071f565b600080805b600d548110156108e4576000600d828154811061088357610883612fb6565b60009182526020808320909101546001600160a01b0316808352600f825260408084208a8552835280842089855290925291205490915080156108da576108ca8185613036565b9350846108d681613083565b9550505b5050600101610864565b505092915050565b336001600160a01b038616811480159061090d575061090b86826111dc565b155b156109435760405163711bec9160e11b81526001600160a01b038083166004830152871660248201526044015b60405180910390fd5b61095086868686866114e3565b505050505050565b61096061154a565b6001600160a01b03166000818152600c60205260408120805460ff19166001908117909155600d805491820181559091527fd7b6990105719101dabeb77144f2a3385c8033acd3af97e9423a695e81ad1eb50180546001600160a01b0319169091179055565b606081518351146109f75781518351604051635b05999160e01b81526004810192909252602482015260440161093a565b600083516001600160401b03811115610a1257610a12612870565b604051908082528060200260200182016040528015610a3b578160200160208202803683370190505b50905060005b8451811015610a8a57602080820286010151610a6590602080840287010151610558565b828281518110610a7757610a77612fb6565b6020908102919091010152600101610a41565b509392505050565b610a9a61154a565b600780546001600160a01b0319166001600160a01b0383169081179091556040517fd56ed7b1c1110348b1fbf418469f6fc4acc32d9b675e9e1e448cc19169a64ca090600090a250565b600d8181548110610af457600080fd5b6000918252602090912001546001600160a01b0316905081565b6006546001600160a01b03163314610b615760405162461bcd60e51b815260206004820152601660248201527526bab9ba10313290383937b837b9b2b21037bbb732b960511b604482015260640161093a565b600580546001600160a01b0319808216339081179093556006805490911690556040516001600160a01b03909116919082907f8be0079c531659141344cd1fd0a4f28419497f9722a3daafe3b4186f6b6457e090600090a350565b336000908152600c602052604090205460ff16610bee57604051635920257560e01b815233600482015260240161093a565b6000838152600b60205260409020546001600160a01b0316610c2357604051633c67586360e01b815260040160405180910390fd5b6000838152600b6020526040808220548151630eaf323560e31b815282516001600160a01b0390921693928392859263757991a89260048083019391928290030181865afa158015610c79573d6000803e3d6000fd5b505050506040513d601f19601f82011682018060405250810190610c9d919061309c565b9150915081851015610cc257604051630ec6169360e01b815260040160405180910390fd5b610ccd601e82612fe2565b4210610cef576040516332d6f2a360e21b81526004810182905260240161093a565b336000908152600f60209081526040808320898452825280832088845290915290205415610d30576040516310b53edf60e21b815260040160405180910390fd5b61095086868661159f565b306001600160a01b0316638da5cb5b6040518163ffffffff1660e01b8152600401602060405180830381865afa158015610d79573d6000803e3d6000fd5b505050506040513d601f19601f82011682018060405250810190610d9d91906130c0565b6001600160a01b0316336001600160a01b031614158015610dc957506007546001600160a01b03163314155b15610de957604051634996a0cb60e01b815233600482015260240161093a565b6000928352600e60209081526040808520938552929052912055565b610e0d61154a565b6001600160a01b03166000908152600c60205260409020805460ff19169055565b60098054610e3b90613049565b80601f0160208091040260200160405190810160405280929190818152602001828054610e6790613049565b8015610eb45780601f10610e8957610100808354040283529160200191610eb4565b820191906000526020600020905b815481529060010190602001808311610e9757829003601f168201915b505050505081565b610ec73383836115f9565b5050565b600a546000906001600160a01b03163314801590610ef457506005546001600160a01b03163314155b15610f12576040516302dc7d2f60e21b815260040160405180910390fd5b610f536040805160e0810190915280600081526020016000815260200160008152602001606081526020016060815260200160608152602001606081525090565b610fc3306001600160a01b03166398d5fdca6040518163ffffffff1660e01b8152600401600060405180830381865afa158015610f94573d6000803e3d6000fd5b505050506040513d6000823e601f3d908101601f19168201604052610fbc91908101906130dd565b829061168f565b604080516001808252818301909252600091816020015b6060815260200190600190039081610fda579050509050868160008151811061100557611005612fb6565b602090810291909101015261101a828261169c565b61102e611026836116c6565b87878761198e565b979650505050505050565b33301480159061105457506007546001600160a01b03163314155b1561107457604051637725137960e11b815233600482015260240161093a565b61108085858585611a60565b60005b84518110156109505781818151811061109e5761109e612fb6565b6020026020010151600860008784815181106110bc576110bc612fb6565b6020026020010151815260200190815260200160002090816110de9190613192565b50600101611083565b33301480159061110257506007546001600160a01b03163314155b1561112257604051637725137960e11b815233600482015260240161093a565b61112e85858585611a9e565b60008481526008602052604090206109508282613192565b61114e61154a565b600a80546001600160a01b0319166001600160a01b0392909216919091179055565b6000828152600e60209081526040808320848452909152812054816111958585611afb565b9050806000036111a7578192506108e4565b60646111b482601e612ff5565b6111bf846046612ff5565b6111c99190613036565b6111d39190613022565b95945050505050565b6001600160a01b03918216600090815260016020908152604080832093909416825291909152205460ff1690565b336001600160a01b038616811480159061122b575061122986826111dc565b155b1561125c5760405163711bec9160e11b81526001600160a01b0380831660048301528716602482015260440161093a565b6109508686868686611b9f565b61127161154a565b61127a81611c2d565b50565b306001600160a01b0316638da5cb5b6040518163ffffffff1660e01b8152600401602060405180830381865afa1580156112bb573d6000803e3d6000fd5b505050506040513d601f19601f820116820180604052508101906112df91906130c0565b6001600160a01b0316336001600160a01b03161415801561130b57506007546001600160a01b03163314155b1561132b57604051634996a0cb60e01b815233600482015260240161093a565b6000918252600b602052604090912080546001600160a01b0319166001600160a01b03909216919091179055565b33301480159061137457506007546001600160a01b03163314155b1561139457604051637725137960e11b815233600482015260240161093a565b6001600160a01b03831633148015906113b457506113b283336111dc565b155b156113e35760405163711bec9160e11b81523360048201526001600160a01b038416602482015260440161093a565b6113ee838383611cd7565b505050565b805115611414578060405162461bcd60e51b815260040161093a91906129ef565b60008060008480602001905181019061142d9190613251565b6000928352600e60209081526040808520938552929052912055505050505050565b60606002805461145e90613049565b80601f016020809104026020016040519081016040528092919081815260200182805461148a90613049565b80156114d75780601f106114ac576101008083540402835291602001916114d7565b820191906000526020600020905b8154815290600101906020018083116114ba57829003601f168201915b50505050509050919050565b6001600160a01b03841661150d57604051632bfa23e760e11b81526000600482015260240161093a565b6001600160a01b03851661153657604051626a0d4560e21b81526000600482015260240161093a565b6115438585858585611d3b565b5050505050565b6005546001600160a01b0316331461159d5760405162461bcd60e51b815260206004820152601660248201527527b7363c9031b0b63630b1363290313c9037bbb732b960511b604482015260640161093a565b565b336000908152600c602052604090205460ff166115d157604051635920257560e01b815233600482015260240161093a565b336000908152600f602090815260408083209583529481528482209382529290925291902055565b6001600160a01b0382166116225760405162ced3e160e81b81526000600482015260240161093a565b6001600160a01b03838116600081815260016020908152604080832094871680845294825291829020805460ff191686151590811790915591519182527f17307eab39ab6107e8899845ad3d59bd9653f200f220920489ca2b5937696c31910160405180910390a3505050565b610ec78260008084611d8e565b80516000036116be5760405163fe936cb760e01b815260040160405180910390fd5b60a090910152565b606060006116d5610100611e0c565b905061170e6040518060400160405280600c81526020016b31b7b232a637b1b0ba34b7b760a11b81525082611e2d90919063ffffffff16565b825161172c9060028111156117255761172561327f565b8290611e46565b6040805180820190915260088152676c616e677561676560c01b6020820152611756908290611e2d565b604083015161176d9080156117255761172561327f565b604080518082019091526006815265736f7572636560d01b6020820152611795908290611e2d565b60608301516117a5908290611e2d565b60a08301515115611831576040805180820190915260048152636172677360e01b60208201526117d6908290611e2d565b6117df81611e7f565b60005b8360a00151518110156118275761181f8460a00151828151811061180857611808612fb6565b602002602001015183611e2d90919063ffffffff16565b6001016117e2565b5061183181611ea3565b608083015151156118f5576000836020015160028111156118545761185461327f565b036118725760405163a80d31f760e01b815260040160405180910390fd5b60408051808201909152600f81526e39b2b1b932ba39a637b1b0ba34b7b760891b60208201526118a3908290611e2d565b6118bc836020015160028111156117255761172561327f565b6040805180820190915260078152667365637265747360c81b60208201526118e5908290611e2d565b60808301516118f5908290611ec1565b60c083015151156119865760408051808201909152600981526862797465734172677360b81b602082015261192b908290611e2d565b61193481611e7f565b60005b8360c001515181101561197c576119748460c00151828151811061195d5761195d612fb6565b602002602001015183611ec190919063ffffffff16565b600101611937565b5061198681611ea3565b515192915050565b6000807f00000000000000000000000000000000000000000000000000000000000000006001600160a01b031663461d27628688600188886040518663ffffffff1660e01b81526004016119e6959493929190613295565b6020604051808303816000875af1158015611a05573d6000803e3d6000fd5b505050506040513d601f19601f82011682018060405250810190611a2991906132de565b60405190915081907f1131472297a800fee664d1d89cfa8f7676ff07189ecc53f80bbb5f4969099db890600090a295945050505050565b6001600160a01b038416611a8a57604051632bfa23e760e11b81526000600482015260240161093a565b611a98600085858585611d3b565b50505050565b6001600160a01b038416611ac857604051632bfa23e760e11b81526000600482015260240161093a565b60408051600180825260208201869052818301908152606082018590526080820190925290610950600087848487611d3b565b60008080805b600d54811015611b81576000600d8281548110611b2057611b20612fb6565b60009182526020808320909101546001600160a01b0316808352600f825260408084208b855283528084208a85529092529120549091508015611b7757611b678186613036565b945083611b7381613083565b9450505b5050600101611b01565b5080600003611b955760009250505061057a565b6111d38183613022565b6001600160a01b038416611bc957604051632bfa23e760e11b81526000600482015260240161093a565b6001600160a01b038516611bf257604051626a0d4560e21b81526000600482015260240161093a565b60408051600180825260208201869052818301908152606082018590526080820190925290611c248787848487611d3b565b50505050505050565b336001600160a01b03821603611c855760405162461bcd60e51b815260206004820152601760248201527f43616e6e6f74207472616e7366657220746f2073656c66000000000000000000604482015260640161093a565b600680546001600160a01b0319166001600160a01b03838116918217909255600554604051919216907fed8889f560326eb138920d842192f0eb3dd22b4f139c87a2c57538e05bae127890600090a350565b6001600160a01b038316611d0057604051626a0d4560e21b81526000600482015260240161093a565b604080516001808252602082018590528183019081526060820184905260a08201909252600060808201818152919291611543918791859085905b611d4785858585611ece565b6001600160a01b038416156115435782513390600103611d805760208481015190840151611d79838989858589611fba565b5050610950565b6109508187878787876120de565b8051600003611db0576040516322ce3edd60e01b815260040160405180910390fd5b83836002811115611dc357611dc361327f565b90816002811115611dd657611dd661327f565b90525060408401828015611dec57611dec61327f565b90818015611dfc57611dfc61327f565b9052506060909301929092525050565b611e14612779565b8051611e2090836121c7565b5060006020820152919050565b611e3a826003835161223e565b81516113ee9082612357565b8151611e539060c2612378565b50610ec78282604051602001611e6b91815260200190565b604051602081830303815290604052611ec1565b611e8a8160046123e1565b600181602001818151611e9d9190613036565b90525050565b611eae8160076123e1565b600181602001818151611e9d9190612fe2565b611e3a826002835161223e565b611eda848484846123f8565b6001600160a01b038416611f5a576000805b8351811015611f405760208181028481018201519086018201516000908152600390925260408220805491928392611f25908490613036565b90915550611f3590508184613036565b925050600101611eec565b508060046000828254611f539190613036565b9091555050505b6001600160a01b038316611a98576000805b8351811015611fa9576020818102848101820151908601820151600090815260039092526040909120805482900390559190910190600101611f6c565b506004805491909103905550505050565b6001600160a01b0384163b156109505760405163f23a6e6160e01b81526001600160a01b0385169063f23a6e6190611ffe90899089908890889088906004016132f7565b6020604051808303816000875af1925050508015612039575060408051601f3d908101601f1916820190925261203691810190613331565b60015b6120a2573d808015612067576040519150601f19603f3d011682016040523d82523d6000602084013e61206c565b606091505b50805160000361209a57604051632bfa23e760e11b81526001600160a01b038616600482015260240161093a565b805181602001fd5b6001600160e01b0319811663f23a6e6160e01b14611c2457604051632bfa23e760e11b81526001600160a01b038616600482015260240161093a565b6001600160a01b0384163b156109505760405163bc197c8160e01b81526001600160a01b0385169063bc197c8190612122908990899088908890889060040161334e565b6020604051808303816000875af192505050801561215d575060408051601f3d908101601f1916820190925261215a91810190613331565b60015b61218b573d808015612067576040519150601f19603f3d011682016040523d82523d6000602084013e61206c565b6001600160e01b0319811663bc197c8160e01b14611c2457604051632bfa23e760e11b81526001600160a01b038616600482015260240161093a565b6040805180820190915260608152600060208201526121e76020836133ac565b1561220f576121f76020836133ac565b612202906020612fe2565b61220c9083613036565b91505b60208084018390526040518085526000815290818401018181101561223357600080fd5b604052509192915050565b6017816001600160401b031611612264578251611a989060e0600585901b168317612378565b60ff816001600160401b0316116122a457825161228c906018611fe0600586901b1617612378565b508251611a98906001600160401b038316600161260c565b61ffff816001600160401b0316116122e55782516122cd906019611fe0600586901b1617612378565b508251611a98906001600160401b038316600261260c565b63ffffffff816001600160401b03161161232857825161231090601a611fe0600586901b1617612378565b508251611a98906001600160401b038316600461260c565b825161233f90601b611fe0600586901b1617612378565b508251611a98906001600160401b038316600861260c565b60408051808201909152606081526000602082015261071f83838451612691565b604080518082019091526060815260006020820152825151600061239d826001613036565b9050846020015182106123be576123be856123b9836002612ff5565b612762565b84516020838201018581535080518211156123d7578181525b5093949350505050565b81516113ee90601f611fe0600585901b1617612378565b80518251146124275781518151604051635b05999160e01b81526004810192909252602482015260440161093a565b3360005b835181101561252d576020818102858101820151908501909101516001600160a01b038816156124de576000828152602081815260408083206001600160a01b038c168452909152902054818110156124b7576040516303dee4c560e01b81526001600160a01b038a16600482015260248101829052604481018390526064810184905260840161093a565b6000838152602081815260408083206001600160a01b038d16845290915290209082900390555b6001600160a01b03871615612523576000828152602081815260408083206001600160a01b038b1684529091528120805483929061251d908490613036565b90915550505b505060010161242b565b5082516001036125ae5760208301516000906020840151909150856001600160a01b0316876001600160a01b0316846001600160a01b03167fc3d58168c5ae7397731d063d5bbf3d657854427343f4c083240f7aacaa2d0f62858560405161259f929190918252602082015260400190565b60405180910390a45050611543565b836001600160a01b0316856001600160a01b0316826001600160a01b03167f4a39dc06d4c0dbc64b70af90fd698a233a518aa5d07e595d983b8c0526c8f7fb86866040516125fd9291906133c0565b60405180910390a45050505050565b60408051808201909152606081526000602082015283515160006126308285613036565b9050856020015181111561264d5761264d866123b9836002612ff5565b6000600161265d866101006134c9565b6126679190612fe2565b90508651828101878319825116178152508051831115612685578281525b50959695505050505050565b60408051808201909152606081526000602082015282518211156126b457600080fd5b83515160006126c38483613036565b905085602001518111156126e0576126e0866123b9836002612ff5565b8551805183820160200191600091808511156126fa578482525b505050602086015b6020861061273a5780518252612719602083613036565b9150612726602082613036565b9050612733602087612fe2565b9550612702565b51815160001960208890036101000a0190811690199190911617905250849150509392505050565b815161276e83836121c7565b50611a988382612357565b60405180604001604052806127a1604051806040016040528060608152602001600081525090565b8152602001600081525090565b6001600160a01b038116811461127a57600080fd5b600080604083850312156127d657600080fd5b82356127e1816127ae565b946020939093013593505050565b6001600160e01b03198116811461127a57600080fd5b60006020828403121561281757600080fd5b813561071f816127ef565b60006020828403121561283457600080fd5b5035919050565b60008060006060848603121561285057600080fd5b833561285b816127ae565b95602085013595506040909401359392505050565b634e487b7160e01b600052604160045260246000fd5b604051601f8201601f191681016001600160401b03811182821017156128ae576128ae612870565b604052919050565b60006001600160401b038211156128cf576128cf612870565b50601f01601f191660200190565b600082601f8301126128ee57600080fd5b81356129016128fc826128b6565b612886565b81815284602083860101111561291657600080fd5b816020850160208301376000918101602001919091529392505050565b60008060006060848603121561294857600080fd5b8335925060208401356001600160401b038082111561296657600080fd5b612972878388016128dd565b9350604086013591508082111561298857600080fd5b50612995868287016128dd565b9150509250925092565b60005b838110156129ba5781810151838201526020016129a2565b50506000910152565b600081518084526129db81602086016020860161299f565b601f01601f19169290920160200192915050565b60208152600061071f60208301846129c3565b60008060408385031215612a1557600080fd5b50508035926020909101359150565b60006001600160401b03821115612a3d57612a3d612870565b5060051b60200190565b600082601f830112612a5857600080fd5b81356020612a686128fc83612a24565b8083825260208201915060208460051b870101935086841115612a8a57600080fd5b602086015b84811015612aa65780358352918301918301612a8f565b509695505050505050565b600080600080600060a08688031215612ac957600080fd5b8535612ad4816127ae565b94506020860135612ae4816127ae565b935060408601356001600160401b0380821115612b0057600080fd5b612b0c89838a01612a47565b94506060880135915080821115612b2257600080fd5b612b2e89838a01612a47565b93506080880135915080821115612b4457600080fd5b50612b51888289016128dd565b9150509295509295909350565b600060208284031215612b7057600080fd5b813561071f816127ae565b60008060408385031215612b8e57600080fd5b82356001600160401b0380821115612ba557600080fd5b818501915085601f830112612bb957600080fd5b81356020612bc96128fc83612a24565b82815260059290921b84018101918181019089841115612be857600080fd5b948201945b83861015612c0f578535612c00816127ae565b82529482019490820190612bed565b96505086013592505080821115612c2557600080fd5b50612c3285828601612a47565b9150509250929050565b60008151808452602080850194506020840160005b83811015612c6d57815187529582019590820190600101612c51565b509495945050505050565b60208152600061071f6020830184612c3c565b600080600060608486031215612ca057600080fd5b505081359360208301359350604090920135919050565b60008060408385031215612cca57600080fd5b8235612cd5816127ae565b915060208301358015158114612cea57600080fd5b809150509250929050565b60008060008060808587031215612d0b57600080fd5b84356001600160401b0380821115612d2257600080fd5b612d2e888389016128dd565b9550602087013591508082168214612d4557600080fd5b509250604085013563ffffffff81168114612d5f57600080fd5b9396929550929360600135925050565b600080600080600060a08688031215612d8757600080fd5b8535612d92816127ae565b94506020868101356001600160401b0380821115612daf57600080fd5b612dbb8a838b01612a47565b96506040890135915080821115612dd157600080fd5b612ddd8a838b01612a47565b95506060890135915080821115612df357600080fd5b612dff8a838b016128dd565b94506080890135915080821115612e1557600080fd5b818901915089601f830112612e2957600080fd5b8135612e376128fc82612a24565b81815260059190911b8301840190848101908c831115612e5657600080fd5b8585015b83811015612e8e57803585811115612e725760008081fd5b612e808f89838a01016128dd565b845250918601918601612e5a565b508096505050505050509295509295909350565b600080600080600060a08688031215612eba57600080fd5b8535612ec5816127ae565b9450602086013593506040860135925060608601356001600160401b0380821115612eef57600080fd5b612b2e89838a016128dd565b60008060408385031215612f0e57600080fd5b8235612f19816127ae565b91506020830135612cea816127ae565b600080600080600060a08688031215612f4157600080fd5b8535612f4c816127ae565b94506020860135612f5c816127ae565b9350604086013592506060860135915060808601356001600160401b03811115612f8557600080fd5b612b51888289016128dd565b60008060408385031215612fa457600080fd5b823591506020830135612cea816127ae565b634e487b7160e01b600052603260045260246000fd5b634e487b7160e01b600052601160045260246000fd5b8181038181111561057a5761057a612fcc565b808202811582820484141761057a5761057a612fcc565b634e487b7160e01b600052601260045260246000fd5b6000826130315761303161300c565b500490565b8082018082111561057a5761057a612fcc565b600181811c9082168061305d57607f821691505b60208210810361307d57634e487b7160e01b600052602260045260246000fd5b50919050565b60006001820161309557613095612fcc565b5060010190565b600080604083850312156130af57600080fd5b505080516020909101519092909150565b6000602082840312156130d257600080fd5b815161071f816127ae565b6000602082840312156130ef57600080fd5b81516001600160401b0381111561310557600080fd5b8201601f8101841361311657600080fd5b80516131246128fc826128b6565b81815285602083850101111561313957600080fd5b6111d382602083016020860161299f565b601f8211156113ee576000816000526020600020601f850160051c810160208610156131735750805b601f850160051c820191505b818110156109505782815560010161317f565b81516001600160401b038111156131ab576131ab612870565b6131bf816131b98454613049565b8461314a565b602080601f8311600181146131f457600084156131dc5750858301515b600019600386901b1c1916600185901b178555610950565b600085815260208120601f198616915b8281101561322357888601518255948401946001909101908401613204565b50858210156132415787850151600019600388901b60f8161c191681555b5050505050600190811b01905550565b60008060006060848603121561326657600080fd5b8351925060208401519150604084015190509250925092565b634e487b7160e01b600052602160045260246000fd5b6001600160401b038616815260a0602082015260006132b760a08301876129c3565b61ffff9590951660408301525063ffffffff92909216606083015260809091015292915050565b6000602082840312156132f057600080fd5b5051919050565b6001600160a01b03868116825285166020820152604081018490526060810183905260a06080820181905260009061102e908301846129c3565b60006020828403121561334357600080fd5b815161071f816127ef565b6001600160a01b0386811682528516602082015260a06040820181905260009061337a90830186612c3c565b828103606084015261338c8186612c3c565b905082810360808401526133a081856129c3565b98975050505050505050565b6000826133bb576133bb61300c565b500690565b6040815260006133d36040830185612c3c565b82810360208401526111d38185612c3c565b600181815b8085111561342057816000190482111561340657613406612fcc565b8085161561341357918102915b93841c93908002906133ea565b509250929050565b6000826134375750600161057a565b816134445750600061057a565b816001811461345a576002811461346457613480565b600191505061057a565b60ff84111561347557613475612fcc565b50506001821b61057a565b5060208310610133831016604e8410600b84101617156134a3575081810a61057a565b6134ad83836133e5565b80600019048211156134c1576134c1612fcc565b029392505050565b600061071f838361342856fea2646970667358221220f726baa5b80f212ea141eca068f77b1d8d945aa8507a995dd5c72c3755f3602664736f6c63430008180033636f6e7374207b20657468657273207d203d20617761697420696d706f727428276e706d3a65746865727340362e31302e3027293b636f6e737420746f6b656e4964203d20617267735b305d3b636f6e73742065706f63684964203d20303b636f6e737420616269436f646572203d206574686572732e416269436f6465722e64656661756c74416269436f64657228293b636f6e737420656e636f646564203d20616269436f6465722e656e636f6465285b6075696e74323536602c206075696e74323536602c206075696e74323536605d2c205b746f6b656e49642c2065706f636849642c203130305d293b636f6e736f6c652e6c6f6728656e636f646564293b72657475726e206574686572732e676574427974657328656e636f646564293b","linkReferences":{}},"methodIdentifiers":{"APPRAISAL_LOCK_TIME()":"8863af94","APPRAISAL_WEIGHT()":"81c61fab","ORACLE_WEIGHT()":"5fa48e17","acceptOwnership()":"79ba5097","balanceOf(address,uint256)":"00fdd58e","balanceOfBatch(address[],uint256[])":"4e1273f4","burn(address,uint256,uint256)":"f5298aca","exists(uint256)":"4f558e79","getAppraisalCount(uint256,uint256)":"145a007a","getEpochPrice(uint256,uint256)":"e3423605","getOraclePrice(uint256,uint256)":"6efea1c6","getPool(uint256)":"068bcd8d","getPrice()":"98d5fdca","getRewardShare(address,uint256,uint256)":"0924a321","handleOracleFulfillment(bytes32,bytes,bytes)":"0ca76175","isAppraiser(address)":"c4c66d7f","isApprovedForAll(address,address)":"e985e9c5","mint(address,uint256,uint256,bytes,string)":"c1341c4f","mintBatch(address,uint256[],uint256[],bytes,string[])":"b942f8cb","owner()":"8da5cb5b","registerAppraiser(address)":"491baf80","removeAppraiser(address)":"92a77942","s_appraisers(uint256)":"6262a519","safeBatchTransferFrom(address,address,uint256[],uint256[],bytes)":"2eb2c2d6","safeTransferFrom(address,address,uint256,uint256,bytes)":"f242432a","setAppraiserPrice(uint256,uint256,uint256)":"86531975","setApprovalForAll(address,bool)":"a22cb465","setAutomationForwarder(address)":"d40d17bc","setIssuer(address)":"55cc4e57","setOraclePrice(uint256,uint256,uint256)":"8ffc6597","setPool(uint256,address)":"f3a6ee40","supportsInterface(bytes4)":"01ffc9a7","totalSupply()":"18160ddd","totalSupply(uint256)":"bd85b039","transferOwnership(address)":"f2fde38b","updatePriceDetails(string,uint64,uint32,bytes32)":"a843a0ab","uri(uint256)":"0e89341c"},"id":52}