{"abi":[{"type":"constructor","inputs":[{"name":"uri_","type":"string","internalType":"string"},{"name":"functionsRouterAddress","type":"address","internalType":"address"}],"stateMutability":"nonpayable"},{"type":"function","name":"APPRAISAL_LOCK_TIME","inputs":[],"outputs":[{"name":"","type":"uint256","internalType":"uint256"}],"stateMutability":"view"},{"type":"function","name":"APPRAISAL_WEIGHT","inputs":[],"outputs":[{"name":"","type":"uint256","internalType":"uint256"}],"stateMutability":"view"},{"type":"function","name":"ORACLE_WEIGHT","inputs":[],"outputs":[{"name":"","type":"uint256","internalType":"uint256"}],"stateMutability":"view"},{"type":"function","name":"acceptOwnership","inputs":[],"outputs":[],"stateMutability":"nonpayable"},{"type":"function","name":"balanceOf","inputs":[{"name":"account","type":"address","internalType":"address"},{"name":"id","type":"uint256","internalType":"uint256"}],"outputs":[{"name":"","type":"uint256","internalType":"uint256"}],"stateMutability":"view"},{"type":"function","name":"balanceOfBatch","inputs":[{"name":"accounts","type":"address[]","internalType":"address[]"},{"name":"ids","type":"uint256[]","internalType":"uint256[]"}],"outputs":[{"name":"","type":"uint256[]","internalType":"uint256[]"}],"stateMutability":"view"},{"type":"function","name":"burn","inputs":[{"name":"account","type":"address","internalType":"address"},{"name":"id","type":"uint256","internalType":"uint256"},{"name":"amount","type":"uint256","internalType":"uint256"}],"outputs":[],"stateMutability":"nonpayable"},{"type":"function","name":"exists","inputs":[{"name":"id","type":"uint256","internalType":"uint256"}],"outputs":[{"name":"","type":"bool","internalType":"bool"}],"stateMutability":"view"},{"type":"function","name":"getAppraisalCount","inputs":[{"name":"tokenId","type":"uint256","internalType":"uint256"},{"name":"epochId","type":"uint256","internalType":"uint256"}],"outputs":[{"name":"count","type":"uint256","internalType":"uint256"}],"stateMutability":"view"},{"type":"function","name":"getEpochPrice","inputs":[{"name":"tokenId","type":"uint256","internalType":"uint256"},{"name":"epochId","type":"uint256","internalType":"uint256"}],"outputs":[{"name":"price","type":"uint256","internalType":"uint256"}],"stateMutability":"view"},{"type":"function","name":"getOraclePrice","inputs":[{"name":"tokenId","type":"uint256","internalType":"uint256"},{"name":"epochId","type":"uint256","internalType":"uint256"}],"outputs":[{"name":"oraclePrice","type":"uint256","internalType":"uint256"}],"stateMutability":"view"},{"type":"function","name":"getPrice","inputs":[],"outputs":[{"name":"","type":"string","internalType":"string"}],"stateMutability":"view"},{"type":"function","name":"getRewardShare","inputs":[{"name":"appraiser","type":"address","internalType":"address"},{"name":"tokenId","type":"uint256","internalType":"uint256"},{"name":"epochId","type":"uint256","internalType":"uint256"}],"outputs":[{"name":"","type":"uint256","internalType":"uint256"}],"stateMutability":"view"},{"type":"function","name":"handleOracleFulfillment","inputs":[{"name":"requestId","type":"bytes32","internalType":"bytes32"},{"name":"response","type":"bytes","internalType":"bytes"},{"name":"err","type":"bytes","internalType":"bytes"}],"outputs":[],"stateMutability":"nonpayable"},{"type":"function","name":"isAppraiser","inputs":[{"name":"appraiser","type":"address","internalType":"address"}],"outputs":[{"name":"","type":"bool","internalType":"bool"}],"stateMutability":"view"},{"type":"function","name":"isApprovedForAll","inputs":[{"name":"account","type":"address","internalType":"address"},{"name":"operator","type":"address","internalType":"address"}],"outputs":[{"name":"","type":"bool","internalType":"bool"}],"stateMutability":"view"},{"type":"function","name":"mint","inputs":[{"name":"_to","type":"address","internalType":"address"},{"name":"_id","type":"uint256","internalType":"uint256"},{"name":"_amount","type":"uint256","internalType":"uint256"},{"name":"_data","type":"bytes","internalType":"bytes"},{"name":"_tokenUri","type":"string","internalType":"string"}],"outputs":[],"stateMutability":"nonpayable"},{"type":"function","name":"mintBatch","inputs":[{"name":"_to","type":"address","internalType":"address"},{"name":"_ids","type":"uint256[]","internalType":"uint256[]"},{"name":"_amounts","type":"uint256[]","internalType":"uint256[]"},{"name":"_data","type":"bytes","internalType":"bytes"},{"name":"_tokenUris","type":"string[]","internalType":"string[]"}],"outputs":[],"stateMutability":"nonpayable"},{"type":"function","name":"owner","inputs":[],"outputs":[{"name":"","type":"address","internalType":"address"}],"stateMutability":"view"},{"type":"function","name":"registerAppraiser","inputs":[{"name":"appraiser","type":"address","internalType":"address"}],"outputs":[],"stateMutability":"nonpayable"},{"type":"function","name":"removeAppraiser","inputs":[{"name":"appraiser","type":"address","internalType":"address"}],"outputs":[],"stateMutability":"nonpayable"},{"type":"function","name":"s_appraisers","inputs":[{"name":"","type":"uint256","internalType":"uint256"}],"outputs":[{"name":"","type":"address","internalType":"address"}],"stateMutability":"view"},{"type":"function","name":"safeBatchTransferFrom","inputs":[{"name":"from","type":"address","internalType":"address"},{"name":"to","type":"address","internalType":"address"},{"name":"ids","type":"uint256[]","internalType":"uint256[]"},{"name":"values","type":"uint256[]","internalType":"uint256[]"},{"name":"data","type":"bytes","internalType":"bytes"}],"outputs":[],"stateMutability":"nonpayable"},{"type":"function","name":"safeTransferFrom","inputs":[{"name":"from","type":"address","internalType":"address"},{"name":"to","type":"address","internalType":"address"},{"name":"id","type":"uint256","internalType":"uint256"},{"name":"value","type":"uint256","internalType":"uint256"},{"name":"data","type":"bytes","internalType":"bytes"}],"outputs":[],"stateMutability":"nonpayable"},{"type":"function","name":"setAppraiserPrice","inputs":[{"name":"tokenId","type":"uint256","internalType":"uint256"},{"name":"epochId","type":"uint256","internalType":"uint256"},{"name":"appraisal","type":"uint256","internalType":"uint256"}],"outputs":[],"stateMutability":"nonpayable"},{"type":"function","name":"setApprovalForAll","inputs":[{"name":"operator","type":"address","internalType":"address"},{"name":"approved","type":"bool","internalType":"bool"}],"outputs":[],"stateMutability":"nonpayable"},{"type":"function","name":"setAutomationForwarder","inputs":[{"name":"automationForwarderAddress","type":"address","internalType":"address"}],"outputs":[],"stateMutability":"nonpayable"},{"type":"function","name":"setIssuer","inputs":[{"name":"_issuer","type":"address","internalType":"address"}],"outputs":[],"stateMutability":"nonpayable"},{"type":"function","name":"setOraclePrice","inputs":[{"name":"tokenId","type":"uint256","internalType":"uint256"},{"name":"epochId","type":"uint256","internalType":"uint256"},{"name":"value","type":"uint256","internalType":"uint256"}],"outputs":[],"stateMutability":"nonpayable"},{"type":"function","name":"setPool","inputs":[{"name":"pool","type":"address","internalType":"address"}],"outputs":[],"stateMutability":"nonpayable"},{"type":"function","name":"supportsInterface","inputs":[{"name":"interfaceId","type":"bytes4","internalType":"bytes4"}],"outputs":[{"name":"","type":"bool","internalType":"bool"}],"stateMutability":"view"},{"type":"function","name":"totalSupply","inputs":[],"outputs":[{"name":"","type":"uint256","internalType":"uint256"}],"stateMutability":"view"},{"type":"function","name":"totalSupply","inputs":[{"name":"id","type":"uint256","internalType":"uint256"}],"outputs":[{"name":"","type":"uint256","internalType":"uint256"}],"stateMutability":"view"},{"type":"function","name":"transferOwnership","inputs":[{"name":"to","type":"address","internalType":"address"}],"outputs":[],"stateMutability":"nonpayable"},{"type":"function","name":"updatePriceDetails","inputs":[{"name":"tokenId","type":"string","internalType":"string"},{"name":"subscriptionId","type":"uint64","internalType":"uint64"},{"name":"gasLimit","type":"uint32","internalType":"uint32"},{"name":"donID","type":"bytes32","internalType":"bytes32"}],"outputs":[{"name":"requestId","type":"bytes32","internalType":"bytes32"}],"stateMutability":"nonpayable"},{"type":"function","name":"uri","inputs":[{"name":"tokenId","type":"uint256","internalType":"uint256"}],"outputs":[{"name":"","type":"string","internalType":"string"}],"stateMutability":"view"},{"type":"event","name":"ApprovalForAll","inputs":[{"name":"account","type":"address","indexed":true,"internalType":"address"},{"name":"operator","type":"address","indexed":true,"internalType":"address"},{"name":"approved","type":"bool","indexed":false,"internalType":"bool"}],"anonymous":false},{"type":"event","name":"OwnershipTransferRequested","inputs":[{"name":"from","type":"address","indexed":true,"internalType":"address"},{"name":"to","type":"address","indexed":true,"internalType":"address"}],"anonymous":false},{"type":"event","name":"OwnershipTransferred","inputs":[{"name":"from","type":"address","indexed":true,"internalType":"address"},{"name":"to","type":"address","indexed":true,"internalType":"address"}],"anonymous":false},{"type":"event","name":"RequestFulfilled","inputs":[{"name":"id","type":"bytes32","indexed":true,"internalType":"bytes32"}],"anonymous":false},{"type":"event","name":"RequestSent","inputs":[{"name":"id","type":"bytes32","indexed":true,"internalType":"bytes32"}],"anonymous":false},{"type":"event","name":"SetIssuer","inputs":[{"name":"issuer","type":"address","indexed":true,"internalType":"address"}],"anonymous":false},{"type":"event","name":"TransferBatch","inputs":[{"name":"operator","type":"address","indexed":true,"internalType":"address"},{"name":"from","type":"address","indexed":true,"internalType":"address"},{"name":"to","type":"address","indexed":true,"internalType":"address"},{"name":"ids","type":"uint256[]","indexed":false,"internalType":"uint256[]"},{"name":"values","type":"uint256[]","indexed":false,"internalType":"uint256[]"}],"anonymous":false},{"type":"event","name":"TransferSingle","inputs":[{"name":"operator","type":"address","indexed":true,"internalType":"address"},{"name":"from","type":"address","indexed":true,"internalType":"address"},{"name":"to","type":"address","indexed":true,"internalType":"address"},{"name":"id","type":"uint256","indexed":false,"internalType":"uint256"},{"name":"value","type":"uint256","indexed":false,"internalType":"uint256"}],"anonymous":false},{"type":"event","name":"URI","inputs":[{"name":"value","type":"string","indexed":false,"internalType":"string"},{"name":"id","type":"uint256","indexed":true,"internalType":"uint256"}],"anonymous":false},{"type":"error","name":"AppraisalAlreadySet","inputs":[]},{"type":"error","name":"AppraisalLockTill","inputs":[{"name":"","type":"uint256","internalType":"uint256"}]},{"type":"error","name":"AppraiserNotAllowed","inputs":[{"name":"","type":"address","internalType":"address"}]},{"type":"error","name":"ERC1155Core_CallerIsNotIssuerOrItself","inputs":[{"name":"msgSender","type":"address","internalType":"address"}]},{"type":"error","name":"ERC1155Core_CallerIsNotIssuerOrOwner","inputs":[{"name":"msgSender","type":"address","internalType":"address"}]},{"type":"error","name":"ERC1155InsufficientBalance","inputs":[{"name":"sender","type":"address","internalType":"address"},{"name":"balance","type":"uint256","internalType":"uint256"},{"name":"needed","type":"uint256","internalType":"uint256"},{"name":"tokenId","type":"uint256","internalType":"uint256"}]},{"type":"error","name":"ERC1155InvalidApprover","inputs":[{"name":"approver","type":"address","internalType":"address"}]},{"type":"error","name":"ERC1155InvalidArrayLength","inputs":[{"name":"idsLength","type":"uint256","internalType":"uint256"},{"name":"valuesLength","type":"uint256","internalType":"uint256"}]},{"type":"error","name":"ERC1155InvalidOperator","inputs":[{"name":"operator","type":"address","internalType":"address"}]},{"type":"error","name":"ERC1155InvalidReceiver","inputs":[{"name":"receiver","type":"address","internalType":"address"}]},{"type":"error","name":"ERC1155InvalidSender","inputs":[{"name":"sender","type":"address","internalType":"address"}]},{"type":"error","name":"ERC1155MissingApprovalForAll","inputs":[{"name":"operator","type":"address","internalType":"address"},{"name":"owner","type":"address","internalType":"address"}]},{"type":"error","name":"EmptyArgs","inputs":[]},{"type":"error","name":"EmptySource","inputs":[]},{"type":"error","name":"NoInlineSecrets","inputs":[]},{"type":"error","name":"OnlyAutomationForwarderOrOwnerCanCall","inputs":[]},{"type":"error","name":"OnlyRouterCanFulfill","inputs":[]},{"type":"error","name":"PoolNotSet","inputs":[]}],"bytecode":{"object":"0x61020060405261012360a0818152906200386160c03960099062000024908262000277565b503480156200003257600080fd5b506040516200398438038062003984833981016040819052620000559162000360565b8080833380600083620000688162000112565b506001600160a01b038216620000c55760405162461bcd60e51b815260206004820152601860248201527f43616e6e6f7420736574206f776e657220746f207a65726f000000000000000060448201526064015b60405180910390fd5b600580546001600160a01b0319166001600160a01b0384811691909117909155811615620000f857620000f88162000124565b505050506001600160a01b03166080525062000448915050565b600262000120828262000277565b5050565b336001600160a01b038216036200017e5760405162461bcd60e51b815260206004820152601760248201527f43616e6e6f74207472616e7366657220746f2073656c660000000000000000006044820152606401620000bc565b600680546001600160a01b0319166001600160a01b03838116918217909255600554604051919216907fed8889f560326eb138920d842192f0eb3dd22b4f139c87a2c57538e05bae127890600090a350565b634e487b7160e01b600052604160045260246000fd5b600181811c90821680620001fb57607f821691505b6020821081036200021c57634e487b7160e01b600052602260045260246000fd5b50919050565b601f82111562000272576000816000526020600020601f850160051c810160208610156200024d5750805b601f850160051c820191505b818110156200026e5782815560010162000259565b5050505b505050565b81516001600160401b03811115620002935762000293620001d0565b620002ab81620002a48454620001e6565b8462000222565b602080601f831160018114620002e35760008415620002ca5750858301515b600019600386901b1c1916600185901b1785556200026e565b600085815260208120601f198616915b828110156200031457888601518255948401946001909101908401620002f3565b5085821015620003335787850151600019600388901b60f8161c191681555b5050505050600190811b01905550565b80516001600160a01b03811681146200035b57600080fd5b919050565b600080604083850312156200037457600080fd5b82516001600160401b03808211156200038c57600080fd5b818501915085601f830112620003a157600080fd5b815181811115620003b657620003b6620001d0565b604051601f8201601f19908116603f01168101908382118183101715620003e157620003e1620001d0565b81604052828152602093508884848701011115620003fe57600080fd5b600091505b8282101562000422578482018401518183018501529083019062000403565b60008484830101528096505050506200043d81860162000343565b925050509250929050565b6080516133f66200046b600039600081816106fd01526118a901526133f66000f3fe608060405234801561001057600080fd5b506004361061021b5760003560e01c80638653197511610125578063bd85b039116100ad578063e34236051161007c578063e3423605146104c5578063e985e9c5146104d8578063f242432a146104eb578063f2fde38b146104fe578063f5298aca1461051157600080fd5b8063bd85b03914610453578063c1341c4f14610473578063c4c66d7f14610486578063d40d17bc146104b257600080fd5b806392a77942116100f457806392a77942146103ff57806398d5fdca14610412578063a22cb4651461041a578063a843a0ab1461042d578063b942f8cb1461044057600080fd5b806386531975146103c85780638863af94146103c05780638da5cb5b146103db5780638ffc6597146103ec57600080fd5b8063491baf80116101a85780635fa48e17116101775780635fa48e171461035a5780636262a519146103625780636efea1c61461038d57806379ba5097146103b857806381c61fab146103c057600080fd5b8063491baf80146102f25780634e1273f4146103055780634f558e791461032557806355cc4e571461034757600080fd5b80630e89341c116101ef5780630e89341c14610291578063145a007a146102b157806318160ddd146102c45780632eb2c2d6146102cc5780634437152a146102df57600080fd5b8062fdd58e1461022057806301ffc9a7146102465780630924a321146102695780630ca761751461027c575b600080fd5b61023361022e3660046126d3565b610524565b6040519081526020015b60405180910390f35b610259610254366004612715565b61054c565b604051901515815260200161023d565b610233610277366004612732565b61059c565b61028f61028a36600461282a565b6106f2565b005b6102a461029f366004612896565b610776565b60405161023d91906128ff565b6102336102bf366004612912565b61082b565b600454610233565b61028f6102da3660046129c1565b6108b8565b61028f6102ed366004612a6e565b610924565b61028f610300366004612a6e565b610981565b610318610313366004612a8b565b6109ef565b60405161023d9190612b88565b610259610333366004612896565b600090815260036020526040902054151590565b61028f610355366004612a6e565b610abb565b610233604681565b610375610370366004612896565b610b0d565b6040516001600160a01b03909116815260200161023d565b61023361039b366004612912565b6000918252600e6020908152604080842092845291905290205490565b61028f610b37565b610233601e81565b61028f6103d6366004612b9b565b610be5565b6005546001600160a01b0316610375565b61028f6103fa366004612b9b565b610d2d565b61028f61040d366004612a6e565b610df7565b6102a4610e20565b61028f610428366004612bc7565b610eae565b61023361043b366004612c05565b610ebd565b61028f61044e366004612c7f565b61102b565b610233610461366004612896565b60009081526003602052604090205490565b61028f610481366004612db2565b6110d9565b610259610494366004612a6e565b6001600160a01b03166000908152600c602052604090205460ff1690565b61028f6104c0366004612a6e565b611138565b6102336104d3366004612912565b611162565b6102596104e6366004612e0b565b6111ce565b61028f6104f9366004612e39565b6111fc565b61028f61050c366004612a6e565b61125b565b61028f61051f366004612732565b61126f565b6000818152602081815260408083206001600160a01b03861684529091529020545b92915050565b60006001600160e01b03198216636cdb3d1360e11b148061057d57506001600160e01b031982166303a24d0760e21b145b8061054657506301ffc9a760e01b6001600160e01b0319831614610546565b6000806105a9848461082b565b9050806000036105bd5760009150506106eb565b60006105c98585611162565b905060008060005b600d548110156106b1576000600d82815481106105f0576105f0612ea1565b60009182526020808320909101546001600160a01b0316808352600f825260408084208d855283528084208c855290925291205490915080156106a7576000868211610645576106408288612ecd565b61064f565b61064f8783612ecd565b905060008761066683670de0b6b3a7640000612ee0565b6106709190612f0d565b905061067c8188612f21565b96508c6001600160a01b0316846001600160a01b0316036106a4576106a18187612f21565b95505b50505b50506001016105d1565b50816000036106c75760009450505050506106eb565b816106da82670de0b6b3a7640000612ee0565b6106e49190612f0d565b9450505050505b9392505050565b336001600160a01b037f0000000000000000000000000000000000000000000000000000000000000000161461073b5760405163c6829f8360e01b815260040160405180910390fd5b610746838383611309565b60405183907f85e1543bf2f84fe80c6badbce3648c8539ad1df4d2b3d822938ca0538be727e690600090a2505050565b60008181526008602052604081208054606092919061079490612f34565b80601f01602080910402602001604051908101604052809291908181526020018280546107c090612f34565b801561080d5780601f106107e25761010080835404028352916020019161080d565b820191906000526020600020905b8154815290600101906020018083116107f057829003601f168201915b5050505050905060008151116105465761082683611365565b6106eb565b600080805b600d548110156108b0576000600d828154811061084f5761084f612ea1565b60009182526020808320909101546001600160a01b0316808352600f825260408084208a8552835280842089855290925291205490915080156108a6576108968185612f21565b9350846108a281612f6e565b9550505b5050600101610830565b505092915050565b336001600160a01b03861681148015906108d957506108d786826111ce565b155b1561090f5760405163711bec9160e11b81526001600160a01b038083166004830152871660248201526044015b60405180910390fd5b61091c86868686866113f9565b505050505050565b33301480159061093f57506007546001600160a01b03163314155b1561095f57604051637725137960e11b8152336004820152602401610906565b600a80546001600160a01b0319166001600160a01b0392909216919091179055565b610989611460565b6001600160a01b03166000818152600c60205260408120805460ff19166001908117909155600d805491820181559091527fd7b6990105719101dabeb77144f2a3385c8033acd3af97e9423a695e81ad1eb50180546001600160a01b0319169091179055565b60608151835114610a205781518351604051635b05999160e01b815260048101929092526024820152604401610906565b600083516001600160401b03811115610a3b57610a3b612767565b604051908082528060200260200182016040528015610a64578160200160208202803683370190505b50905060005b8451811015610ab357602080820286010151610a8e90602080840287010151610524565b828281518110610aa057610aa0612ea1565b6020908102919091010152600101610a6a565b509392505050565b610ac3611460565b600780546001600160a01b0319166001600160a01b0383169081179091556040517fd56ed7b1c1110348b1fbf418469f6fc4acc32d9b675e9e1e448cc19169a64ca090600090a250565b600d8181548110610b1d57600080fd5b6000918252602090912001546001600160a01b0316905081565b6006546001600160a01b03163314610b8a5760405162461bcd60e51b815260206004820152601660248201527526bab9ba10313290383937b837b9b2b21037bbb732b960511b6044820152606401610906565b600580546001600160a01b0319808216339081179093556006805490911690556040516001600160a01b03909116919082907f8be0079c531659141344cd1fd0a4f28419497f9722a3daafe3b4186f6b6457e090600090a350565b336000908152600c602052604090205460ff16610c1757604051635920257560e01b8152336004820152602401610906565b600a546001600160a01b0316610c4057604051633c67586360e01b815260040160405180910390fd5b600a5460408051630eaf323560e31b815281516000936001600160a01b03169263757991a892600480820193918290030181865afa158015610c86573d6000803e3d6000fd5b505050506040513d601f19601f82011682018060405250810190610caa9190612f87565b9150610cb99050601e82612ecd565b4210610cdb576040516332d6f2a360e21b815260048101829052602401610906565b336000908152600f60209081526040808320878452825280832086845290915290205415610d1c576040516310b53edf60e21b815260040160405180910390fd5b610d278484846114b5565b50505050565b306001600160a01b0316638da5cb5b6040518163ffffffff1660e01b8152600401602060405180830381865afa158015610d6b573d6000803e3d6000fd5b505050506040513d601f19601f82011682018060405250810190610d8f9190612fab565b6001600160a01b0316336001600160a01b031614158015610dbb57506007546001600160a01b03163314155b15610ddb57604051634996a0cb60e01b8152336004820152602401610906565b6000928352600e60209081526040808520938552929052912055565b610dff611460565b6001600160a01b03166000908152600c60205260409020805460ff19169055565b60098054610e2d90612f34565b80601f0160208091040260200160405190810160405280929190818152602001828054610e5990612f34565b8015610ea65780601f10610e7b57610100808354040283529160200191610ea6565b820191906000526020600020905b815481529060010190602001808311610e8957829003601f168201915b505050505081565b610eb933838361150f565b5050565b600b546000906001600160a01b03163314801590610ee657506005546001600160a01b03163314155b15610f04576040516302dc7d2f60e21b815260040160405180910390fd5b610f456040805160e0810190915280600081526020016000815260200160008152602001606081526020016060815260200160608152602001606081525090565b610fb5306001600160a01b03166398d5fdca6040518163ffffffff1660e01b8152600401600060405180830381865afa158015610f86573d6000803e3d6000fd5b505050506040513d6000823e601f3d908101601f19168201604052610fae9190810190612fc8565b82906115a5565b604080516001808252818301909252600091816020015b6060815260200190600190039081610fcc5790505090508681600081518110610ff757610ff7612ea1565b602090810291909101015261100c82826115b2565b611020611018836115dc565b8787876118a4565b979650505050505050565b33301480159061104657506007546001600160a01b03163314155b1561106657604051637725137960e11b8152336004820152602401610906565b61107285858585611976565b60005b845181101561091c5781818151811061109057611090612ea1565b6020026020010151600860008784815181106110ae576110ae612ea1565b6020026020010151815260200190815260200160002090816110d0919061307d565b50600101611075565b3330148015906110f457506007546001600160a01b03163314155b1561111457604051637725137960e11b8152336004820152602401610906565b611120858585856119ae565b600084815260086020526040902061091c828261307d565b611140611460565b600b80546001600160a01b0319166001600160a01b0392909216919091179055565b6000828152600e60209081526040808320848452909152812054816111878585611a0b565b905080600003611199578192506108b0565b60646111a682601e612ee0565b6111b1846046612ee0565b6111bb9190612f21565b6111c59190612f0d565b95945050505050565b6001600160a01b03918216600090815260016020908152604080832093909416825291909152205460ff1690565b336001600160a01b038616811480159061121d575061121b86826111ce565b155b1561124e5760405163711bec9160e11b81526001600160a01b03808316600483015287166024820152604401610906565b61091c8686868686611aaf565b611263611460565b61126c81611b3d565b50565b33301480159061128a57506007546001600160a01b03163314155b156112aa57604051637725137960e11b8152336004820152602401610906565b6001600160a01b03831633148015906112ca57506112c883336111ce565b155b156112f95760405163711bec9160e11b81523360048201526001600160a01b0384166024820152604401610906565b611304838383611be7565b505050565b80511561132a578060405162461bcd60e51b815260040161090691906128ff565b600080600084806020019051810190611343919061313c565b6000928352600e60209081526040808520938552929052912055505050505050565b60606002805461137490612f34565b80601f01602080910402602001604051908101604052809291908181526020018280546113a090612f34565b80156113ed5780601f106113c2576101008083540402835291602001916113ed565b820191906000526020600020905b8154815290600101906020018083116113d057829003601f168201915b50505050509050919050565b6001600160a01b03841661142357604051632bfa23e760e11b815260006004820152602401610906565b6001600160a01b03851661144c57604051626a0d4560e21b815260006004820152602401610906565b6114598585858585611c4b565b5050505050565b6005546001600160a01b031633146114b35760405162461bcd60e51b815260206004820152601660248201527527b7363c9031b0b63630b1363290313c9037bbb732b960511b6044820152606401610906565b565b336000908152600c602052604090205460ff166114e757604051635920257560e01b8152336004820152602401610906565b336000908152600f602090815260408083209583529481528482209382529290925291902055565b6001600160a01b0382166115385760405162ced3e160e81b815260006004820152602401610906565b6001600160a01b03838116600081815260016020908152604080832094871680845294825291829020805460ff191686151590811790915591519182527f17307eab39ab6107e8899845ad3d59bd9653f200f220920489ca2b5937696c31910160405180910390a3505050565b610eb98260008084611c9e565b80516000036115d45760405163fe936cb760e01b815260040160405180910390fd5b60a090910152565b606060006115eb610100611d1c565b90506116246040518060400160405280600c81526020016b31b7b232a637b1b0ba34b7b760a11b81525082611d3d90919063ffffffff16565b825161164290600281111561163b5761163b61316a565b8290611d56565b6040805180820190915260088152676c616e677561676560c01b602082015261166c908290611d3d565b604083015161168390801561163b5761163b61316a565b604080518082019091526006815265736f7572636560d01b60208201526116ab908290611d3d565b60608301516116bb908290611d3d565b60a08301515115611747576040805180820190915260048152636172677360e01b60208201526116ec908290611d3d565b6116f581611d8f565b60005b8360a001515181101561173d576117358460a00151828151811061171e5761171e612ea1565b602002602001015183611d3d90919063ffffffff16565b6001016116f8565b5061174781611db3565b6080830151511561180b5760008360200151600281111561176a5761176a61316a565b036117885760405163a80d31f760e01b815260040160405180910390fd5b60408051808201909152600f81526e39b2b1b932ba39a637b1b0ba34b7b760891b60208201526117b9908290611d3d565b6117d28360200151600281111561163b5761163b61316a565b6040805180820190915260078152667365637265747360c81b60208201526117fb908290611d3d565b608083015161180b908290611dd1565b60c0830151511561189c5760408051808201909152600981526862797465734172677360b81b6020820152611841908290611d3d565b61184a81611d8f565b60005b8360c00151518110156118925761188a8460c00151828151811061187357611873612ea1565b602002602001015183611dd190919063ffffffff16565b60010161184d565b5061189c81611db3565b515192915050565b6000807f00000000000000000000000000000000000000000000000000000000000000006001600160a01b031663461d27628688600188886040518663ffffffff1660e01b81526004016118fc959493929190613180565b6020604051808303816000875af115801561191b573d6000803e3d6000fd5b505050506040513d601f19601f8201168201806040525081019061193f91906131c9565b60405190915081907f1131472297a800fee664d1d89cfa8f7676ff07189ecc53f80bbb5f4969099db890600090a295945050505050565b6001600160a01b0384166119a057604051632bfa23e760e11b815260006004820152602401610906565b610d27600085858585611c4b565b6001600160a01b0384166119d857604051632bfa23e760e11b815260006004820152602401610906565b6040805160018082526020820186905281830190815260608201859052608082019092529061091c600087848487611c4b565b60008080805b600d54811015611a91576000600d8281548110611a3057611a30612ea1565b60009182526020808320909101546001600160a01b0316808352600f825260408084208b855283528084208a85529092529120549091508015611a8757611a778186612f21565b945083611a8381612f6e565b9450505b5050600101611a11565b5080600003611aa557600092505050610546565b6111c58183612f0d565b6001600160a01b038416611ad957604051632bfa23e760e11b815260006004820152602401610906565b6001600160a01b038516611b0257604051626a0d4560e21b815260006004820152602401610906565b60408051600180825260208201869052818301908152606082018590526080820190925290611b348787848487611c4b565b50505050505050565b336001600160a01b03821603611b955760405162461bcd60e51b815260206004820152601760248201527f43616e6e6f74207472616e7366657220746f2073656c660000000000000000006044820152606401610906565b600680546001600160a01b0319166001600160a01b03838116918217909255600554604051919216907fed8889f560326eb138920d842192f0eb3dd22b4f139c87a2c57538e05bae127890600090a350565b6001600160a01b038316611c1057604051626a0d4560e21b815260006004820152602401610906565b604080516001808252602082018590528183019081526060820184905260a08201909252600060808201818152919291611459918791859085905b611c5785858585611dde565b6001600160a01b038416156114595782513390600103611c905760208481015190840151611c89838989858589611eca565b505061091c565b61091c818787878787611fee565b8051600003611cc0576040516322ce3edd60e01b815260040160405180910390fd5b83836002811115611cd357611cd361316a565b90816002811115611ce657611ce661316a565b90525060408401828015611cfc57611cfc61316a565b90818015611d0c57611d0c61316a565b9052506060909301929092525050565b611d24612689565b8051611d3090836120d7565b5060006020820152919050565b611d4a826003835161214e565b81516113049082612267565b8151611d639060c2612288565b50610eb98282604051602001611d7b91815260200190565b604051602081830303815290604052611dd1565b611d9a8160046122f1565b600181602001818151611dad9190612f21565b90525050565b611dbe8160076122f1565b600181602001818151611dad9190612ecd565b611d4a826002835161214e565b611dea84848484612308565b6001600160a01b038416611e6a576000805b8351811015611e505760208181028481018201519086018201516000908152600390925260408220805491928392611e35908490612f21565b90915550611e4590508184612f21565b925050600101611dfc565b508060046000828254611e639190612f21565b9091555050505b6001600160a01b038316610d27576000805b8351811015611eb9576020818102848101820151908601820151600090815260039092526040909120805482900390559190910190600101611e7c565b506004805491909103905550505050565b6001600160a01b0384163b1561091c5760405163f23a6e6160e01b81526001600160a01b0385169063f23a6e6190611f0e90899089908890889088906004016131e2565b6020604051808303816000875af1925050508015611f49575060408051601f3d908101601f19168201909252611f469181019061321c565b60015b611fb2573d808015611f77576040519150601f19603f3d011682016040523d82523d6000602084013e611f7c565b606091505b508051600003611faa57604051632bfa23e760e11b81526001600160a01b0386166004820152602401610906565b805181602001fd5b6001600160e01b0319811663f23a6e6160e01b14611b3457604051632bfa23e760e11b81526001600160a01b0386166004820152602401610906565b6001600160a01b0384163b1561091c5760405163bc197c8160e01b81526001600160a01b0385169063bc197c81906120329089908990889088908890600401613239565b6020604051808303816000875af192505050801561206d575060408051601f3d908101601f1916820190925261206a9181019061321c565b60015b61209b573d808015611f77576040519150601f19603f3d011682016040523d82523d6000602084013e611f7c565b6001600160e01b0319811663bc197c8160e01b14611b3457604051632bfa23e760e11b81526001600160a01b0386166004820152602401610906565b6040805180820190915260608152600060208201526120f7602083613297565b1561211f57612107602083613297565b612112906020612ecd565b61211c9083612f21565b91505b60208084018390526040518085526000815290818401018181101561214357600080fd5b604052509192915050565b6017816001600160401b031611612174578251610d279060e0600585901b168317612288565b60ff816001600160401b0316116121b457825161219c906018611fe0600586901b1617612288565b508251610d27906001600160401b038316600161251c565b61ffff816001600160401b0316116121f55782516121dd906019611fe0600586901b1617612288565b508251610d27906001600160401b038316600261251c565b63ffffffff816001600160401b03161161223857825161222090601a611fe0600586901b1617612288565b508251610d27906001600160401b038316600461251c565b825161224f90601b611fe0600586901b1617612288565b508251610d27906001600160401b038316600861251c565b6040805180820190915260608152600060208201526106eb838384516125a1565b60408051808201909152606081526000602082015282515160006122ad826001612f21565b9050846020015182106122ce576122ce856122c9836002612ee0565b612672565b84516020838201018581535080518211156122e7578181525b5093949350505050565b815161130490601f611fe0600585901b1617612288565b80518251146123375781518151604051635b05999160e01b815260048101929092526024820152604401610906565b3360005b835181101561243d576020818102858101820151908501909101516001600160a01b038816156123ee576000828152602081815260408083206001600160a01b038c168452909152902054818110156123c7576040516303dee4c560e01b81526001600160a01b038a166004820152602481018290526044810183905260648101849052608401610906565b6000838152602081815260408083206001600160a01b038d16845290915290209082900390555b6001600160a01b03871615612433576000828152602081815260408083206001600160a01b038b1684529091528120805483929061242d908490612f21565b90915550505b505060010161233b565b5082516001036124be5760208301516000906020840151909150856001600160a01b0316876001600160a01b0316846001600160a01b03167fc3d58168c5ae7397731d063d5bbf3d657854427343f4c083240f7aacaa2d0f6285856040516124af929190918252602082015260400190565b60405180910390a45050611459565b836001600160a01b0316856001600160a01b0316826001600160a01b03167f4a39dc06d4c0dbc64b70af90fd698a233a518aa5d07e595d983b8c0526c8f7fb868660405161250d9291906132ab565b60405180910390a45050505050565b60408051808201909152606081526000602082015283515160006125408285612f21565b9050856020015181111561255d5761255d866122c9836002612ee0565b6000600161256d866101006133b4565b6125779190612ecd565b90508651828101878319825116178152508051831115612595578281525b50959695505050505050565b60408051808201909152606081526000602082015282518211156125c457600080fd5b83515160006125d38483612f21565b905085602001518111156125f0576125f0866122c9836002612ee0565b85518051838201602001916000918085111561260a578482525b505050602086015b6020861061264a5780518252612629602083612f21565b9150612636602082612f21565b9050612643602087612ecd565b9550612612565b51815160001960208890036101000a0190811690199190911617905250849150509392505050565b815161267e83836120d7565b50610d278382612267565b60405180604001604052806126b1604051806040016040528060608152602001600081525090565b8152602001600081525090565b6001600160a01b038116811461126c57600080fd5b600080604083850312156126e657600080fd5b82356126f1816126be565b946020939093013593505050565b6001600160e01b03198116811461126c57600080fd5b60006020828403121561272757600080fd5b81356106eb816126ff565b60008060006060848603121561274757600080fd5b8335612752816126be565b95602085013595506040909401359392505050565b634e487b7160e01b600052604160045260246000fd5b604051601f8201601f191681016001600160401b03811182821017156127a5576127a5612767565b604052919050565b60006001600160401b038211156127c6576127c6612767565b50601f01601f191660200190565b600082601f8301126127e557600080fd5b81356127f86127f3826127ad565b61277d565b81815284602083860101111561280d57600080fd5b816020850160208301376000918101602001919091529392505050565b60008060006060848603121561283f57600080fd5b8335925060208401356001600160401b038082111561285d57600080fd5b612869878388016127d4565b9350604086013591508082111561287f57600080fd5b5061288c868287016127d4565b9150509250925092565b6000602082840312156128a857600080fd5b5035919050565b60005b838110156128ca5781810151838201526020016128b2565b50506000910152565b600081518084526128eb8160208601602086016128af565b601f01601f19169290920160200192915050565b6020815260006106eb60208301846128d3565b6000806040838503121561292557600080fd5b50508035926020909101359150565b60006001600160401b0382111561294d5761294d612767565b5060051b60200190565b600082601f83011261296857600080fd5b813560206129786127f383612934565b8083825260208201915060208460051b87010193508684111561299a57600080fd5b602086015b848110156129b6578035835291830191830161299f565b509695505050505050565b600080600080600060a086880312156129d957600080fd5b85356129e4816126be565b945060208601356129f4816126be565b935060408601356001600160401b0380821115612a1057600080fd5b612a1c89838a01612957565b94506060880135915080821115612a3257600080fd5b612a3e89838a01612957565b93506080880135915080821115612a5457600080fd5b50612a61888289016127d4565b9150509295509295909350565b600060208284031215612a8057600080fd5b81356106eb816126be565b60008060408385031215612a9e57600080fd5b82356001600160401b0380821115612ab557600080fd5b818501915085601f830112612ac957600080fd5b81356020612ad96127f383612934565b82815260059290921b84018101918181019089841115612af857600080fd5b948201945b83861015612b1f578535612b10816126be565b82529482019490820190612afd565b96505086013592505080821115612b3557600080fd5b50612b4285828601612957565b9150509250929050565b60008151808452602080850194506020840160005b83811015612b7d57815187529582019590820190600101612b61565b509495945050505050565b6020815260006106eb6020830184612b4c565b600080600060608486031215612bb057600080fd5b505081359360208301359350604090920135919050565b60008060408385031215612bda57600080fd5b8235612be5816126be565b915060208301358015158114612bfa57600080fd5b809150509250929050565b60008060008060808587031215612c1b57600080fd5b84356001600160401b0380821115612c3257600080fd5b612c3e888389016127d4565b9550602087013591508082168214612c5557600080fd5b509250604085013563ffffffff81168114612c6f57600080fd5b9396929550929360600135925050565b600080600080600060a08688031215612c9757600080fd5b8535612ca2816126be565b94506020868101356001600160401b0380821115612cbf57600080fd5b612ccb8a838b01612957565b96506040890135915080821115612ce157600080fd5b612ced8a838b01612957565b95506060890135915080821115612d0357600080fd5b612d0f8a838b016127d4565b94506080890135915080821115612d2557600080fd5b818901915089601f830112612d3957600080fd5b8135612d476127f382612934565b81815260059190911b8301840190848101908c831115612d6657600080fd5b8585015b83811015612d9e57803585811115612d825760008081fd5b612d908f89838a01016127d4565b845250918601918601612d6a565b508096505050505050509295509295909350565b600080600080600060a08688031215612dca57600080fd5b8535612dd5816126be565b9450602086013593506040860135925060608601356001600160401b0380821115612dff57600080fd5b612a3e89838a016127d4565b60008060408385031215612e1e57600080fd5b8235612e29816126be565b91506020830135612bfa816126be565b600080600080600060a08688031215612e5157600080fd5b8535612e5c816126be565b94506020860135612e6c816126be565b9350604086013592506060860135915060808601356001600160401b03811115612e9557600080fd5b612a61888289016127d4565b634e487b7160e01b600052603260045260246000fd5b634e487b7160e01b600052601160045260246000fd5b8181038181111561054657610546612eb7565b808202811582820484141761054657610546612eb7565b634e487b7160e01b600052601260045260246000fd5b600082612f1c57612f1c612ef7565b500490565b8082018082111561054657610546612eb7565b600181811c90821680612f4857607f821691505b602082108103612f6857634e487b7160e01b600052602260045260246000fd5b50919050565b600060018201612f8057612f80612eb7565b5060010190565b60008060408385031215612f9a57600080fd5b505080516020909101519092909150565b600060208284031215612fbd57600080fd5b81516106eb816126be565b600060208284031215612fda57600080fd5b81516001600160401b03811115612ff057600080fd5b8201601f8101841361300157600080fd5b805161300f6127f3826127ad565b81815285602083850101111561302457600080fd5b6111c58260208301602086016128af565b601f821115611304576000816000526020600020601f850160051c8101602086101561305e5750805b601f850160051c820191505b8181101561091c5782815560010161306a565b81516001600160401b0381111561309657613096612767565b6130aa816130a48454612f34565b84613035565b602080601f8311600181146130df57600084156130c75750858301515b600019600386901b1c1916600185901b17855561091c565b600085815260208120601f198616915b8281101561310e578886015182559484019460019091019084016130ef565b508582101561312c5787850151600019600388901b60f8161c191681555b5050505050600190811b01905550565b60008060006060848603121561315157600080fd5b8351925060208401519150604084015190509250925092565b634e487b7160e01b600052602160045260246000fd5b6001600160401b038616815260a0602082015260006131a260a08301876128d3565b61ffff9590951660408301525063ffffffff92909216606083015260809091015292915050565b6000602082840312156131db57600080fd5b5051919050565b6001600160a01b03868116825285166020820152604081018490526060810183905260a060808201819052600090611020908301846128d3565b60006020828403121561322e57600080fd5b81516106eb816126ff565b6001600160a01b0386811682528516602082015260a06040820181905260009061326590830186612b4c565b82810360608401526132778186612b4c565b9050828103608084015261328b81856128d3565b98975050505050505050565b6000826132a6576132a6612ef7565b500690565b6040815260006132be6040830185612b4c565b82810360208401526111c58185612b4c565b600181815b8085111561330b5781600019048211156132f1576132f1612eb7565b808516156132fe57918102915b93841c93908002906132d5565b509250929050565b60008261332257506001610546565b8161332f57506000610546565b8160018114613345576002811461334f5761336b565b6001915050610546565b60ff84111561336057613360612eb7565b50506001821b610546565b5060208310610133831016604e8410600b841016171561338e575081810a610546565b61339883836132d0565b80600019048211156133ac576133ac612eb7565b029392505050565b60006106eb838361331356fea2646970667358221220d6443287bd759dbd8b684b3987b054ae310896ff7c1368e639d66666788cc4ca64736f6c63430008180033636f6e7374207b20657468657273207d203d20617761697420696d706f727428276e706d3a65746865727340362e31302e3027293b636f6e737420746f6b656e4964203d20617267735b305d3b636f6e73742065706f63684964203d20303b636f6e737420616269436f646572203d206574686572732e416269436f6465722e64656661756c74416269436f64657228293b636f6e737420656e636f646564203d20616269436f6465722e656e636f6465285b6075696e74323536602c206075696e74323536602c206075696e74323536605d2c205b746f6b656e49642c2065706f636849642c203130305d293b636f6e736f6c652e6c6f6728656e636f646564293b72657475726e206574686572732e676574427974657328656e636f646564293b","linkReferences":{}},"methodIdentifiers":{"APPRAISAL_LOCK_TIME()":"8863af94","APPRAISAL_WEIGHT()":"81c61fab","ORACLE_WEIGHT()":"5fa48e17","acceptOwnership()":"79ba5097","balanceOf(address,uint256)":"00fdd58e","balanceOfBatch(address[],uint256[])":"4e1273f4","burn(address,uint256,uint256)":"f5298aca","exists(uint256)":"4f558e79","getAppraisalCount(uint256,uint256)":"145a007a","getEpochPrice(uint256,uint256)":"e3423605","getOraclePrice(uint256,uint256)":"6efea1c6","getPrice()":"98d5fdca","getRewardShare(address,uint256,uint256)":"0924a321","handleOracleFulfillment(bytes32,bytes,bytes)":"0ca76175","isAppraiser(address)":"c4c66d7f","isApprovedForAll(address,address)":"e985e9c5","mint(address,uint256,uint256,bytes,string)":"c1341c4f","mintBatch(address,uint256[],uint256[],bytes,string[])":"b942f8cb","owner()":"8da5cb5b","registerAppraiser(address)":"491baf80","removeAppraiser(address)":"92a77942","s_appraisers(uint256)":"6262a519","safeBatchTransferFrom(address,address,uint256[],uint256[],bytes)":"2eb2c2d6","safeTransferFrom(address,address,uint256,uint256,bytes)":"f242432a","setAppraiserPrice(uint256,uint256,uint256)":"86531975","setApprovalForAll(address,bool)":"a22cb465","setAutomationForwarder(address)":"d40d17bc","setIssuer(address)":"55cc4e57","setOraclePrice(uint256,uint256,uint256)":"8ffc6597","setPool(address)":"4437152a","supportsInterface(bytes4)":"01ffc9a7","totalSupply()":"18160ddd","totalSupply(uint256)":"bd85b039","transferOwnership(address)":"f2fde38b","updatePriceDetails(string,uint64,uint32,bytes32)":"a843a0ab","uri(uint256)":"0e89341c"},"id":52}