{"abi":[{"type":"constructor","inputs":[{"name":"uri_","type":"string","internalType":"string"},{"name":"functionsRouterAddress","type":"address","internalType":"address"}],"stateMutability":"nonpayable"},{"type":"function","name":"APPRAISAL_LOCK_TIME","inputs":[],"outputs":[{"name":"","type":"uint256","internalType":"uint256"}],"stateMutability":"view"},{"type":"function","name":"APPRAISAL_WEIGHT","inputs":[],"outputs":[{"name":"","type":"uint256","internalType":"uint256"}],"stateMutability":"view"},{"type":"function","name":"ORACLE_WEIGHT","inputs":[],"outputs":[{"name":"","type":"uint256","internalType":"uint256"}],"stateMutability":"view"},{"type":"function","name":"acceptOwnership","inputs":[],"outputs":[],"stateMutability":"nonpayable"},{"type":"function","name":"balanceOf","inputs":[{"name":"account","type":"address","internalType":"address"},{"name":"id","type":"uint256","internalType":"uint256"}],"outputs":[{"name":"","type":"uint256","internalType":"uint256"}],"stateMutability":"view"},{"type":"function","name":"balanceOfBatch","inputs":[{"name":"accounts","type":"address[]","internalType":"address[]"},{"name":"ids","type":"uint256[]","internalType":"uint256[]"}],"outputs":[{"name":"","type":"uint256[]","internalType":"uint256[]"}],"stateMutability":"view"},{"type":"function","name":"burn","inputs":[{"name":"account","type":"address","internalType":"address"},{"name":"id","type":"uint256","internalType":"uint256"},{"name":"amount","type":"uint256","internalType":"uint256"}],"outputs":[],"stateMutability":"nonpayable"},{"type":"function","name":"exists","inputs":[{"name":"id","type":"uint256","internalType":"uint256"}],"outputs":[{"name":"","type":"bool","internalType":"bool"}],"stateMutability":"view"},{"type":"function","name":"getAppraisalCount","inputs":[{"name":"tokenId","type":"uint256","internalType":"uint256"},{"name":"epochId","type":"uint256","internalType":"uint256"}],"outputs":[{"name":"count","type":"uint256","internalType":"uint256"}],"stateMutability":"view"},{"type":"function","name":"getEpochPrice","inputs":[{"name":"tokenId","type":"uint256","internalType":"uint256"},{"name":"epochId","type":"uint256","internalType":"uint256"}],"outputs":[{"name":"price","type":"uint256","internalType":"uint256"}],"stateMutability":"view"},{"type":"function","name":"getPrice","inputs":[],"outputs":[{"name":"","type":"string","internalType":"string"}],"stateMutability":"view"},{"type":"function","name":"getRewardShare","inputs":[{"name":"appraiser","type":"address","internalType":"address"},{"name":"tokenId","type":"uint256","internalType":"uint256"},{"name":"epochId","type":"uint256","internalType":"uint256"}],"outputs":[{"name":"","type":"uint256","internalType":"uint256"}],"stateMutability":"view"},{"type":"function","name":"handleOracleFulfillment","inputs":[{"name":"requestId","type":"bytes32","internalType":"bytes32"},{"name":"response","type":"bytes","internalType":"bytes"},{"name":"err","type":"bytes","internalType":"bytes"}],"outputs":[],"stateMutability":"nonpayable"},{"type":"function","name":"isAppraiser","inputs":[{"name":"appraiser","type":"address","internalType":"address"}],"outputs":[{"name":"","type":"bool","internalType":"bool"}],"stateMutability":"view"},{"type":"function","name":"isApprovedForAll","inputs":[{"name":"account","type":"address","internalType":"address"},{"name":"operator","type":"address","internalType":"address"}],"outputs":[{"name":"","type":"bool","internalType":"bool"}],"stateMutability":"view"},{"type":"function","name":"mint","inputs":[{"name":"_to","type":"address","internalType":"address"},{"name":"_id","type":"uint256","internalType":"uint256"},{"name":"_amount","type":"uint256","internalType":"uint256"},{"name":"_data","type":"bytes","internalType":"bytes"},{"name":"_tokenUri","type":"string","internalType":"string"}],"outputs":[],"stateMutability":"nonpayable"},{"type":"function","name":"mintBatch","inputs":[{"name":"_to","type":"address","internalType":"address"},{"name":"_ids","type":"uint256[]","internalType":"uint256[]"},{"name":"_amounts","type":"uint256[]","internalType":"uint256[]"},{"name":"_data","type":"bytes","internalType":"bytes"},{"name":"_tokenUris","type":"string[]","internalType":"string[]"}],"outputs":[],"stateMutability":"nonpayable"},{"type":"function","name":"owner","inputs":[],"outputs":[{"name":"","type":"address","internalType":"address"}],"stateMutability":"view"},{"type":"function","name":"registerAppraiser","inputs":[{"name":"appraiser","type":"address","internalType":"address"}],"outputs":[],"stateMutability":"nonpayable"},{"type":"function","name":"removeAppraiser","inputs":[{"name":"appraiser","type":"address","internalType":"address"}],"outputs":[],"stateMutability":"nonpayable"},{"type":"function","name":"s_appraisers","inputs":[{"name":"","type":"uint256","internalType":"uint256"}],"outputs":[{"name":"","type":"address","internalType":"address"}],"stateMutability":"view"},{"type":"function","name":"safeBatchTransferFrom","inputs":[{"name":"from","type":"address","internalType":"address"},{"name":"to","type":"address","internalType":"address"},{"name":"ids","type":"uint256[]","internalType":"uint256[]"},{"name":"values","type":"uint256[]","internalType":"uint256[]"},{"name":"data","type":"bytes","internalType":"bytes"}],"outputs":[],"stateMutability":"nonpayable"},{"type":"function","name":"safeTransferFrom","inputs":[{"name":"from","type":"address","internalType":"address"},{"name":"to","type":"address","internalType":"address"},{"name":"id","type":"uint256","internalType":"uint256"},{"name":"value","type":"uint256","internalType":"uint256"},{"name":"data","type":"bytes","internalType":"bytes"}],"outputs":[],"stateMutability":"nonpayable"},{"type":"function","name":"setAppraiserPrice","inputs":[{"name":"tokenId","type":"uint256","internalType":"uint256"},{"name":"epochId","type":"uint256","internalType":"uint256"},{"name":"appraisal","type":"uint256","internalType":"uint256"}],"outputs":[],"stateMutability":"nonpayable"},{"type":"function","name":"setApprovalForAll","inputs":[{"name":"operator","type":"address","internalType":"address"},{"name":"approved","type":"bool","internalType":"bool"}],"outputs":[],"stateMutability":"nonpayable"},{"type":"function","name":"setAutomationForwarder","inputs":[{"name":"automationForwarderAddress","type":"address","internalType":"address"}],"outputs":[],"stateMutability":"nonpayable"},{"type":"function","name":"setIssuer","inputs":[{"name":"_issuer","type":"address","internalType":"address"}],"outputs":[],"stateMutability":"nonpayable"},{"type":"function","name":"setOraclePrice","inputs":[{"name":"tokenId","type":"uint256","internalType":"uint256"},{"name":"epochId","type":"uint256","internalType":"uint256"},{"name":"value","type":"uint256","internalType":"uint256"}],"outputs":[],"stateMutability":"nonpayable"},{"type":"function","name":"setPool","inputs":[{"name":"pool","type":"address","internalType":"address"}],"outputs":[],"stateMutability":"nonpayable"},{"type":"function","name":"supportsInterface","inputs":[{"name":"interfaceId","type":"bytes4","internalType":"bytes4"}],"outputs":[{"name":"","type":"bool","internalType":"bool"}],"stateMutability":"view"},{"type":"function","name":"totalSupply","inputs":[],"outputs":[{"name":"","type":"uint256","internalType":"uint256"}],"stateMutability":"view"},{"type":"function","name":"totalSupply","inputs":[{"name":"id","type":"uint256","internalType":"uint256"}],"outputs":[{"name":"","type":"uint256","internalType":"uint256"}],"stateMutability":"view"},{"type":"function","name":"transferOwnership","inputs":[{"name":"to","type":"address","internalType":"address"}],"outputs":[],"stateMutability":"nonpayable"},{"type":"function","name":"updatePriceDetails","inputs":[{"name":"tokenId","type":"string","internalType":"string"},{"name":"subscriptionId","type":"uint64","internalType":"uint64"},{"name":"gasLimit","type":"uint32","internalType":"uint32"},{"name":"donID","type":"bytes32","internalType":"bytes32"}],"outputs":[{"name":"requestId","type":"bytes32","internalType":"bytes32"}],"stateMutability":"nonpayable"},{"type":"function","name":"uri","inputs":[{"name":"tokenId","type":"uint256","internalType":"uint256"}],"outputs":[{"name":"","type":"string","internalType":"string"}],"stateMutability":"view"},{"type":"event","name":"ApprovalForAll","inputs":[{"name":"account","type":"address","indexed":true,"internalType":"address"},{"name":"operator","type":"address","indexed":true,"internalType":"address"},{"name":"approved","type":"bool","indexed":false,"internalType":"bool"}],"anonymous":false},{"type":"event","name":"OwnershipTransferRequested","inputs":[{"name":"from","type":"address","indexed":true,"internalType":"address"},{"name":"to","type":"address","indexed":true,"internalType":"address"}],"anonymous":false},{"type":"event","name":"OwnershipTransferred","inputs":[{"name":"from","type":"address","indexed":true,"internalType":"address"},{"name":"to","type":"address","indexed":true,"internalType":"address"}],"anonymous":false},{"type":"event","name":"RequestFulfilled","inputs":[{"name":"id","type":"bytes32","indexed":true,"internalType":"bytes32"}],"anonymous":false},{"type":"event","name":"RequestSent","inputs":[{"name":"id","type":"bytes32","indexed":true,"internalType":"bytes32"}],"anonymous":false},{"type":"event","name":"SetIssuer","inputs":[{"name":"issuer","type":"address","indexed":true,"internalType":"address"}],"anonymous":false},{"type":"event","name":"TransferBatch","inputs":[{"name":"operator","type":"address","indexed":true,"internalType":"address"},{"name":"from","type":"address","indexed":true,"internalType":"address"},{"name":"to","type":"address","indexed":true,"internalType":"address"},{"name":"ids","type":"uint256[]","indexed":false,"internalType":"uint256[]"},{"name":"values","type":"uint256[]","indexed":false,"internalType":"uint256[]"}],"anonymous":false},{"type":"event","name":"TransferSingle","inputs":[{"name":"operator","type":"address","indexed":true,"internalType":"address"},{"name":"from","type":"address","indexed":true,"internalType":"address"},{"name":"to","type":"address","indexed":true,"internalType":"address"},{"name":"id","type":"uint256","indexed":false,"internalType":"uint256"},{"name":"value","type":"uint256","indexed":false,"internalType":"uint256"}],"anonymous":false},{"type":"event","name":"URI","inputs":[{"name":"value","type":"string","indexed":false,"internalType":"string"},{"name":"id","type":"uint256","indexed":true,"internalType":"uint256"}],"anonymous":false},{"type":"error","name":"AppraisalAlreadySet","inputs":[]},{"type":"error","name":"AppraisalLockTill","inputs":[{"name":"","type":"uint256","internalType":"uint256"}]},{"type":"error","name":"AppraiserNotAllowed","inputs":[{"name":"","type":"address","internalType":"address"}]},{"type":"error","name":"ERC1155Core_CallerIsNotIssuerOrItself","inputs":[{"name":"msgSender","type":"address","internalType":"address"}]},{"type":"error","name":"ERC1155InsufficientBalance","inputs":[{"name":"sender","type":"address","internalType":"address"},{"name":"balance","type":"uint256","internalType":"uint256"},{"name":"needed","type":"uint256","internalType":"uint256"},{"name":"tokenId","type":"uint256","internalType":"uint256"}]},{"type":"error","name":"ERC1155InvalidApprover","inputs":[{"name":"approver","type":"address","internalType":"address"}]},{"type":"error","name":"ERC1155InvalidArrayLength","inputs":[{"name":"idsLength","type":"uint256","internalType":"uint256"},{"name":"valuesLength","type":"uint256","internalType":"uint256"}]},{"type":"error","name":"ERC1155InvalidOperator","inputs":[{"name":"operator","type":"address","internalType":"address"}]},{"type":"error","name":"ERC1155InvalidReceiver","inputs":[{"name":"receiver","type":"address","internalType":"address"}]},{"type":"error","name":"ERC1155InvalidSender","inputs":[{"name":"sender","type":"address","internalType":"address"}]},{"type":"error","name":"ERC1155MissingApprovalForAll","inputs":[{"name":"operator","type":"address","internalType":"address"},{"name":"owner","type":"address","internalType":"address"}]},{"type":"error","name":"EmptyArgs","inputs":[]},{"type":"error","name":"EmptySource","inputs":[]},{"type":"error","name":"NoInlineSecrets","inputs":[]},{"type":"error","name":"OnlyAutomationForwarderOrOwnerCanCall","inputs":[]},{"type":"error","name":"OnlyRouterCanFulfill","inputs":[]},{"type":"error","name":"PoolNotSet","inputs":[]}],"bytecode":{"object":"0x61020060405261012360a0818152906200379160c03960099062000024908262000277565b503480156200003257600080fd5b50604051620038b4380380620038b4833981016040819052620000559162000360565b8080833380600083620000688162000112565b506001600160a01b038216620000c55760405162461bcd60e51b815260206004820152601860248201527f43616e6e6f7420736574206f776e657220746f207a65726f000000000000000060448201526064015b60405180910390fd5b600580546001600160a01b0319166001600160a01b0384811691909117909155811615620000f857620000f88162000124565b505050506001600160a01b03166080525062000448915050565b600262000120828262000277565b5050565b336001600160a01b038216036200017e5760405162461bcd60e51b815260206004820152601760248201527f43616e6e6f74207472616e7366657220746f2073656c660000000000000000006044820152606401620000bc565b600680546001600160a01b0319166001600160a01b03838116918217909255600554604051919216907fed8889f560326eb138920d842192f0eb3dd22b4f139c87a2c57538e05bae127890600090a350565b634e487b7160e01b600052604160045260246000fd5b600181811c90821680620001fb57607f821691505b6020821081036200021c57634e487b7160e01b600052602260045260246000fd5b50919050565b601f82111562000272576000816000526020600020601f850160051c810160208610156200024d5750805b601f850160051c820191505b818110156200026e5782815560010162000259565b5050505b505050565b81516001600160401b03811115620002935762000293620001d0565b620002ab81620002a48454620001e6565b8462000222565b602080601f831160018114620002e35760008415620002ca5750858301515b600019600386901b1c1916600185901b1785556200026e565b600085815260208120601f198616915b828110156200031457888601518255948401946001909101908401620002f3565b5085821015620003335787850151600019600388901b60f8161c191681555b5050505050600190811b01905550565b80516001600160a01b03811681146200035b57600080fd5b919050565b600080604083850312156200037457600080fd5b82516001600160401b03808211156200038c57600080fd5b818501915085601f830112620003a157600080fd5b815181811115620003b657620003b6620001d0565b604051601f8201601f19908116603f01168101908382118183101715620003e157620003e1620001d0565b81604052828152602093508884848701011115620003fe57600080fd5b600091505b8282101562000422578482018401518183018501529083019062000403565b60008484830101528096505050506200043d81860162000343565b925050509250929050565b6080516133266200046b600039600081816106c7015261180001526133266000f3fe608060405234801561001057600080fd5b50600436106102105760003560e01c80638653197511610125578063bd85b039116100ad578063e34236051161007c578063e34236051461048f578063e985e9c5146104a2578063f242432a146104b5578063f2fde38b146104c8578063f5298aca146104db57600080fd5b8063bd85b0391461041d578063c1341c4f1461043d578063c4c66d7f14610450578063d40d17bc1461047c57600080fd5b806392a77942116100f457806392a77942146103c957806398d5fdca146103dc578063a22cb465146103e4578063a843a0ab146103f7578063b942f8cb1461040a57600080fd5b806386531975146103925780638863af941461038a5780638da5cb5b146103a55780638ffc6597146103b657600080fd5b80634437152a116101a857806355cc4e571161017757806355cc4e571461033c5780635fa48e171461034f5780636262a5191461035757806379ba50971461038257806381c61fab1461038a57600080fd5b80634437152a146102d4578063491baf80146102e75780634e1273f4146102fa5780634f558e791461031a57600080fd5b80630e89341c116101e45780630e89341c14610286578063145a007a146102a657806318160ddd146102b95780632eb2c2d6146102c157600080fd5b8062fdd58e1461021557806301ffc9a71461023b5780630924a3211461025e5780630ca7617514610271575b600080fd5b610228610223366004612631565b6104ee565b6040519081526020015b60405180910390f35b61024e610249366004612671565b610516565b6040519015158152602001610232565b61022861026c36600461268e565b610566565b61028461027f366004612784565b6106bc565b005b6102996102943660046127f0565b610740565b6040516102329190612859565b6102286102b436600461286c565b6107f5565b600454610228565b6102846102cf36600461291b565b610882565b6102846102e23660046129c4565b6108ee565b6102846102f53660046129c4565b61094b565b61030d6103083660046129df565b6109b9565b6040516102329190612ada565b61024e6103283660046127f0565b600090815260036020526040902054151590565b61028461034a3660046129c4565b610a85565b610228604681565b61036a6103653660046127f0565b610ad7565b6040516001600160a01b039091168152602001610232565b610284610b01565b610228601e81565b6102846103a0366004612aed565b610baf565b6005546001600160a01b031661036a565b6102846103c4366004612aed565b610cf7565b6102846103d73660046129c4565b610d4e565b610299610d77565b6102846103f2366004612b19565b610e05565b610228610405366004612b55565b610e14565b610284610418366004612bcf565b610f82565b61022861042b3660046127f0565b60009081526003602052604090205490565b61028461044b366004612d00565b611030565b61024e61045e3660046129c4565b6001600160a01b03166000908152600c602052604090205460ff1690565b61028461048a3660046129c4565b61108f565b61022861049d36600461286c565b6110b9565b61024e6104b0366004612d57565b611125565b6102846104c3366004612d8a565b611153565b6102846104d63660046129c4565b6111b2565b6102846104e936600461268e565b6111c6565b6000818152602081815260408083206001600160a01b03861684529091529020545b92915050565b60006001600160e01b03198216636cdb3d1360e11b148061054757506001600160e01b031982166303a24d0760e21b145b8061051057506301ffc9a760e01b6001600160e01b0319831614610510565b60008061057384846107f5565b9050806000036105875760009150506106b5565b600061059385856110b9565b905060008060005b600d5481101561067b576000600d82815481106105ba576105ba612dee565b60009182526020808320909101546001600160a01b0316808352600f825260408084208d855283528084208c8552909252912054909150801561067157600086821161060f5761060a8288612e1a565b610619565b6106198783612e1a565b905060008761063083670de0b6b3a7640000612e2d565b61063a9190612e5a565b90506106468188612e6e565b96508c6001600160a01b0316846001600160a01b03160361066e5761066b8187612e6e565b95505b50505b505060010161059b565b50816000036106915760009450505050506106b5565b816106a482670de0b6b3a7640000612e2d565b6106ae9190612e5a565b9450505050505b9392505050565b336001600160a01b037f000000000000000000000000000000000000000000000000000000000000000016146107055760405163c6829f8360e01b815260040160405180910390fd5b610710838383611260565b60405183907f85e1543bf2f84fe80c6badbce3648c8539ad1df4d2b3d822938ca0538be727e690600090a2505050565b60008181526008602052604081208054606092919061075e90612e81565b80601f016020809104026020016040519081016040528092919081815260200182805461078a90612e81565b80156107d75780601f106107ac576101008083540402835291602001916107d7565b820191906000526020600020905b8154815290600101906020018083116107ba57829003601f168201915b505050505090506000815111610510576107f0836112bc565b6106b5565b600080805b600d5481101561087a576000600d828154811061081957610819612dee565b60009182526020808320909101546001600160a01b0316808352600f825260408084208a855283528084208985529092529120549091508015610870576108608185612e6e565b93508461086c81612ebb565b9550505b50506001016107fa565b505092915050565b336001600160a01b03861681148015906108a357506108a18682611125565b155b156108d95760405163711bec9160e11b81526001600160a01b038083166004830152871660248201526044015b60405180910390fd5b6108e68686868686611350565b505050505050565b33301480159061090957506007546001600160a01b03163314155b1561092957604051637725137960e11b81523360048201526024016108d0565b600a80546001600160a01b0319166001600160a01b0392909216919091179055565b6109536113b7565b6001600160a01b03166000818152600c60205260408120805460ff19166001908117909155600d805491820181559091527fd7b6990105719101dabeb77144f2a3385c8033acd3af97e9423a695e81ad1eb50180546001600160a01b0319169091179055565b606081518351146109ea5781518351604051635b05999160e01b8152600481019290925260248201526044016108d0565b600083516001600160401b03811115610a0557610a056126c1565b604051908082528060200260200182016040528015610a2e578160200160208202803683370190505b50905060005b8451811015610a7d57602080820286010151610a58906020808402870101516104ee565b828281518110610a6a57610a6a612dee565b6020908102919091010152600101610a34565b509392505050565b610a8d6113b7565b600780546001600160a01b0319166001600160a01b0383169081179091556040517fd56ed7b1c1110348b1fbf418469f6fc4acc32d9b675e9e1e448cc19169a64ca090600090a250565b600d8181548110610ae757600080fd5b6000918252602090912001546001600160a01b0316905081565b6006546001600160a01b03163314610b545760405162461bcd60e51b815260206004820152601660248201527526bab9ba10313290383937b837b9b2b21037bbb732b960511b60448201526064016108d0565b600580546001600160a01b0319808216339081179093556006805490911690556040516001600160a01b03909116919082907f8be0079c531659141344cd1fd0a4f28419497f9722a3daafe3b4186f6b6457e090600090a350565b336000908152600c602052604090205460ff16610be157604051635920257560e01b81523360048201526024016108d0565b600a546001600160a01b0316610c0a57604051633c67586360e01b815260040160405180910390fd5b600a5460408051630eaf323560e31b815281516000936001600160a01b03169263757991a892600480820193918290030181865afa158015610c50573d6000803e3d6000fd5b505050506040513d601f19601f82011682018060405250810190610c749190612ed4565b9150610c839050601e82612e1a565b4210610ca5576040516332d6f2a360e21b8152600481018290526024016108d0565b336000908152600f60209081526040808320878452825280832086845290915290205415610ce6576040516310b53edf60e21b815260040160405180910390fd5b610cf184848461140c565b50505050565b333014801590610d1257506007546001600160a01b03163314155b15610d3257604051637725137960e11b81523360048201526024016108d0565b6000928352600e60209081526040808520938552929052912055565b610d566113b7565b6001600160a01b03166000908152600c60205260409020805460ff19169055565b60098054610d8490612e81565b80601f0160208091040260200160405190810160405280929190818152602001828054610db090612e81565b8015610dfd5780601f10610dd257610100808354040283529160200191610dfd565b820191906000526020600020905b815481529060010190602001808311610de057829003601f168201915b505050505081565b610e10338383611466565b5050565b600b546000906001600160a01b03163314801590610e3d57506005546001600160a01b03163314155b15610e5b576040516302dc7d2f60e21b815260040160405180910390fd5b610e9c6040805160e0810190915280600081526020016000815260200160008152602001606081526020016060815260200160608152602001606081525090565b610f0c306001600160a01b03166398d5fdca6040518163ffffffff1660e01b8152600401600060405180830381865afa158015610edd573d6000803e3d6000fd5b505050506040513d6000823e601f3d908101601f19168201604052610f059190810190612ef8565b82906114fc565b604080516001808252818301909252600091816020015b6060815260200190600190039081610f235790505090508681600081518110610f4e57610f4e612dee565b6020908102919091010152610f638282611509565b610f77610f6f83611533565b8787876117fb565b979650505050505050565b333014801590610f9d57506007546001600160a01b03163314155b15610fbd57604051637725137960e11b81523360048201526024016108d0565b610fc9858585856118cd565b60005b84518110156108e657818181518110610fe757610fe7612dee565b60200260200101516008600087848151811061100557611005612dee565b6020026020010151815260200190815260200160002090816110279190612fad565b50600101610fcc565b33301480159061104b57506007546001600160a01b03163314155b1561106b57604051637725137960e11b81523360048201526024016108d0565b61107785858585611905565b60008481526008602052604090206108e68282612fad565b6110976113b7565b600b80546001600160a01b0319166001600160a01b0392909216919091179055565b6000828152600e60209081526040808320848452909152812054816110de8585611962565b9050806000036110f05781925061087a565b60646110fd82601e612e2d565b611108846046612e2d565b6111129190612e6e565b61111c9190612e5a565b95945050505050565b6001600160a01b03918216600090815260016020908152604080832093909416825291909152205460ff1690565b336001600160a01b038616811480159061117457506111728682611125565b155b156111a55760405163711bec9160e11b81526001600160a01b038083166004830152871660248201526044016108d0565b6108e68686868686611a06565b6111ba6113b7565b6111c381611a94565b50565b3330148015906111e157506007546001600160a01b03163314155b1561120157604051637725137960e11b81523360048201526024016108d0565b6001600160a01b0383163314801590611221575061121f8333611125565b155b156112505760405163711bec9160e11b81523360048201526001600160a01b03841660248201526044016108d0565b61125b838383611b3e565b505050565b805115611281578060405162461bcd60e51b81526004016108d09190612859565b60008060008480602001905181019061129a919061306c565b6000928352600e60209081526040808520938552929052912055505050505050565b6060600280546112cb90612e81565b80601f01602080910402602001604051908101604052809291908181526020018280546112f790612e81565b80156113445780601f1061131957610100808354040283529160200191611344565b820191906000526020600020905b81548152906001019060200180831161132757829003601f168201915b50505050509050919050565b6001600160a01b03841661137a57604051632bfa23e760e11b8152600060048201526024016108d0565b6001600160a01b0385166113a357604051626a0d4560e21b8152600060048201526024016108d0565b6113b08585858585611ba2565b5050505050565b6005546001600160a01b0316331461140a5760405162461bcd60e51b815260206004820152601660248201527527b7363c9031b0b63630b1363290313c9037bbb732b960511b60448201526064016108d0565b565b336000908152600c602052604090205460ff1661143e57604051635920257560e01b81523360048201526024016108d0565b336000908152600f602090815260408083209583529481528482209382529290925291902055565b6001600160a01b03821661148f5760405162ced3e160e81b8152600060048201526024016108d0565b6001600160a01b03838116600081815260016020908152604080832094871680845294825291829020805460ff191686151590811790915591519182527f17307eab39ab6107e8899845ad3d59bd9653f200f220920489ca2b5937696c31910160405180910390a3505050565b610e108260008084611bf5565b805160000361152b5760405163fe936cb760e01b815260040160405180910390fd5b60a090910152565b60606000611542610100611c73565b905061157b6040518060400160405280600c81526020016b31b7b232a637b1b0ba34b7b760a11b81525082611c9490919063ffffffff16565b82516115999060028111156115925761159261309a565b8290611cad565b6040805180820190915260088152676c616e677561676560c01b60208201526115c3908290611c94565b60408301516115da9080156115925761159261309a565b604080518082019091526006815265736f7572636560d01b6020820152611602908290611c94565b6060830151611612908290611c94565b60a0830151511561169e576040805180820190915260048152636172677360e01b6020820152611643908290611c94565b61164c81611ce6565b60005b8360a00151518110156116945761168c8460a00151828151811061167557611675612dee565b602002602001015183611c9490919063ffffffff16565b60010161164f565b5061169e81611d0a565b60808301515115611762576000836020015160028111156116c1576116c161309a565b036116df5760405163a80d31f760e01b815260040160405180910390fd5b60408051808201909152600f81526e39b2b1b932ba39a637b1b0ba34b7b760891b6020820152611710908290611c94565b611729836020015160028111156115925761159261309a565b6040805180820190915260078152667365637265747360c81b6020820152611752908290611c94565b6080830151611762908290611d28565b60c083015151156117f35760408051808201909152600981526862797465734172677360b81b6020820152611798908290611c94565b6117a181611ce6565b60005b8360c00151518110156117e9576117e18460c0015182815181106117ca576117ca612dee565b602002602001015183611d2890919063ffffffff16565b6001016117a4565b506117f381611d0a565b515192915050565b6000807f00000000000000000000000000000000000000000000000000000000000000006001600160a01b031663461d27628688600188886040518663ffffffff1660e01b81526004016118539594939291906130b0565b6020604051808303816000875af1158015611872573d6000803e3d6000fd5b505050506040513d601f19601f8201168201806040525081019061189691906130f9565b60405190915081907f1131472297a800fee664d1d89cfa8f7676ff07189ecc53f80bbb5f4969099db890600090a295945050505050565b6001600160a01b0384166118f757604051632bfa23e760e11b8152600060048201526024016108d0565b610cf1600085858585611ba2565b6001600160a01b03841661192f57604051632bfa23e760e11b8152600060048201526024016108d0565b604080516001808252602082018690528183019081526060820185905260808201909252906108e6600087848487611ba2565b60008080805b600d548110156119e8576000600d828154811061198757611987612dee565b60009182526020808320909101546001600160a01b0316808352600f825260408084208b855283528084208a855290925291205490915080156119de576119ce8186612e6e565b9450836119da81612ebb565b9450505b5050600101611968565b50806000036119fc57600092505050610510565b61111c8183612e5a565b6001600160a01b038416611a3057604051632bfa23e760e11b8152600060048201526024016108d0565b6001600160a01b038516611a5957604051626a0d4560e21b8152600060048201526024016108d0565b60408051600180825260208201869052818301908152606082018590526080820190925290611a8b8787848487611ba2565b50505050505050565b336001600160a01b03821603611aec5760405162461bcd60e51b815260206004820152601760248201527f43616e6e6f74207472616e7366657220746f2073656c6600000000000000000060448201526064016108d0565b600680546001600160a01b0319166001600160a01b03838116918217909255600554604051919216907fed8889f560326eb138920d842192f0eb3dd22b4f139c87a2c57538e05bae127890600090a350565b6001600160a01b038316611b6757604051626a0d4560e21b8152600060048201526024016108d0565b604080516001808252602082018590528183019081526060820184905260a082019092526000608082018181529192916113b0918791859085905b611bae85858585611d35565b6001600160a01b038416156113b05782513390600103611be75760208481015190840151611be0838989858589611e21565b50506108e6565b6108e6818787878787611f45565b8051600003611c17576040516322ce3edd60e01b815260040160405180910390fd5b83836002811115611c2a57611c2a61309a565b90816002811115611c3d57611c3d61309a565b90525060408401828015611c5357611c5361309a565b90818015611c6357611c6361309a565b9052506060909301929092525050565b611c7b6125e0565b8051611c87908361202e565b5060006020820152919050565b611ca182600383516120a5565b815161125b90826121be565b8151611cba9060c26121df565b50610e108282604051602001611cd291815260200190565b604051602081830303815290604052611d28565b611cf1816004612248565b600181602001818151611d049190612e6e565b90525050565b611d15816007612248565b600181602001818151611d049190612e1a565b611ca182600283516120a5565b611d418484848461225f565b6001600160a01b038416611dc1576000805b8351811015611da75760208181028481018201519086018201516000908152600390925260408220805491928392611d8c908490612e6e565b90915550611d9c90508184612e6e565b925050600101611d53565b508060046000828254611dba9190612e6e565b9091555050505b6001600160a01b038316610cf1576000805b8351811015611e10576020818102848101820151908601820151600090815260039092526040909120805482900390559190910190600101611dd3565b506004805491909103905550505050565b6001600160a01b0384163b156108e65760405163f23a6e6160e01b81526001600160a01b0385169063f23a6e6190611e659089908990889088908890600401613112565b6020604051808303816000875af1925050508015611ea0575060408051601f3d908101601f19168201909252611e9d9181019061314c565b60015b611f09573d808015611ece576040519150601f19603f3d011682016040523d82523d6000602084013e611ed3565b606091505b508051600003611f0157604051632bfa23e760e11b81526001600160a01b03861660048201526024016108d0565b805181602001fd5b6001600160e01b0319811663f23a6e6160e01b14611a8b57604051632bfa23e760e11b81526001600160a01b03861660048201526024016108d0565b6001600160a01b0384163b156108e65760405163bc197c8160e01b81526001600160a01b0385169063bc197c8190611f899089908990889088908890600401613169565b6020604051808303816000875af1925050508015611fc4575060408051601f3d908101601f19168201909252611fc19181019061314c565b60015b611ff2573d808015611ece576040519150601f19603f3d011682016040523d82523d6000602084013e611ed3565b6001600160e01b0319811663bc197c8160e01b14611a8b57604051632bfa23e760e11b81526001600160a01b03861660048201526024016108d0565b60408051808201909152606081526000602082015261204e6020836131c7565b156120765761205e6020836131c7565b612069906020612e1a565b6120739083612e6e565b91505b60208084018390526040518085526000815290818401018181101561209a57600080fd5b604052509192915050565b6017816001600160401b0316116120cb578251610cf19060e0600585901b1683176121df565b60ff816001600160401b03161161210b5782516120f3906018611fe0600586901b16176121df565b508251610cf1906001600160401b0383166001612473565b61ffff816001600160401b03161161214c578251612134906019611fe0600586901b16176121df565b508251610cf1906001600160401b0383166002612473565b63ffffffff816001600160401b03161161218f57825161217790601a611fe0600586901b16176121df565b508251610cf1906001600160401b0383166004612473565b82516121a690601b611fe0600586901b16176121df565b508251610cf1906001600160401b0383166008612473565b6040805180820190915260608152600060208201526106b5838384516124f8565b6040805180820190915260608152600060208201528251516000612204826001612e6e565b9050846020015182106122255761222585612220836002612e2d565b6125c9565b845160208382010185815350805182111561223e578181525b5093949350505050565b815161125b90601f611fe0600585901b16176121df565b805182511461228e5781518151604051635b05999160e01b8152600481019290925260248201526044016108d0565b3360005b8351811015612394576020818102858101820151908501909101516001600160a01b03881615612345576000828152602081815260408083206001600160a01b038c1684529091529020548181101561231e576040516303dee4c560e01b81526001600160a01b038a1660048201526024810182905260448101839052606481018490526084016108d0565b6000838152602081815260408083206001600160a01b038d16845290915290209082900390555b6001600160a01b0387161561238a576000828152602081815260408083206001600160a01b038b16845290915281208054839290612384908490612e6e565b90915550505b5050600101612292565b5082516001036124155760208301516000906020840151909150856001600160a01b0316876001600160a01b0316846001600160a01b03167fc3d58168c5ae7397731d063d5bbf3d657854427343f4c083240f7aacaa2d0f628585604051612406929190918252602082015260400190565b60405180910390a450506113b0565b836001600160a01b0316856001600160a01b0316826001600160a01b03167f4a39dc06d4c0dbc64b70af90fd698a233a518aa5d07e595d983b8c0526c8f7fb86866040516124649291906131db565b60405180910390a45050505050565b60408051808201909152606081526000602082015283515160006124978285612e6e565b905085602001518111156124b4576124b486612220836002612e2d565b600060016124c4866101006132e4565b6124ce9190612e1a565b905086518281018783198251161781525080518311156124ec578281525b50959695505050505050565b604080518082019091526060815260006020820152825182111561251b57600080fd5b835151600061252a8483612e6e565b905085602001518111156125475761254786612220836002612e2d565b855180518382016020019160009180851115612561578482525b505050602086015b602086106125a15780518252612580602083612e6e565b915061258d602082612e6e565b905061259a602087612e1a565b9550612569565b51815160001960208890036101000a0190811690199190911617905250849150509392505050565b81516125d5838361202e565b50610cf183826121be565b6040518060400160405280612608604051806040016040528060608152602001600081525090565b8152602001600081525090565b80356001600160a01b038116811461262c57600080fd5b919050565b6000806040838503121561264457600080fd5b61264d83612615565b946020939093013593505050565b6001600160e01b0319811681146111c357600080fd5b60006020828403121561268357600080fd5b81356106b58161265b565b6000806000606084860312156126a357600080fd5b6126ac84612615565b95602085013595506040909401359392505050565b634e487b7160e01b600052604160045260246000fd5b604051601f8201601f191681016001600160401b03811182821017156126ff576126ff6126c1565b604052919050565b60006001600160401b03821115612720576127206126c1565b50601f01601f191660200190565b600082601f83011261273f57600080fd5b813561275261274d82612707565b6126d7565b81815284602083860101111561276757600080fd5b816020850160208301376000918101602001919091529392505050565b60008060006060848603121561279957600080fd5b8335925060208401356001600160401b03808211156127b757600080fd5b6127c38783880161272e565b935060408601359150808211156127d957600080fd5b506127e68682870161272e565b9150509250925092565b60006020828403121561280257600080fd5b5035919050565b60005b8381101561282457818101518382015260200161280c565b50506000910152565b60008151808452612845816020860160208601612809565b601f01601f19169290920160200192915050565b6020815260006106b5602083018461282d565b6000806040838503121561287f57600080fd5b50508035926020909101359150565b60006001600160401b038211156128a7576128a76126c1565b5060051b60200190565b600082601f8301126128c257600080fd5b813560206128d261274d8361288e565b8083825260208201915060208460051b8701019350868411156128f457600080fd5b602086015b8481101561291057803583529183019183016128f9565b509695505050505050565b600080600080600060a0868803121561293357600080fd5b61293c86612615565b945061294a60208701612615565b935060408601356001600160401b038082111561296657600080fd5b61297289838a016128b1565b9450606088013591508082111561298857600080fd5b61299489838a016128b1565b935060808801359150808211156129aa57600080fd5b506129b78882890161272e565b9150509295509295909350565b6000602082840312156129d657600080fd5b6106b582612615565b600080604083850312156129f257600080fd5b82356001600160401b0380821115612a0957600080fd5b818501915085601f830112612a1d57600080fd5b81356020612a2d61274d8361288e565b82815260059290921b84018101918181019089841115612a4c57600080fd5b948201945b83861015612a7157612a6286612615565b82529482019490820190612a51565b96505086013592505080821115612a8757600080fd5b50612a94858286016128b1565b9150509250929050565b60008151808452602080850194506020840160005b83811015612acf57815187529582019590820190600101612ab3565b509495945050505050565b6020815260006106b56020830184612a9e565b600080600060608486031215612b0257600080fd5b505081359360208301359350604090920135919050565b60008060408385031215612b2c57600080fd5b612b3583612615565b915060208301358015158114612b4a57600080fd5b809150509250929050565b60008060008060808587031215612b6b57600080fd5b84356001600160401b0380821115612b8257600080fd5b612b8e8883890161272e565b9550602087013591508082168214612ba557600080fd5b509250604085013563ffffffff81168114612bbf57600080fd5b9396929550929360600135925050565b600080600080600060a08688031215612be757600080fd5b612bf086612615565b94506020808701356001600160401b0380821115612c0d57600080fd5b612c198a838b016128b1565b96506040890135915080821115612c2f57600080fd5b612c3b8a838b016128b1565b95506060890135915080821115612c5157600080fd5b612c5d8a838b0161272e565b94506080890135915080821115612c7357600080fd5b818901915089601f830112612c8757600080fd5b8135612c9561274d8261288e565b81815260059190911b8301840190848101908c831115612cb457600080fd5b8585015b83811015612cec57803585811115612cd05760008081fd5b612cde8f89838a010161272e565b845250918601918601612cb8565b508096505050505050509295509295909350565b600080600080600060a08688031215612d1857600080fd5b612d2186612615565b9450602086013593506040860135925060608601356001600160401b0380821115612d4b57600080fd5b61299489838a0161272e565b60008060408385031215612d6a57600080fd5b612d7383612615565b9150612d8160208401612615565b90509250929050565b600080600080600060a08688031215612da257600080fd5b612dab86612615565b9450612db960208701612615565b9350604086013592506060860135915060808601356001600160401b03811115612de257600080fd5b6129b78882890161272e565b634e487b7160e01b600052603260045260246000fd5b634e487b7160e01b600052601160045260246000fd5b8181038181111561051057610510612e04565b808202811582820484141761051057610510612e04565b634e487b7160e01b600052601260045260246000fd5b600082612e6957612e69612e44565b500490565b8082018082111561051057610510612e04565b600181811c90821680612e9557607f821691505b602082108103612eb557634e487b7160e01b600052602260045260246000fd5b50919050565b600060018201612ecd57612ecd612e04565b5060010190565b60008060408385031215612ee757600080fd5b505080516020909101519092909150565b600060208284031215612f0a57600080fd5b81516001600160401b03811115612f2057600080fd5b8201601f81018413612f3157600080fd5b8051612f3f61274d82612707565b818152856020838501011115612f5457600080fd5b61111c826020830160208601612809565b601f82111561125b576000816000526020600020601f850160051c81016020861015612f8e5750805b601f850160051c820191505b818110156108e657828155600101612f9a565b81516001600160401b03811115612fc657612fc66126c1565b612fda81612fd48454612e81565b84612f65565b602080601f83116001811461300f5760008415612ff75750858301515b600019600386901b1c1916600185901b1785556108e6565b600085815260208120601f198616915b8281101561303e5788860151825594840194600190910190840161301f565b508582101561305c5787850151600019600388901b60f8161c191681555b5050505050600190811b01905550565b60008060006060848603121561308157600080fd5b8351925060208401519150604084015190509250925092565b634e487b7160e01b600052602160045260246000fd5b6001600160401b038616815260a0602082015260006130d260a083018761282d565b61ffff9590951660408301525063ffffffff92909216606083015260809091015292915050565b60006020828403121561310b57600080fd5b5051919050565b6001600160a01b03868116825285166020820152604081018490526060810183905260a060808201819052600090610f779083018461282d565b60006020828403121561315e57600080fd5b81516106b58161265b565b6001600160a01b0386811682528516602082015260a06040820181905260009061319590830186612a9e565b82810360608401526131a78186612a9e565b905082810360808401526131bb818561282d565b98975050505050505050565b6000826131d6576131d6612e44565b500690565b6040815260006131ee6040830185612a9e565b828103602084015261111c8185612a9e565b600181815b8085111561323b57816000190482111561322157613221612e04565b8085161561322e57918102915b93841c9390800290613205565b509250929050565b60008261325257506001610510565b8161325f57506000610510565b8160018114613275576002811461327f5761329b565b6001915050610510565b60ff84111561329057613290612e04565b50506001821b610510565b5060208310610133831016604e8410600b84101617156132be575081810a610510565b6132c88383613200565b80600019048211156132dc576132dc612e04565b029392505050565b60006106b5838361324356fea26469706673582212206ee4868adb918a27b7c38b2a3312b98ef97bcd019d046fb97aa3bea4a7e3e54064736f6c63430008180033636f6e7374207b20657468657273207d203d20617761697420696d706f727428276e706d3a65746865727340362e31302e3027293b636f6e737420746f6b656e4964203d20617267735b305d3b636f6e73742065706f63684964203d20303b636f6e737420616269436f646572203d206574686572732e416269436f6465722e64656661756c74416269436f64657228293b636f6e737420656e636f646564203d20616269436f6465722e656e636f6465285b6075696e74323536602c206075696e74323536602c206075696e74323536605d2c205b746f6b656e49642c2065706f636849642c203130305d293b636f6e736f6c652e6c6f6728656e636f646564293b72657475726e206574686572732e676574427974657328656e636f646564293b","linkReferences":{}},"methodIdentifiers":{"APPRAISAL_LOCK_TIME()":"8863af94","APPRAISAL_WEIGHT()":"81c61fab","ORACLE_WEIGHT()":"5fa48e17","acceptOwnership()":"79ba5097","balanceOf(address,uint256)":"00fdd58e","balanceOfBatch(address[],uint256[])":"4e1273f4","burn(address,uint256,uint256)":"f5298aca","exists(uint256)":"4f558e79","getAppraisalCount(uint256,uint256)":"145a007a","getEpochPrice(uint256,uint256)":"e3423605","getPrice()":"98d5fdca","getRewardShare(address,uint256,uint256)":"0924a321","handleOracleFulfillment(bytes32,bytes,bytes)":"0ca76175","isAppraiser(address)":"c4c66d7f","isApprovedForAll(address,address)":"e985e9c5","mint(address,uint256,uint256,bytes,string)":"c1341c4f","mintBatch(address,uint256[],uint256[],bytes,string[])":"b942f8cb","owner()":"8da5cb5b","registerAppraiser(address)":"491baf80","removeAppraiser(address)":"92a77942","s_appraisers(uint256)":"6262a519","safeBatchTransferFrom(address,address,uint256[],uint256[],bytes)":"2eb2c2d6","safeTransferFrom(address,address,uint256,uint256,bytes)":"f242432a","setAppraiserPrice(uint256,uint256,uint256)":"86531975","setApprovalForAll(address,bool)":"a22cb465","setAutomationForwarder(address)":"d40d17bc","setIssuer(address)":"55cc4e57","setOraclePrice(uint256,uint256,uint256)":"8ffc6597","setPool(address)":"4437152a","supportsInterface(bytes4)":"01ffc9a7","totalSupply()":"18160ddd","totalSupply(uint256)":"bd85b039","transferOwnership(address)":"f2fde38b","updatePriceDetails(string,uint64,uint32,bytes32)":"a843a0ab","uri(uint256)":"0e89341c"},"id":52}