{"abi":[{"type":"constructor","inputs":[{"name":"uri_","type":"string","internalType":"string"},{"name":"functionsRouterAddress","type":"address","internalType":"address"}],"stateMutability":"nonpayable"},{"type":"function","name":"APPRAISAL_LOCK_TIME","inputs":[],"outputs":[{"name":"","type":"uint256","internalType":"uint256"}],"stateMutability":"view"},{"type":"function","name":"APPRAISAL_WEIGHT","inputs":[],"outputs":[{"name":"","type":"uint256","internalType":"uint256"}],"stateMutability":"view"},{"type":"function","name":"ORACLE_WEIGHT","inputs":[],"outputs":[{"name":"","type":"uint256","internalType":"uint256"}],"stateMutability":"view"},{"type":"function","name":"acceptOwnership","inputs":[],"outputs":[],"stateMutability":"nonpayable"},{"type":"function","name":"balanceOf","inputs":[{"name":"account","type":"address","internalType":"address"},{"name":"id","type":"uint256","internalType":"uint256"}],"outputs":[{"name":"","type":"uint256","internalType":"uint256"}],"stateMutability":"view"},{"type":"function","name":"balanceOfBatch","inputs":[{"name":"accounts","type":"address[]","internalType":"address[]"},{"name":"ids","type":"uint256[]","internalType":"uint256[]"}],"outputs":[{"name":"","type":"uint256[]","internalType":"uint256[]"}],"stateMutability":"view"},{"type":"function","name":"burn","inputs":[{"name":"account","type":"address","internalType":"address"},{"name":"id","type":"uint256","internalType":"uint256"},{"name":"amount","type":"uint256","internalType":"uint256"}],"outputs":[],"stateMutability":"nonpayable"},{"type":"function","name":"exists","inputs":[{"name":"id","type":"uint256","internalType":"uint256"}],"outputs":[{"name":"","type":"bool","internalType":"bool"}],"stateMutability":"view"},{"type":"function","name":"getAppraisalCount","inputs":[{"name":"tokenId","type":"uint256","internalType":"uint256"},{"name":"epochId","type":"uint256","internalType":"uint256"}],"outputs":[{"name":"count","type":"uint256","internalType":"uint256"}],"stateMutability":"view"},{"type":"function","name":"getEpochPrice","inputs":[{"name":"tokenId","type":"uint256","internalType":"uint256"},{"name":"epochId","type":"uint256","internalType":"uint256"}],"outputs":[{"name":"price","type":"uint256","internalType":"uint256"}],"stateMutability":"view"},{"type":"function","name":"getPrice","inputs":[],"outputs":[{"name":"","type":"string","internalType":"string"}],"stateMutability":"view"},{"type":"function","name":"getRewardShare","inputs":[{"name":"appraiser","type":"address","internalType":"address"},{"name":"tokenId","type":"uint256","internalType":"uint256"},{"name":"epochId","type":"uint256","internalType":"uint256"}],"outputs":[{"name":"","type":"uint256","internalType":"uint256"}],"stateMutability":"view"},{"type":"function","name":"handleOracleFulfillment","inputs":[{"name":"requestId","type":"bytes32","internalType":"bytes32"},{"name":"response","type":"bytes","internalType":"bytes"},{"name":"err","type":"bytes","internalType":"bytes"}],"outputs":[],"stateMutability":"nonpayable"},{"type":"function","name":"isApprovedForAll","inputs":[{"name":"account","type":"address","internalType":"address"},{"name":"operator","type":"address","internalType":"address"}],"outputs":[{"name":"","type":"bool","internalType":"bool"}],"stateMutability":"view"},{"type":"function","name":"mint","inputs":[{"name":"_to","type":"address","internalType":"address"},{"name":"_id","type":"uint256","internalType":"uint256"},{"name":"_amount","type":"uint256","internalType":"uint256"},{"name":"_data","type":"bytes","internalType":"bytes"},{"name":"_tokenUri","type":"string","internalType":"string"}],"outputs":[],"stateMutability":"nonpayable"},{"type":"function","name":"mintBatch","inputs":[{"name":"_to","type":"address","internalType":"address"},{"name":"_ids","type":"uint256[]","internalType":"uint256[]"},{"name":"_amounts","type":"uint256[]","internalType":"uint256[]"},{"name":"_data","type":"bytes","internalType":"bytes"},{"name":"_tokenUris","type":"string[]","internalType":"string[]"}],"outputs":[],"stateMutability":"nonpayable"},{"type":"function","name":"owner","inputs":[],"outputs":[{"name":"","type":"address","internalType":"address"}],"stateMutability":"view"},{"type":"function","name":"registerAppraiser","inputs":[{"name":"appraiser","type":"address","internalType":"address"}],"outputs":[],"stateMutability":"nonpayable"},{"type":"function","name":"removeAppraiser","inputs":[{"name":"appraiser","type":"address","internalType":"address"}],"outputs":[],"stateMutability":"nonpayable"},{"type":"function","name":"s_appraisers","inputs":[{"name":"","type":"uint256","internalType":"uint256"}],"outputs":[{"name":"","type":"address","internalType":"address"}],"stateMutability":"view"},{"type":"function","name":"safeBatchTransferFrom","inputs":[{"name":"from","type":"address","internalType":"address"},{"name":"to","type":"address","internalType":"address"},{"name":"ids","type":"uint256[]","internalType":"uint256[]"},{"name":"values","type":"uint256[]","internalType":"uint256[]"},{"name":"data","type":"bytes","internalType":"bytes"}],"outputs":[],"stateMutability":"nonpayable"},{"type":"function","name":"safeTransferFrom","inputs":[{"name":"from","type":"address","internalType":"address"},{"name":"to","type":"address","internalType":"address"},{"name":"id","type":"uint256","internalType":"uint256"},{"name":"value","type":"uint256","internalType":"uint256"},{"name":"data","type":"bytes","internalType":"bytes"}],"outputs":[],"stateMutability":"nonpayable"},{"type":"function","name":"setAppraiserPrice","inputs":[{"name":"tokenId","type":"uint256","internalType":"uint256"},{"name":"epochId","type":"uint256","internalType":"uint256"},{"name":"appraisal","type":"uint256","internalType":"uint256"}],"outputs":[],"stateMutability":"nonpayable"},{"type":"function","name":"setApprovalForAll","inputs":[{"name":"operator","type":"address","internalType":"address"},{"name":"approved","type":"bool","internalType":"bool"}],"outputs":[],"stateMutability":"nonpayable"},{"type":"function","name":"setAutomationForwarder","inputs":[{"name":"automationForwarderAddress","type":"address","internalType":"address"}],"outputs":[],"stateMutability":"nonpayable"},{"type":"function","name":"setIssuer","inputs":[{"name":"_issuer","type":"address","internalType":"address"}],"outputs":[],"stateMutability":"nonpayable"},{"type":"function","name":"setOraclePrice","inputs":[{"name":"tokenId","type":"uint256","internalType":"uint256"},{"name":"epochId","type":"uint256","internalType":"uint256"},{"name":"value","type":"uint256","internalType":"uint256"}],"outputs":[],"stateMutability":"nonpayable"},{"type":"function","name":"setPool","inputs":[{"name":"pool","type":"address","internalType":"address"}],"outputs":[],"stateMutability":"nonpayable"},{"type":"function","name":"supportsInterface","inputs":[{"name":"interfaceId","type":"bytes4","internalType":"bytes4"}],"outputs":[{"name":"","type":"bool","internalType":"bool"}],"stateMutability":"view"},{"type":"function","name":"totalSupply","inputs":[],"outputs":[{"name":"","type":"uint256","internalType":"uint256"}],"stateMutability":"view"},{"type":"function","name":"totalSupply","inputs":[{"name":"id","type":"uint256","internalType":"uint256"}],"outputs":[{"name":"","type":"uint256","internalType":"uint256"}],"stateMutability":"view"},{"type":"function","name":"transferOwnership","inputs":[{"name":"to","type":"address","internalType":"address"}],"outputs":[],"stateMutability":"nonpayable"},{"type":"function","name":"updatePriceDetails","inputs":[{"name":"tokenId","type":"string","internalType":"string"},{"name":"subscriptionId","type":"uint64","internalType":"uint64"},{"name":"gasLimit","type":"uint32","internalType":"uint32"},{"name":"donID","type":"bytes32","internalType":"bytes32"}],"outputs":[{"name":"requestId","type":"bytes32","internalType":"bytes32"}],"stateMutability":"nonpayable"},{"type":"function","name":"uri","inputs":[{"name":"tokenId","type":"uint256","internalType":"uint256"}],"outputs":[{"name":"","type":"string","internalType":"string"}],"stateMutability":"view"},{"type":"event","name":"ApprovalForAll","inputs":[{"name":"account","type":"address","indexed":true,"internalType":"address"},{"name":"operator","type":"address","indexed":true,"internalType":"address"},{"name":"approved","type":"bool","indexed":false,"internalType":"bool"}],"anonymous":false},{"type":"event","name":"OwnershipTransferRequested","inputs":[{"name":"from","type":"address","indexed":true,"internalType":"address"},{"name":"to","type":"address","indexed":true,"internalType":"address"}],"anonymous":false},{"type":"event","name":"OwnershipTransferred","inputs":[{"name":"from","type":"address","indexed":true,"internalType":"address"},{"name":"to","type":"address","indexed":true,"internalType":"address"}],"anonymous":false},{"type":"event","name":"RequestFulfilled","inputs":[{"name":"id","type":"bytes32","indexed":true,"internalType":"bytes32"}],"anonymous":false},{"type":"event","name":"RequestSent","inputs":[{"name":"id","type":"bytes32","indexed":true,"internalType":"bytes32"}],"anonymous":false},{"type":"event","name":"SetIssuer","inputs":[{"name":"issuer","type":"address","indexed":true,"internalType":"address"}],"anonymous":false},{"type":"event","name":"TransferBatch","inputs":[{"name":"operator","type":"address","indexed":true,"internalType":"address"},{"name":"from","type":"address","indexed":true,"internalType":"address"},{"name":"to","type":"address","indexed":true,"internalType":"address"},{"name":"ids","type":"uint256[]","indexed":false,"internalType":"uint256[]"},{"name":"values","type":"uint256[]","indexed":false,"internalType":"uint256[]"}],"anonymous":false},{"type":"event","name":"TransferSingle","inputs":[{"name":"operator","type":"address","indexed":true,"internalType":"address"},{"name":"from","type":"address","indexed":true,"internalType":"address"},{"name":"to","type":"address","indexed":true,"internalType":"address"},{"name":"id","type":"uint256","indexed":false,"internalType":"uint256"},{"name":"value","type":"uint256","indexed":false,"internalType":"uint256"}],"anonymous":false},{"type":"event","name":"URI","inputs":[{"name":"value","type":"string","indexed":false,"internalType":"string"},{"name":"id","type":"uint256","indexed":true,"internalType":"uint256"}],"anonymous":false},{"type":"error","name":"AppraisalAlreadySet","inputs":[]},{"type":"error","name":"AppraisalLockTill","inputs":[{"name":"","type":"uint256","internalType":"uint256"}]},{"type":"error","name":"AppraiserNotAllowed","inputs":[{"name":"","type":"address","internalType":"address"}]},{"type":"error","name":"ERC1155Core_CallerIsNotIssuerOrItself","inputs":[{"name":"msgSender","type":"address","internalType":"address"}]},{"type":"error","name":"ERC1155InsufficientBalance","inputs":[{"name":"sender","type":"address","internalType":"address"},{"name":"balance","type":"uint256","internalType":"uint256"},{"name":"needed","type":"uint256","internalType":"uint256"},{"name":"tokenId","type":"uint256","internalType":"uint256"}]},{"type":"error","name":"ERC1155InvalidApprover","inputs":[{"name":"approver","type":"address","internalType":"address"}]},{"type":"error","name":"ERC1155InvalidArrayLength","inputs":[{"name":"idsLength","type":"uint256","internalType":"uint256"},{"name":"valuesLength","type":"uint256","internalType":"uint256"}]},{"type":"error","name":"ERC1155InvalidOperator","inputs":[{"name":"operator","type":"address","internalType":"address"}]},{"type":"error","name":"ERC1155InvalidReceiver","inputs":[{"name":"receiver","type":"address","internalType":"address"}]},{"type":"error","name":"ERC1155InvalidSender","inputs":[{"name":"sender","type":"address","internalType":"address"}]},{"type":"error","name":"ERC1155MissingApprovalForAll","inputs":[{"name":"operator","type":"address","internalType":"address"},{"name":"owner","type":"address","internalType":"address"}]},{"type":"error","name":"EmptyArgs","inputs":[]},{"type":"error","name":"EmptySource","inputs":[]},{"type":"error","name":"NoInlineSecrets","inputs":[]},{"type":"error","name":"OnlyAutomationForwarderOrOwnerCanCall","inputs":[]},{"type":"error","name":"OnlyRouterCanFulfill","inputs":[]},{"type":"error","name":"PoolNotSet","inputs":[]}],"bytecode":{"object":"0x61020060405261012360a081815290620037c060c03960099062000024908262000277565b503480156200003257600080fd5b50604051620038e3380380620038e3833981016040819052620000559162000360565b8080833380600083620000688162000112565b506001600160a01b038216620000c55760405162461bcd60e51b815260206004820152601860248201527f43616e6e6f7420736574206f776e657220746f207a65726f000000000000000060448201526064015b60405180910390fd5b600580546001600160a01b0319166001600160a01b0384811691909117909155811615620000f857620000f88162000124565b505050506001600160a01b03166080525062000448915050565b600262000120828262000277565b5050565b336001600160a01b038216036200017e5760405162461bcd60e51b815260206004820152601760248201527f43616e6e6f74207472616e7366657220746f2073656c660000000000000000006044820152606401620000bc565b600680546001600160a01b0319166001600160a01b03838116918217909255600554604051919216907fed8889f560326eb138920d842192f0eb3dd22b4f139c87a2c57538e05bae127890600090a350565b634e487b7160e01b600052604160045260246000fd5b600181811c90821680620001fb57607f821691505b6020821081036200021c57634e487b7160e01b600052602260045260246000fd5b50919050565b601f82111562000272576000816000526020600020601f850160051c810160208610156200024d5750805b601f850160051c820191505b818110156200026e5782815560010162000259565b5050505b505050565b81516001600160401b03811115620002935762000293620001d0565b620002ab81620002a48454620001e6565b8462000222565b602080601f831160018114620002e35760008415620002ca5750858301515b600019600386901b1c1916600185901b1785556200026e565b600085815260208120601f198616915b828110156200031457888601518255948401946001909101908401620002f3565b5085821015620003335787850151600019600388901b60f8161c191681555b5050505050600190811b01905550565b80516001600160a01b03811681146200035b57600080fd5b919050565b600080604083850312156200037457600080fd5b82516001600160401b03808211156200038c57600080fd5b818501915085601f830112620003a157600080fd5b815181811115620003b657620003b6620001d0565b604051601f8201601f19908116603f01168101908382118183101715620003e157620003e1620001d0565b81604052828152602093508884848701011115620003fe57600080fd5b600091505b8282101562000422578482018401518183018501529083019062000403565b60008484830101528096505050506200043d81860162000343565b925050509250929050565b6080516133556200046b60003960008181610690015261182f01526133556000f3fe608060405234801561001057600080fd5b50600436106102055760003560e01c8063865319751161011a578063b942f8cb116100ad578063e34236051161007c578063e342360514610458578063e985e9c51461046b578063f242432a1461047e578063f2fde38b14610491578063f5298aca146104a457600080fd5b8063b942f8cb146103ff578063bd85b03914610412578063c1341c4f14610432578063d40d17bc1461044557600080fd5b806392a77942116100e957806392a77942146103be57806398d5fdca146103d1578063a22cb465146103d9578063a843a0ab146103ec57600080fd5b806386531975146103875780638863af941461037f5780638da5cb5b1461039a5780638ffc6597146103ab57600080fd5b80634437152a1161019d57806355cc4e571161016c57806355cc4e57146103315780635fa48e17146103445780636262a5191461034c57806379ba50971461037757806381c61fab1461037f57600080fd5b80634437152a146102c9578063491baf80146102dc5780634e1273f4146102ef5780634f558e791461030f57600080fd5b80630e89341c116101d95780630e89341c1461027b578063145a007a1461029b57806318160ddd146102ae5780632eb2c2d6146102b657600080fd5b8062fdd58e1461020a57806301ffc9a7146102305780630924a321146102535780630ca7617514610266575b600080fd5b61021d610218366004612660565b6104b7565b6040519081526020015b60405180910390f35b61024361023e3660046126a0565b6104df565b6040519015158152602001610227565b61021d6102613660046126bd565b61052f565b6102796102743660046127b3565b610685565b005b61028e61028936600461281f565b610709565b6040516102279190612888565b61021d6102a936600461289b565b6107be565b60045461021d565b6102796102c436600461294a565b61084b565b6102796102d73660046129f3565b6108b7565b6102796102ea3660046129f3565b610914565b6103026102fd366004612a0e565b6109b5565b6040516102279190612b09565b61024361031d36600461281f565b600090815260036020526040902054151590565b61027961033f3660046129f3565b610a81565b61021d604681565b61035f61035a36600461281f565b610ad3565b6040516001600160a01b039091168152602001610227565b610279610afd565b61021d601e81565b610279610395366004612b1c565b610bab565b6005546001600160a01b031661035f565b6102796103b9366004612b1c565b610cf3565b6102796103cc3660046129f3565b610d4a565b61028e610da6565b6102796103e7366004612b48565b610e34565b61021d6103fa366004612b84565b610e43565b61027961040d366004612bfe565b610fb1565b61021d61042036600461281f565b60009081526003602052604090205490565b610279610440366004612d2f565b61105f565b6102796104533660046129f3565b6110be565b61021d61046636600461289b565b6110e8565b610243610479366004612d86565b611154565b61027961048c366004612db9565b611182565b61027961049f3660046129f3565b6111e1565b6102796104b23660046126bd565b6111f5565b6000818152602081815260408083206001600160a01b03861684529091529020545b92915050565b60006001600160e01b03198216636cdb3d1360e11b148061051057506001600160e01b031982166303a24d0760e21b145b806104d957506301ffc9a760e01b6001600160e01b03198316146104d9565b60008061053c84846107be565b90508060000361055057600091505061067e565b600061055c85856110e8565b905060008060005b600d54811015610644576000600d828154811061058357610583612e1d565b60009182526020808320909101546001600160a01b0316808352600f825260408084208d855283528084208c8552909252912054909150801561063a5760008682116105d8576105d38288612e49565b6105e2565b6105e28783612e49565b90506000876105f983670de0b6b3a7640000612e5c565b6106039190612e89565b905061060f8188612e9d565b96508c6001600160a01b0316846001600160a01b031603610637576106348187612e9d565b95505b50505b5050600101610564565b508160000361065a57600094505050505061067e565b8161066d82670de0b6b3a7640000612e5c565b6106779190612e89565b9450505050505b9392505050565b336001600160a01b037f000000000000000000000000000000000000000000000000000000000000000016146106ce5760405163c6829f8360e01b815260040160405180910390fd5b6106d983838361128f565b60405183907f85e1543bf2f84fe80c6badbce3648c8539ad1df4d2b3d822938ca0538be727e690600090a2505050565b60008181526008602052604081208054606092919061072790612eb0565b80601f016020809104026020016040519081016040528092919081815260200182805461075390612eb0565b80156107a05780601f10610775576101008083540402835291602001916107a0565b820191906000526020600020905b81548152906001019060200180831161078357829003601f168201915b5050505050905060008151116104d9576107b9836112eb565b61067e565b600080805b600d54811015610843576000600d82815481106107e2576107e2612e1d565b60009182526020808320909101546001600160a01b0316808352600f825260408084208a855283528084208985529092529120549091508015610839576108298185612e9d565b93508461083581612eea565b9550505b50506001016107c3565b505092915050565b336001600160a01b038616811480159061086c575061086a8682611154565b155b156108a25760405163711bec9160e11b81526001600160a01b038083166004830152871660248201526044015b60405180910390fd5b6108af868686868661137f565b505050505050565b3330148015906108d257506007546001600160a01b03163314155b156108f257604051637725137960e11b8152336004820152602401610899565b600a80546001600160a01b0319166001600160a01b0392909216919091179055565b33301480159061092f57506007546001600160a01b03163314155b1561094f57604051637725137960e11b8152336004820152602401610899565b6001600160a01b03166000818152600c60205260408120805460ff19166001908117909155600d805491820181559091527fd7b6990105719101dabeb77144f2a3385c8033acd3af97e9423a695e81ad1eb50180546001600160a01b0319169091179055565b606081518351146109e65781518351604051635b05999160e01b815260048101929092526024820152604401610899565b600083516001600160401b03811115610a0157610a016126f0565b604051908082528060200260200182016040528015610a2a578160200160208202803683370190505b50905060005b8451811015610a7957602080820286010151610a54906020808402870101516104b7565b828281518110610a6657610a66612e1d565b6020908102919091010152600101610a30565b509392505050565b610a896113e6565b600780546001600160a01b0319166001600160a01b0383169081179091556040517fd56ed7b1c1110348b1fbf418469f6fc4acc32d9b675e9e1e448cc19169a64ca090600090a250565b600d8181548110610ae357600080fd5b6000918252602090912001546001600160a01b0316905081565b6006546001600160a01b03163314610b505760405162461bcd60e51b815260206004820152601660248201527526bab9ba10313290383937b837b9b2b21037bbb732b960511b6044820152606401610899565b600580546001600160a01b0319808216339081179093556006805490911690556040516001600160a01b03909116919082907f8be0079c531659141344cd1fd0a4f28419497f9722a3daafe3b4186f6b6457e090600090a350565b336000908152600c602052604090205460ff16610bdd57604051635920257560e01b8152336004820152602401610899565b600a546001600160a01b0316610c0657604051633c67586360e01b815260040160405180910390fd5b600a5460408051630eaf323560e31b815281516000936001600160a01b03169263757991a892600480820193918290030181865afa158015610c4c573d6000803e3d6000fd5b505050506040513d601f19601f82011682018060405250810190610c709190612f03565b9150610c7f9050601e82612e49565b4210610ca1576040516332d6f2a360e21b815260048101829052602401610899565b336000908152600f60209081526040808320878452825280832086845290915290205415610ce2576040516310b53edf60e21b815260040160405180910390fd5b610ced84848461143b565b50505050565b333014801590610d0e57506007546001600160a01b03163314155b15610d2e57604051637725137960e11b8152336004820152602401610899565b6000928352600e60209081526040808520938552929052912055565b333014801590610d6557506007546001600160a01b03163314155b15610d8557604051637725137960e11b8152336004820152602401610899565b6001600160a01b03166000908152600c60205260409020805460ff19169055565b60098054610db390612eb0565b80601f0160208091040260200160405190810160405280929190818152602001828054610ddf90612eb0565b8015610e2c5780601f10610e0157610100808354040283529160200191610e2c565b820191906000526020600020905b815481529060010190602001808311610e0f57829003601f168201915b505050505081565b610e3f338383611495565b5050565b600b546000906001600160a01b03163314801590610e6c57506005546001600160a01b03163314155b15610e8a576040516302dc7d2f60e21b815260040160405180910390fd5b610ecb6040805160e0810190915280600081526020016000815260200160008152602001606081526020016060815260200160608152602001606081525090565b610f3b306001600160a01b03166398d5fdca6040518163ffffffff1660e01b8152600401600060405180830381865afa158015610f0c573d6000803e3d6000fd5b505050506040513d6000823e601f3d908101601f19168201604052610f349190810190612f27565b829061152b565b604080516001808252818301909252600091816020015b6060815260200190600190039081610f525790505090508681600081518110610f7d57610f7d612e1d565b6020908102919091010152610f928282611538565b610fa6610f9e83611562565b87878761182a565b979650505050505050565b333014801590610fcc57506007546001600160a01b03163314155b15610fec57604051637725137960e11b8152336004820152602401610899565b610ff8858585856118fc565b60005b84518110156108af5781818151811061101657611016612e1d565b60200260200101516008600087848151811061103457611034612e1d565b6020026020010151815260200190815260200160002090816110569190612fdc565b50600101610ffb565b33301480159061107a57506007546001600160a01b03163314155b1561109a57604051637725137960e11b8152336004820152602401610899565b6110a685858585611934565b60008481526008602052604090206108af8282612fdc565b6110c66113e6565b600b80546001600160a01b0319166001600160a01b0392909216919091179055565b6000828152600e602090815260408083208484529091528120548161110d8585611991565b90508060000361111f57819250610843565b606461112c82601e612e5c565b611137846046612e5c565b6111419190612e9d565b61114b9190612e89565b95945050505050565b6001600160a01b03918216600090815260016020908152604080832093909416825291909152205460ff1690565b336001600160a01b03861681148015906111a357506111a18682611154565b155b156111d45760405163711bec9160e11b81526001600160a01b03808316600483015287166024820152604401610899565b6108af8686868686611a35565b6111e96113e6565b6111f281611ac3565b50565b33301480159061121057506007546001600160a01b03163314155b1561123057604051637725137960e11b8152336004820152602401610899565b6001600160a01b0383163314801590611250575061124e8333611154565b155b1561127f5760405163711bec9160e11b81523360048201526001600160a01b0384166024820152604401610899565b61128a838383611b6d565b505050565b8051156112b0578060405162461bcd60e51b81526004016108999190612888565b6000806000848060200190518101906112c9919061309b565b6000928352600e60209081526040808520938552929052912055505050505050565b6060600280546112fa90612eb0565b80601f016020809104026020016040519081016040528092919081815260200182805461132690612eb0565b80156113735780601f1061134857610100808354040283529160200191611373565b820191906000526020600020905b81548152906001019060200180831161135657829003601f168201915b50505050509050919050565b6001600160a01b0384166113a957604051632bfa23e760e11b815260006004820152602401610899565b6001600160a01b0385166113d257604051626a0d4560e21b815260006004820152602401610899565b6113df8585858585611bd1565b5050505050565b6005546001600160a01b031633146114395760405162461bcd60e51b815260206004820152601660248201527527b7363c9031b0b63630b1363290313c9037bbb732b960511b6044820152606401610899565b565b336000908152600c602052604090205460ff1661146d57604051635920257560e01b8152336004820152602401610899565b336000908152600f602090815260408083209583529481528482209382529290925291902055565b6001600160a01b0382166114be5760405162ced3e160e81b815260006004820152602401610899565b6001600160a01b03838116600081815260016020908152604080832094871680845294825291829020805460ff191686151590811790915591519182527f17307eab39ab6107e8899845ad3d59bd9653f200f220920489ca2b5937696c31910160405180910390a3505050565b610e3f8260008084611c24565b805160000361155a5760405163fe936cb760e01b815260040160405180910390fd5b60a090910152565b60606000611571610100611ca2565b90506115aa6040518060400160405280600c81526020016b31b7b232a637b1b0ba34b7b760a11b81525082611cc390919063ffffffff16565b82516115c89060028111156115c1576115c16130c9565b8290611cdc565b6040805180820190915260088152676c616e677561676560c01b60208201526115f2908290611cc3565b60408301516116099080156115c1576115c16130c9565b604080518082019091526006815265736f7572636560d01b6020820152611631908290611cc3565b6060830151611641908290611cc3565b60a083015151156116cd576040805180820190915260048152636172677360e01b6020820152611672908290611cc3565b61167b81611d15565b60005b8360a00151518110156116c3576116bb8460a0015182815181106116a4576116a4612e1d565b602002602001015183611cc390919063ffffffff16565b60010161167e565b506116cd81611d39565b60808301515115611791576000836020015160028111156116f0576116f06130c9565b0361170e5760405163a80d31f760e01b815260040160405180910390fd5b60408051808201909152600f81526e39b2b1b932ba39a637b1b0ba34b7b760891b602082015261173f908290611cc3565b611758836020015160028111156115c1576115c16130c9565b6040805180820190915260078152667365637265747360c81b6020820152611781908290611cc3565b6080830151611791908290611d57565b60c083015151156118225760408051808201909152600981526862797465734172677360b81b60208201526117c7908290611cc3565b6117d081611d15565b60005b8360c0015151811015611818576118108460c0015182815181106117f9576117f9612e1d565b602002602001015183611d5790919063ffffffff16565b6001016117d3565b5061182281611d39565b515192915050565b6000807f00000000000000000000000000000000000000000000000000000000000000006001600160a01b031663461d27628688600188886040518663ffffffff1660e01b81526004016118829594939291906130df565b6020604051808303816000875af11580156118a1573d6000803e3d6000fd5b505050506040513d601f19601f820116820180604052508101906118c59190613128565b60405190915081907f1131472297a800fee664d1d89cfa8f7676ff07189ecc53f80bbb5f4969099db890600090a295945050505050565b6001600160a01b03841661192657604051632bfa23e760e11b815260006004820152602401610899565b610ced600085858585611bd1565b6001600160a01b03841661195e57604051632bfa23e760e11b815260006004820152602401610899565b604080516001808252602082018690528183019081526060820185905260808201909252906108af600087848487611bd1565b60008080805b600d54811015611a17576000600d82815481106119b6576119b6612e1d565b60009182526020808320909101546001600160a01b0316808352600f825260408084208b855283528084208a85529092529120549091508015611a0d576119fd8186612e9d565b945083611a0981612eea565b9450505b5050600101611997565b5080600003611a2b576000925050506104d9565b61114b8183612e89565b6001600160a01b038416611a5f57604051632bfa23e760e11b815260006004820152602401610899565b6001600160a01b038516611a8857604051626a0d4560e21b815260006004820152602401610899565b60408051600180825260208201869052818301908152606082018590526080820190925290611aba8787848487611bd1565b50505050505050565b336001600160a01b03821603611b1b5760405162461bcd60e51b815260206004820152601760248201527f43616e6e6f74207472616e7366657220746f2073656c660000000000000000006044820152606401610899565b600680546001600160a01b0319166001600160a01b03838116918217909255600554604051919216907fed8889f560326eb138920d842192f0eb3dd22b4f139c87a2c57538e05bae127890600090a350565b6001600160a01b038316611b9657604051626a0d4560e21b815260006004820152602401610899565b604080516001808252602082018590528183019081526060820184905260a082019092526000608082018181529192916113df918791859085905b611bdd85858585611d64565b6001600160a01b038416156113df5782513390600103611c165760208481015190840151611c0f838989858589611e50565b50506108af565b6108af818787878787611f74565b8051600003611c46576040516322ce3edd60e01b815260040160405180910390fd5b83836002811115611c5957611c596130c9565b90816002811115611c6c57611c6c6130c9565b90525060408401828015611c8257611c826130c9565b90818015611c9257611c926130c9565b9052506060909301929092525050565b611caa61260f565b8051611cb6908361205d565b5060006020820152919050565b611cd082600383516120d4565b815161128a90826121ed565b8151611ce99060c261220e565b50610e3f8282604051602001611d0191815260200190565b604051602081830303815290604052611d57565b611d20816004612277565b600181602001818151611d339190612e9d565b90525050565b611d44816007612277565b600181602001818151611d339190612e49565b611cd082600283516120d4565b611d708484848461228e565b6001600160a01b038416611df0576000805b8351811015611dd65760208181028481018201519086018201516000908152600390925260408220805491928392611dbb908490612e9d565b90915550611dcb90508184612e9d565b925050600101611d82565b508060046000828254611de99190612e9d565b9091555050505b6001600160a01b038316610ced576000805b8351811015611e3f576020818102848101820151908601820151600090815260039092526040909120805482900390559190910190600101611e02565b506004805491909103905550505050565b6001600160a01b0384163b156108af5760405163f23a6e6160e01b81526001600160a01b0385169063f23a6e6190611e949089908990889088908890600401613141565b6020604051808303816000875af1925050508015611ecf575060408051601f3d908101601f19168201909252611ecc9181019061317b565b60015b611f38573d808015611efd576040519150601f19603f3d011682016040523d82523d6000602084013e611f02565b606091505b508051600003611f3057604051632bfa23e760e11b81526001600160a01b0386166004820152602401610899565b805181602001fd5b6001600160e01b0319811663f23a6e6160e01b14611aba57604051632bfa23e760e11b81526001600160a01b0386166004820152602401610899565b6001600160a01b0384163b156108af5760405163bc197c8160e01b81526001600160a01b0385169063bc197c8190611fb89089908990889088908890600401613198565b6020604051808303816000875af1925050508015611ff3575060408051601f3d908101601f19168201909252611ff09181019061317b565b60015b612021573d808015611efd576040519150601f19603f3d011682016040523d82523d6000602084013e611f02565b6001600160e01b0319811663bc197c8160e01b14611aba57604051632bfa23e760e11b81526001600160a01b0386166004820152602401610899565b60408051808201909152606081526000602082015261207d6020836131f6565b156120a55761208d6020836131f6565b612098906020612e49565b6120a29083612e9d565b91505b6020808401839052604051808552600081529081840101818110156120c957600080fd5b604052509192915050565b6017816001600160401b0316116120fa578251610ced9060e0600585901b16831761220e565b60ff816001600160401b03161161213a578251612122906018611fe0600586901b161761220e565b508251610ced906001600160401b03831660016124a2565b61ffff816001600160401b03161161217b578251612163906019611fe0600586901b161761220e565b508251610ced906001600160401b03831660026124a2565b63ffffffff816001600160401b0316116121be5782516121a690601a611fe0600586901b161761220e565b508251610ced906001600160401b03831660046124a2565b82516121d590601b611fe0600586901b161761220e565b508251610ced906001600160401b03831660086124a2565b60408051808201909152606081526000602082015261067e83838451612527565b6040805180820190915260608152600060208201528251516000612233826001612e9d565b905084602001518210612254576122548561224f836002612e5c565b6125f8565b845160208382010185815350805182111561226d578181525b5093949350505050565b815161128a90601f611fe0600585901b161761220e565b80518251146122bd5781518151604051635b05999160e01b815260048101929092526024820152604401610899565b3360005b83518110156123c3576020818102858101820151908501909101516001600160a01b03881615612374576000828152602081815260408083206001600160a01b038c1684529091529020548181101561234d576040516303dee4c560e01b81526001600160a01b038a166004820152602481018290526044810183905260648101849052608401610899565b6000838152602081815260408083206001600160a01b038d16845290915290209082900390555b6001600160a01b038716156123b9576000828152602081815260408083206001600160a01b038b168452909152812080548392906123b3908490612e9d565b90915550505b50506001016122c1565b5082516001036124445760208301516000906020840151909150856001600160a01b0316876001600160a01b0316846001600160a01b03167fc3d58168c5ae7397731d063d5bbf3d657854427343f4c083240f7aacaa2d0f628585604051612435929190918252602082015260400190565b60405180910390a450506113df565b836001600160a01b0316856001600160a01b0316826001600160a01b03167f4a39dc06d4c0dbc64b70af90fd698a233a518aa5d07e595d983b8c0526c8f7fb868660405161249392919061320a565b60405180910390a45050505050565b60408051808201909152606081526000602082015283515160006124c68285612e9d565b905085602001518111156124e3576124e38661224f836002612e5c565b600060016124f386610100613313565b6124fd9190612e49565b9050865182810187831982511617815250805183111561251b578281525b50959695505050505050565b604080518082019091526060815260006020820152825182111561254a57600080fd5b83515160006125598483612e9d565b90508560200151811115612576576125768661224f836002612e5c565b855180518382016020019160009180851115612590578482525b505050602086015b602086106125d057805182526125af602083612e9d565b91506125bc602082612e9d565b90506125c9602087612e49565b9550612598565b51815160001960208890036101000a0190811690199190911617905250849150509392505050565b8151612604838361205d565b50610ced83826121ed565b6040518060400160405280612637604051806040016040528060608152602001600081525090565b8152602001600081525090565b80356001600160a01b038116811461265b57600080fd5b919050565b6000806040838503121561267357600080fd5b61267c83612644565b946020939093013593505050565b6001600160e01b0319811681146111f257600080fd5b6000602082840312156126b257600080fd5b813561067e8161268a565b6000806000606084860312156126d257600080fd5b6126db84612644565b95602085013595506040909401359392505050565b634e487b7160e01b600052604160045260246000fd5b604051601f8201601f191681016001600160401b038111828210171561272e5761272e6126f0565b604052919050565b60006001600160401b0382111561274f5761274f6126f0565b50601f01601f191660200190565b600082601f83011261276e57600080fd5b813561278161277c82612736565b612706565b81815284602083860101111561279657600080fd5b816020850160208301376000918101602001919091529392505050565b6000806000606084860312156127c857600080fd5b8335925060208401356001600160401b03808211156127e657600080fd5b6127f28783880161275d565b9350604086013591508082111561280857600080fd5b506128158682870161275d565b9150509250925092565b60006020828403121561283157600080fd5b5035919050565b60005b8381101561285357818101518382015260200161283b565b50506000910152565b60008151808452612874816020860160208601612838565b601f01601f19169290920160200192915050565b60208152600061067e602083018461285c565b600080604083850312156128ae57600080fd5b50508035926020909101359150565b60006001600160401b038211156128d6576128d66126f0565b5060051b60200190565b600082601f8301126128f157600080fd5b8135602061290161277c836128bd565b8083825260208201915060208460051b87010193508684111561292357600080fd5b602086015b8481101561293f5780358352918301918301612928565b509695505050505050565b600080600080600060a0868803121561296257600080fd5b61296b86612644565b945061297960208701612644565b935060408601356001600160401b038082111561299557600080fd5b6129a189838a016128e0565b945060608801359150808211156129b757600080fd5b6129c389838a016128e0565b935060808801359150808211156129d957600080fd5b506129e68882890161275d565b9150509295509295909350565b600060208284031215612a0557600080fd5b61067e82612644565b60008060408385031215612a2157600080fd5b82356001600160401b0380821115612a3857600080fd5b818501915085601f830112612a4c57600080fd5b81356020612a5c61277c836128bd565b82815260059290921b84018101918181019089841115612a7b57600080fd5b948201945b83861015612aa057612a9186612644565b82529482019490820190612a80565b96505086013592505080821115612ab657600080fd5b50612ac3858286016128e0565b9150509250929050565b60008151808452602080850194506020840160005b83811015612afe57815187529582019590820190600101612ae2565b509495945050505050565b60208152600061067e6020830184612acd565b600080600060608486031215612b3157600080fd5b505081359360208301359350604090920135919050565b60008060408385031215612b5b57600080fd5b612b6483612644565b915060208301358015158114612b7957600080fd5b809150509250929050565b60008060008060808587031215612b9a57600080fd5b84356001600160401b0380821115612bb157600080fd5b612bbd8883890161275d565b9550602087013591508082168214612bd457600080fd5b509250604085013563ffffffff81168114612bee57600080fd5b9396929550929360600135925050565b600080600080600060a08688031215612c1657600080fd5b612c1f86612644565b94506020808701356001600160401b0380821115612c3c57600080fd5b612c488a838b016128e0565b96506040890135915080821115612c5e57600080fd5b612c6a8a838b016128e0565b95506060890135915080821115612c8057600080fd5b612c8c8a838b0161275d565b94506080890135915080821115612ca257600080fd5b818901915089601f830112612cb657600080fd5b8135612cc461277c826128bd565b81815260059190911b8301840190848101908c831115612ce357600080fd5b8585015b83811015612d1b57803585811115612cff5760008081fd5b612d0d8f89838a010161275d565b845250918601918601612ce7565b508096505050505050509295509295909350565b600080600080600060a08688031215612d4757600080fd5b612d5086612644565b9450602086013593506040860135925060608601356001600160401b0380821115612d7a57600080fd5b6129c389838a0161275d565b60008060408385031215612d9957600080fd5b612da283612644565b9150612db060208401612644565b90509250929050565b600080600080600060a08688031215612dd157600080fd5b612dda86612644565b9450612de860208701612644565b9350604086013592506060860135915060808601356001600160401b03811115612e1157600080fd5b6129e68882890161275d565b634e487b7160e01b600052603260045260246000fd5b634e487b7160e01b600052601160045260246000fd5b818103818111156104d9576104d9612e33565b80820281158282048414176104d9576104d9612e33565b634e487b7160e01b600052601260045260246000fd5b600082612e9857612e98612e73565b500490565b808201808211156104d9576104d9612e33565b600181811c90821680612ec457607f821691505b602082108103612ee457634e487b7160e01b600052602260045260246000fd5b50919050565b600060018201612efc57612efc612e33565b5060010190565b60008060408385031215612f1657600080fd5b505080516020909101519092909150565b600060208284031215612f3957600080fd5b81516001600160401b03811115612f4f57600080fd5b8201601f81018413612f6057600080fd5b8051612f6e61277c82612736565b818152856020838501011115612f8357600080fd5b61114b826020830160208601612838565b601f82111561128a576000816000526020600020601f850160051c81016020861015612fbd5750805b601f850160051c820191505b818110156108af57828155600101612fc9565b81516001600160401b03811115612ff557612ff56126f0565b613009816130038454612eb0565b84612f94565b602080601f83116001811461303e57600084156130265750858301515b600019600386901b1c1916600185901b1785556108af565b600085815260208120601f198616915b8281101561306d5788860151825594840194600190910190840161304e565b508582101561308b5787850151600019600388901b60f8161c191681555b5050505050600190811b01905550565b6000806000606084860312156130b057600080fd5b8351925060208401519150604084015190509250925092565b634e487b7160e01b600052602160045260246000fd5b6001600160401b038616815260a06020820152600061310160a083018761285c565b61ffff9590951660408301525063ffffffff92909216606083015260809091015292915050565b60006020828403121561313a57600080fd5b5051919050565b6001600160a01b03868116825285166020820152604081018490526060810183905260a060808201819052600090610fa69083018461285c565b60006020828403121561318d57600080fd5b815161067e8161268a565b6001600160a01b0386811682528516602082015260a0604082018190526000906131c490830186612acd565b82810360608401526131d68186612acd565b905082810360808401526131ea818561285c565b98975050505050505050565b60008261320557613205612e73565b500690565b60408152600061321d6040830185612acd565b828103602084015261114b8185612acd565b600181815b8085111561326a57816000190482111561325057613250612e33565b8085161561325d57918102915b93841c9390800290613234565b509250929050565b600082613281575060016104d9565b8161328e575060006104d9565b81600181146132a457600281146132ae576132ca565b60019150506104d9565b60ff8411156132bf576132bf612e33565b50506001821b6104d9565b5060208310610133831016604e8410600b84101617156132ed575081810a6104d9565b6132f7838361322f565b806000190482111561330b5761330b612e33565b029392505050565b600061067e838361327256fea264697066735822122030f2a40f244814b033132b38bc1130aa5b562e5eea7cc6878e9ad4ed6eab9fde64736f6c63430008180033636f6e7374207b20657468657273207d203d20617761697420696d706f727428276e706d3a65746865727340362e31302e3027293b636f6e737420746f6b656e4964203d20617267735b305d3b636f6e73742065706f63684964203d20303b636f6e737420616269436f646572203d206574686572732e416269436f6465722e64656661756c74416269436f64657228293b636f6e737420656e636f646564203d20616269436f6465722e656e636f6465285b6075696e74323536602c206075696e74323536602c206075696e74323536605d2c205b746f6b656e49642c2065706f636849642c203130305d293b636f6e736f6c652e6c6f6728656e636f646564293b72657475726e206574686572732e676574427974657328656e636f646564293b","linkReferences":{}},"methodIdentifiers":{"APPRAISAL_LOCK_TIME()":"8863af94","APPRAISAL_WEIGHT()":"81c61fab","ORACLE_WEIGHT()":"5fa48e17","acceptOwnership()":"79ba5097","balanceOf(address,uint256)":"00fdd58e","balanceOfBatch(address[],uint256[])":"4e1273f4","burn(address,uint256,uint256)":"f5298aca","exists(uint256)":"4f558e79","getAppraisalCount(uint256,uint256)":"145a007a","getEpochPrice(uint256,uint256)":"e3423605","getPrice()":"98d5fdca","getRewardShare(address,uint256,uint256)":"0924a321","handleOracleFulfillment(bytes32,bytes,bytes)":"0ca76175","isApprovedForAll(address,address)":"e985e9c5","mint(address,uint256,uint256,bytes,string)":"c1341c4f","mintBatch(address,uint256[],uint256[],bytes,string[])":"b942f8cb","owner()":"8da5cb5b","registerAppraiser(address)":"491baf80","removeAppraiser(address)":"92a77942","s_appraisers(uint256)":"6262a519","safeBatchTransferFrom(address,address,uint256[],uint256[],bytes)":"2eb2c2d6","safeTransferFrom(address,address,uint256,uint256,bytes)":"f242432a","setAppraiserPrice(uint256,uint256,uint256)":"86531975","setApprovalForAll(address,bool)":"a22cb465","setAutomationForwarder(address)":"d40d17bc","setIssuer(address)":"55cc4e57","setOraclePrice(uint256,uint256,uint256)":"8ffc6597","setPool(address)":"4437152a","supportsInterface(bytes4)":"01ffc9a7","totalSupply()":"18160ddd","totalSupply(uint256)":"bd85b039","transferOwnership(address)":"f2fde38b","updatePriceDetails(string,uint64,uint32,bytes32)":"a843a0ab","uri(uint256)":"0e89341c"},"id":54}